:100000000C9477010C949F010C949F010C949F0118
:100010000C949F010C949F010C949F010C949F01E0
:100020000C949F010C949F010C94EE130C94751486
:100030000C949F010C949F010C949F010C949F01C0
:100040000C949F010C949F010C949F010C949F01B0
:100050000C949F010C949F010C949F010C94CC0D67
:100060000C949F010C949F010C949F010C949F0190
:100070000C949F010C949F010C949F010C949F0180
:100080000C949F010C949F010C949F010C949F0170
:100090000C949F010C949F010C949F010C949F0160
:1000A0000C949F010C949F010C949F010000000090
:1000B000240027002A002D00300000000000250049
:1000C00028002B002E003100000000002300260035
:1000D00029002C002F000404040404030405020278
:1000E00002020403020202020606060606060404D1
:1000F00002020204040802011040804010204080E7
:10010000408008020401804020100201108010206D
:1001100040400000000200080E0000030401000B34
:1001200000000000000000000000000000000000CF
:10013000070605040100080A0B0C0D09080B000254
:10014000020201000904000001020200000524006F
:100150001001052401010104240206052406000102
:100160000705810310004009040100020A00000095
:100170000705020240000007058302400000040357
:1001800009042203410072006400750069006E00DA
:100190006F0020004C0065006F006E00610072006F
:1001A00064006F001803410072006400750069006C
:1001B0006E006F0020004C004C0043001201000252
:1001C00000000040412336800001010200011201BD
:1001D00000020200004041233680000101020001BC
:1001E00000C18081C105010902A1010901A10085A9
:1001F00001050919012903150025019503750181E0
:100200000295017505810305010930093109381589
:1002100081257F750895038106C0C005010906A1E7
:10022000018502050719E029E715002501750195EB
:10023000088102950175088103950675081500254A
:10024000650507190029658100C009040200010342
:100250000000000921010100012265000705840357
:1002600040000100000000000000002A2B280000D0
:10027000000000000000000000000000000000007E
:100280000000002C9EB4A0A1A2A434A6A7A5AE365F
:100290002D3738271E1F20212223242526B333B6CD
:1002A0002EB7B89F8485868788898A8B8C8D8E8FA0
:1002B000909192939495969798999A9B9C9D2F31A3
:1002C00030A3AD350405060708090A0B0C0D0E0F07
:1002D000101112131415161718191A1B1C1DAFB183
:1002E000B0B500004C026F112A13381645021124D4
:1002F0001FBECFEFDAE0DEBFCDBF11E0A0E0B1E07E
:10030000ECE1F5E302C005900D92AA39B107D9F7E7
:1003100012E0AAE9B1E001C01D92A737B107E1F7E9
:1003200012E0CCEED2E004C02297FE010E94461AF1
:10033000C43ED107C9F70E943A120C94811A0C945A
:100340000000A0E0B0E0E7EAF1E00C94521AEC0102
:10035000A880B980CA80DB80A114B104C104D10493
:1003600041F484E2A82E89EDB82E8BE5C82E87E0F3
:10037000D82EC601B5012DE133EF41E050E00E94D7
:10038000151A27EA31E440E050E00E94C1197B01D0
:100390008C01C601B5012DE133EF41E050E00E9430
:1003A000151ACA01B9012CEE34EF4FEF5FEF0E942E
:1003B000C1196E0D7F1D801F911F97FF04C06150F2
:1003C000704080409048688379838A839B839B0137
:1003D000AC015F77B901CA01CDB7DEB7EAE00C9492
:1003E0006E1A0E94A101089580E091E00E94A1018F
:1003F000089560930001709301018093020190932E
:1004000003010895CF92EF920F938130910581F50A
:100410006F5F7F4FB1F520913C0120939A011092BC
:100420009B0140913D0140939C0110929D018EE9FA
:1004300091E061E004E035E0E32ECC24C3940E9417
:10044000990A82EE91E063E00E94220686EE91E036
:1004500066E041E00E949F0583EF91E066E042E0A4
:100460000E94E70487EF91E069E00E94C50409C09B
:10047000892B39F46F5F7F4F21F486EE91E00E9463
:100480008A050F91EF90CF90089580E090E06FEF94
:100490007FEF0E940202089581E090E06FEF7FEF0E
:1004A0000E94020208959F92AF92BF92CF92DF9274
:1004B000EF92FF920F931F93CF93DF93182F962EF7
:1004C000A42EB22EC82EDD24C0E0D0E0760114C0E8
:1004D000612F6C0F86EE91E040E020E000E00E948A
:1004E000300586EE91E00E945B0561E070E080E0FF
:1004F00090E00E943A0E2196CE018E0D9F1D0F971F
:100500003CF3C0E0D0E013C086EE91E06C2F492DA3
:100510002A2D0B2D0E94300586EE91E00E945B058E
:1005200061E070E080E090E00E943A0E2196CC15E8
:10053000DD0554F3DF91CF911F910F91FF90EF9064
:10054000DF90CF90BF90AF909F9008950F931F932F
:100550002091360130913701C90101970F9708F0BA
:1005600040C08091380190913901289FA001299FB6
:10057000500D389F500D1124662757FD6095762F3A
:100580008EE991E00E94B0078EE991E00E946E0C26
:100590008823D1F761E070E080E090E022E330E072
:1005A00040E050E00E94E015062F61E070E080E03E
:1005B00090E022E330E040E050E00E94E015162F8A
:1005C00061E070E080E090E022E330E040E050E065
:1005D0000E94E015262F80913601602F412F0E9446
:1005E00053021F910F91089582EE91E00E9413062D
:1005F0007093FD016093FC016115710559F166343A
:10060000710544F5CB016AE070E00E94E019675F74
:100610007F4F70933701609336018091FE01909176
:10062000FF0168177907B1F081E090E09093010233
:10063000809300020E94A6028091360190913701BA
:100640009093FF018093FE0161E070E080E090E014
:100650000E943A0E0895109201021092000286E064
:1006600061E00E94980F86E063E770E00E94F30E5D
:1006700062E370E080E090E00E943A0E86E060E085
:1006800070E00E94F30E86E060E00E94980F0895EB
:10069000EF92FF920F931F938EE991E00E942B0639
:1006A0007B018C018EE991E00E942506E61AF70A8B
:1006B000080B190B1E141F04100611065CF48EE9BA
:1006C00091E00E942B067B018C018EE991E00E9453
:1006D00025060AC08EE991E00E9425067B018C0167
:1006E0008EE991E00E942B06C701861B970B41F40F
:1006F0008091000290910102892B11F00E942B033E
:100700001F910F91FF90EF900895CF93DF93C4E076
:10071000D1E01AC0992787FD9095909581959F4FBC
:10072000805C9F4F9093370180933601409739F456
:1007300068EC70E080E090E00E943A0E04C00E94F5
:10074000A6020E942B0321968881882319F7DF9146
:10075000CF9108958EE991E040E050E06AEF73E4B4
:100760000E94D1078EE991E040E050E46CE176E42C
:100770000E949C0B8EE991E040E050E060E070E068
:100780000E9431068EE991E00E946E0C83E161E0E7
:100790000E94980F83E160E273E00E94F30E61E033
:1007A00070E080E090E00E943A0E8EE991E040EF28
:1007B00058ED6FEF7FEF0E94C20706C08EE991E00F
:1007C0000E946E0C882331F083EF91E00E941C059B
:1007D0008823A1F760ED77E080E090E00E943A0E78
:1007E0008EE991E040E050E060E070E00E94310668
:1007F0008EE991E00E946E0C8EE991E048E250E0B3
:1008000060E070E00E94B00704C08EE991E00E94B1
:100810006E0C8EE991E00E942B066832710581050D
:10082000910599F78EE991E00E94140A8EE991E012
:1008300040E050E46CE176E40E94D1078EE991E05B
:1008400040E050E46CE176E40E949C0B8EE991E07C
:100850004FE450E060E070E00E9431068EE991E0E4
:100860000E946E0C08958FE492E00E942511892B5E
:10087000B1F18FE492E00E944C11982F8D3421F455
:1008800081E08093FB0108958E3419F41092FB01EE
:10089000089582317CF480E1891B992787FD90952A
:1008A000909337018093360181E090E090930102AC
:1008B0008093000220913601309137018091FE0132
:1008C0009091FF012817390751F00E94A6028091EC
:1008D0003601909137019093FF018093FE010895B6
:1008E0008091FB01882311F00E94F4020E943304DE
:1008F0000E94480362E370E080E090E00E943A0EBC
:1009000008950F931F9306EE11E0C8016FE00E9457
:100910008B058FE060E040E020E00E945302C801B8
:100920000E945B050E94AA0387E061E00E94980F85
:1009300086E061E00E94980F87E061E00E94251048
:1009400086E060E070E00E94F30E86E060E00E94C6
:10095000980F81E064E640E020E00E945302C80165
:100960000E945B050E942B0368E873E180E090E041
:100970000E943A0E0E9485038FE492E060E875E2DF
:100980000E9424111F910F9108950E94C804089598
:10099000DC01E62FF0E0EE0FFF1FE65CFE4F8081EA
:1009A0008C93818111968C93119712966C9391E0A0
:1009B000909380008BE080938100909390008093CF
:1009C000910087E08093C1001092C3000895DC017C
:1009D000E62FF0E0EE0FFF1FE65CFE4F80818C9368
:1009E000818111968C93119712966C93129713969E
:1009F0004C9391E0909380008BE0809381009093E2
:100A000090008093910087E08093C1001092C30012
:100A10000895FF920F931F938C01F62EFC018181A4
:100A200061E00E94980FF80181816F2D0E942510CE
:100A30001F910F91FF9008950F931F938C01FC015C
:100A4000818160E00E94980FF80181810E94581016
:100A500020E0892B09F021E0822F1F910F9108954A
:100A60000F93DC01522F262F30E014968D919C912C
:100A700015972817390710F080E01BC083E0689FA6
:100A8000802D112490E01696ED91FC911797E80FB8
:100A9000F91F50831696ED91FC911797E80FF91FF7
:100AA00041831696ED91FC911797E80FF91F028389
:100AB00081E00F910895CF93DF93FC01C681D78128
:100AC000848195819C01220F331F280F391F948543
:100AD000A085B1855FB7F8948C91492F4095482344
:100AE000982B11C0899168E09C9300C087FF4C93BC
:100AF000880F00C000C000C008F44C9300C06A9585
:100B000099F7215030402115310561F75FBFDF9122
:100B1000CF91089508950F931F938C0170E0FC010D
:100B200075836483CB01880F991F860F971F0E94DE
:100B3000970CF801868397831F910F9108951F9357
:100B4000CF93DF93EC01142F0E94C8041130E1F41D
:100B50008881282F30E0F901EC50FF4FE491EC87B9
:100B60002A523F4FF901249130E0220F331FF9013F
:100B7000E654FF4F4591549159874887F901E45550
:100B8000FF4F259134911BC08981282F30E0F90156
:100B9000EC50FF4FE491EC872A523F4FF90124912A
:100BA00030E0220F331FF901E654FF4F4591549175
:100BB00059874887F901E455FF4F259134913B87C8
:100BC0002A8761E00E94980FCE0164E00E948B05A5
:100BD000DF91CF911F9108950F931F938C0160E0D7
:100BE0000E94090582E090E00E94930EC80161E036
:100BF0000E9409058AE090E00E94930EC80160E01F
:100C00000E940905F801818160E00E94980FF801B7
:100C1000818161E020E432E44FE050E00E948810DE
:100C20001F910F9108950E94EC052DE130E040E006
:100C300050E00E94151A5595479537952795B901AB
:100C4000CA0108950E94C8040895FC01678570894F
:100C5000818992890895FC016385748585859685CF
:100C60000895FC0143875487658776874787508BB3
:100C7000618B728B13AA14AA15AA16AA13A214A226
:100C800015A216A208956F927F928F929F92AF92B3
:100C9000BF92CF92DF92EF92FF920F931F93CF9369
:100CA000DF93EC01AF84B888C988DA888B859C858E
:100CB000AD85BE85A81AB90ACA0ADB0A2B893C8908
:100CC0004D895E89CA01B9010E94F9187B018C0126
:100CD0002B8D3C8D4D8D5E8DCA01B9010E9442174E
:100CE0009B01AC01C801B7010E94AA170E9412180B
:100CF0009B01AC01A114B104C104D104B9F4623068
:100D00007105810591050CF085C01BA21CA21DA2D6
:100D10001EA280E090E0A0E0B0E08B8B9C8BAD8BBE
:100D2000BE8B1BAA1CAA1DAA1EAA0BC1EBA8FCA85D
:100D30000DA91EA91A141B041C041D0444F51E143D
:100D40001F041006110674F46A157B058C059D05B9
:100D5000B4F5CD5BDF4F8881C354D040882309F0C0
:100D600059C02DC0E114F1040105110509F452C068
:100D70006A157B058C059D050CF04CC0CD5BDF4FE3
:100D80008881C354D040813009F044C038C01E145B
:100D90001F0410061106DCF488279927DC018A1944
:100DA0009B09AC09BD09281739074A075B073CF4C2
:100DB000CD5BDF4F8881C354D040813059F58827FF
:100DC0009927DC01821B930BA40BB50B1FC0E11408
:100DD000F10401051105F1F088279927DC018A1932
:100DE0009B09AC09BD09281739074A075B0794F42A
:100DF000CD5BDF4F8881C354D040882359F48827C6
:100E00009927DC018E199F09A00BB10B8BAB9CAB12
:100E1000ADABBEAB6BA87CA88DA89EA86114710475
:100E200081049104A9F48FA998ADA9ADBAAD8BAF97
:100E30009CAFADAFBEAFFE01ED5BFF4F10821A1449
:100E40001B041C041D040CF049C081E0808346C0D3
:100E5000ABACBCACCDACDEACC601B50120E030E043
:100E600040E050EC0E94F9187B018C01C401B301F1
:100E70000E94451820E030E040E850E40E94F91854
:100E800020E030E040E85FE30E9442179B01AC01A4
:100E9000C801B7010E94AA179B01AC01C601B501A8
:100EA0000E9442177B018C016BAF7CAF8DAF9EAF70
:100EB000EF96A880B980CA80DB80EF979501A601E4
:100EC0000E94F518181624F4D801C70157016D01C6
:100ED000C501D6018BAF9CAFADAFBEAF8BA99CA9AE
:100EE000ADA9BEA90196A11DB11D8BAB9CABADAB4D
:100EF000BEAB6BAD7CAD8DAD9EAD0E9417186BA3E4
:100F00007CA38DA39EA360E074E284E799E42BADFB
:100F10003CAD4DAD5EAD0E94AA179B01AC016B8B41
:100F20007C8B8D8B9E8BCD5BDF4F8881C354D040F3
:100F3000882339F4DA01C901B0588B8B9C8BAD8BB7
:100F4000BE8BDF91CF911F910F91FF90EF90DF90BB
:100F5000CF90BF90AF909F908F907F906F900895AB
:100F6000FC0187859089A189B28984179507A60716
:100F7000B70739F04787508B618B728BCF010E9486
:100F800043060895FC01DB01CA014385548565854C
:100F90007685480F591F6A1F7B1FCF010E94B0073B
:100FA0000895EF92FF920F931F93CF93DF93EC017D
:100FB0007A018B016F89788D898D9A8DA8019701AF
:100FC0000E94A6178823E1F1EF8AF88E098F1A8F05
:100FD000EF9660E074E284E799E4A80197010E942B
:100FE000AA17688379838A839B83EF978BA99CA92F
:100FF000ADA9BEA9181619061A061B060CF52B89F1
:101000003C894D895E89CA01B9010E94F9187B01AA
:101010008C012B8D3C8D4D8D5E8DCA01B9010E94D6
:1010200042179B01AC01C801B7010E94AA170E9498
:1010300012186BAB7CAB8DAB9EABCE010E9443060E
:10104000DF91CF911F910F91FF90EF900895DC01F8
:1010500012968C911297833001F1843040F48130E4
:1010600089F0ED91FC911197823098F407C0863099
:1010700011F1883049F1843079F516C00084F1858A
:10108000E02D1FC0ED91FC9111970284F385E02DB6
:1010900018C00484F585E02D14C0ED91FC911197E2
:1010A0000684F785E02D0DC0ED91FC911197008825
:1010B000F189E02D06C0ED91FC9111970288F3892A
:1010C000E02DCD0109950895ED91FC9111970488CB
:1010D000F589E02DCD0109950895CF93DF93EC01BB
:1010E0006B897C898D899E8920E030E040E050E06A
:1010F0000E94F51818161CF4EFA5F8A902C0E9A97A
:10110000FAA90995DF91CF910895DC0143705070E1
:10111000607070704130510561057105F1F0423029
:1011200051056105710534F44115510561057105DD
:1011300061F008954230510561057105B1F0433009
:1011400051056105710501F518C0ED91FC911197EC
:101150000480F581E02D62E00EC0ED91FC911197C5
:101160000480F581E02D63E006C0ED91FC910480E0
:10117000F581E02D61E009950895ED91FC910480E1
:10118000F581E02D60E009950895CF93DF93EC01A0
:10119000CB01BA0123E030E040E050E00E94151A94
:1011A000613071058105910591F06230710581050D
:1011B0009105A9F06115710581059105C1F4E881DA
:1011C000F9810480F581E02DCE0164E00FC0E88153
:1011D000F9810480F581E02DCE0161E007C0E8814E
:1011E000F9810480F581E02DCE0162E00995DF915F
:1011F000CF910895DC014370507060707070413081
:10120000510561057105F1F0423051056105710527
:1012100034F4411551056105710561F008954230BE
:10122000510561057105B1F0433051056105710546
:1012300001F518C0ED91FC9111970480F581E02D26
:1012400065E00EC0ED91FC9111970480F581E02DD1
:1012500066E006C0ED91FC910480F581E02D6AE026
:1012600009950895ED91FC910480F581E02D69E0E8
:1012700009950895CF93DF93EC01CB01BA0126E0E5
:1012800030E040E050E00E94151A6230710581059F
:10129000910589F1633071058105910564F461154B
:1012A000710581059105B9F06130710581059105E0
:1012B00009F041C018C0643071058105910559F1EC
:1012C0006430710581059105F4F065307105810583
:1012D000910589F528C0E881F9810480F581E02D28
:1012E000CE0164E027C0E881F9810480F581E02D1A
:1012F000CE0165E01FC0E881F9810480F581E02D11
:10130000CE0161E017C0E881F9810480F581E02D0C
:10131000CE0163E00FC0E881F9810480F581E02D02
:10132000CE0162E007C0E881F9810480F581E02DFB
:10133000CE0166E00995DF91CF910895DC014770F9
:10134000507060707070433051056105710509F48B
:1013500043C0443051056105710584F441305105A5
:101360006105710549F1423051056105710564F56A
:101370004115510561057105B9F0089545305105D4
:1013800061057105C9F1453051056105710564F1CB
:101390004630510561057105B9F1473051056105C8
:1013A000710509F040C038C0ED91FC91119704809F
:1013B000F581E02D61E02EC0ED91FC911197048044
:1013C000F581E02D65E026C0ED91FC911197048038
:1013D000F581E02D64E01EC0ED91FC911197048031
:1013E000F581E02D66E016C0ED91FC911197048027
:1013F000F581E02D62E00EC0ED91FC911197048023
:10140000F581E02D6AE006C0ED91FC910480F58144
:10141000E02D68E009950895ED91FC910480F58137
:10142000E02D69E009950895AF92BF92CF92DF92C7
:10143000EF92FF920F931F93CF93DF93EC01AB8852
:10144000BC88CD88DE88C601B50120E030E040E0F0
:1014500050E00E94A6178823B9F1C601B501A60184
:1014600095010E94F9187B018C012B8D3C8D4D8DCF
:101470005E8DCA01B9010E9442179B01AC01C801EF
:10148000B7010E94AA170E9412187B018C010894D0
:10149000E11CF11C011D111DC601B50120E030E069
:1014A00040E050E00E94F518181624F4CE01B8016F
:1014B000A70108C044275527BA014E195F09600BE0
:1014C000710BCE010E94C207DF91CF911F910F9146
:1014D000FF90EF90DF90CF90BF90AF900895CF93A3
:1014E000DF93EC018A81882309F18B8161E00E94FE
:1014F000980F8C8161E00E94980F8A81843011F0EE
:10150000883041F48D8161E00E94980F8E8161E006
:101510000E94980F8EA58F3F49F061E00E94980FBE
:101520006DA581E068278EA50E942510DF91CF91DF
:1015300008954F925F926F927F928F929F92AF9297
:10154000BF92CF92EF920F93FC0184E691E09183DA
:101550008083628313861486158616861786108A02
:10156000118A128A0F2EF0E04F2EF0E05F2EF0E08D
:101570006F2EF0E07F2EF02D438A548A658A768A9A
:101580000F2EF0E08F2EF0E09F2EF0E8AF2EFFE35D
:10159000BF2EF02D878A908EA18EB28E838E948E70
:1015A000A58EB68E878E90A2A1A2B2A213A214A27B
:1015B00015A216A281E090E094A783A78FEF86A7DB
:1015C00017A210A611A612A6438324830583E682E0
:1015D00013AA14AA15AA16AA47AA50AE61AE72AEF3
:1015E00043AE54AE65AE76AEFF9681929192A192D3
:1015F000B1921082E354F040178210861186128651
:10160000CC2019F0CF010E946F0A0F91EF90CF907C
:10161000BF90AF909F908F907F906F905F904F9012
:101620000895CF93DF93EC018A81882371F0E881DC
:10163000F9810480F581E02DCE0160E009958EA549
:101640008F3F19F06DA50E942510DF91CF9108956D
:10165000CF92DF92EF92FF920F931F93CF93DF937E
:10166000FC012281243029F0283019F092E0D92E93
:1016700002C084E0D82E8F01C0E0D0E0E62EFF2427
:10168000CC24C394F8012381C7010C2E02C0959588
:1016900087950A94E2F7678180FD6C25822F0E946E
:1016A000251021960F5F1F4FCD1560F3DF91CF916D
:1016B0001F910F91FF90EF90DF90CF900895CF93FF
:1016C000DF93EC01E881F9810480F581E02DCD5BA9
:1016D000DF4F8881C354D040882311F460E001C0FB
:1016E00062E0CE010995E881F9810480F581E02D61
:1016F000CD5BDF4F8881C354D040882311F461E073
:1017000001C063E0CE0109958BA59CA50E94930EB4
:10171000E881F9810480F581E02DCD5BDF4F888180
:10172000C354D040882311F460E001C062E0CE01D0
:101730000995DF91CF9108956F927F928F929F923A
:10174000AF92BF92CF92DF92EF92FF920F931F93CF
:10175000CF93DF93EC013A014B01CB01BA0120E0BA
:1017600030E040E050E00E94A617882309F441C011
:10177000AB8CBC8CCD8CDE8CC601B501A401930171
:101780000E94A6178823A9F16BA97CA98DA99EA9FF
:101790000E9445187B018C01C601B501A40193018B
:1017A0000E94AA179B01AC01C801B7010E94F91859
:1017B0000E9412186BAB7CAB8DAB9EAB60E070E00F
:1017C00080E090E4A40193010E94AA170E9460198E
:1017D00020E034E244E759E40E94F9186FAB78AF97
:1017E00089AF9AAF6B8E7C8E8D8E9E8ECE010E94BD
:1017F0004306DF91CF911F910F91FF90EF90DF9003
:10180000CF90BF90AF909F908F907F906F900895F2
:10181000EF92FF920F931F93CF93DF93EC018BA175
:101820009CA1ADA1BEA10097A105B10509F44EC0D0
:101830000E94140E7B018C012FA138A549A55AA541
:101840008BA19CA1ADA1BEA1820F931FA41FB51FA8
:1018500082179307A407B50730F0E816F9060A07C0
:101860001B0758F405C0E816F9060A071B0770F1B4
:10187000E216F3060407150748F5CD5BDF4F8881B4
:10188000C354D0402B853C854D855E85813029F43D
:101890002F5F3F4F4F4F5F4F04C0215030404040BB
:1018A00050402B873C874D875E87E881F9814B85C7
:1018B0005C856D857E850680F781E02DCE010995DA
:1018C000EFA2F8A609A71AA781E001C080E0DF9186
:1018D000CF911F910F91FF90EF900895CF93DF93D9
:1018E000EC010E94080C882319F0CE010E944306E7
:1018F0006B897C898D899E8920E030E040E050E052
:101900000E94A617882371F460E02F8538894989E1
:101910005A898B859C85AD85BE85281739074A076E
:101920005B0709F061E0862FDF91CF9108950F9357
:101930001F93CF93DF93BC018230910510F462E0D6
:1019400070E0E0917502F091760240E050E0A0E096
:10195000B0E024C08081918186179707D0F0861768
:10196000970771F482819381109729F013969C93C5
:101970008E9312972CC0909376028093750227C0A5
:101980004115510519F08417950718F48D01AC0124
:10199000EF01DF01828193819C01F9013097D1F63B
:1019A00041155105F9F0CA01861B970B843091054A
:1019B00080F48A819B810115110521F0F801938340
:1019C000828304C09093760280937502FE01329662
:1019D00045C0FE01E80FF91F619371930297998347
:1019E00088833CC08091730290917402892B41F4EA
:1019F00080915201909153019093740280937302ED
:101A000040915401509155014115510541F44DB794
:101A10005EB78091500190915101481B590B209164
:101A200073023091740224173507B0F4CA01821B87
:101A3000930B8617970780F0AB014E5F5F4F8417BB
:101A4000950750F0420F531F509374024093730256
:101A5000F9016193719302C0E0E0F0E0CF01DF9102
:101A6000CF911F910F910895CF93DF939C01009721
:101A700009F48FC0EC0122971B821A8260917502D3
:101A8000709176026115710581F488819981820FC8
:101A9000931F20917302309174022817390739F58A
:101AA000D0937402C093730274C0DB0140E050E035
:101AB000AC17BD0708F1BB83AA83FE0121913191C8
:101AC000E20FF31FAE17BF0779F48D919C91119728
:101AD000280F391F2E5F3F4F3983288312968D912F
:101AE0009C9113979B838A834115510571F4D09380
:101AF0007602C09375024DC012968D919C911397FA
:101B0000AD01009711F0DC01D3CFDA011396DC931D
:101B1000CE931297FA0121913191E20FF31FCE1764
:101B2000DF0769F488819981280F391F2E5F3F4FA5
:101B3000FA01318320838A819B8193838283E0E051
:101B4000F0E0DB0112968D919C911397009719F0AC
:101B5000BC01FD01F6CFAB014E5F5F4FDB018D9104
:101B60009C91840F951F2091730230917402281765
:101B7000390779F4309729F41092760210927502A1
:101B800002C013821282425050405093740240931C
:101B90007302DF91CF9108951F920F920FB60F92AB
:101BA00011242F933F938F939F93AF93BF93809173
:101BB000060290910702A0910802B09109023091AB
:101BC0000A020196A11DB11D232F2D5F2D3720F094
:101BD0002D570196A11DB11D20930A028093060284
:101BE00090930702A0930802B09309028091020229
:101BF00090910302A0910402B09105020196A11DEB
:101C0000B11D8093020290930302A0930402B0934B
:101C10000502BF91AF919F918F913F912F910F90AE
:101C20000FBE0F901F9018959FB7F8942091020255
:101C300030910302409104025091050286B5A89BA1
:101C400006C08F3F21F02F5F3F4F4F4F5F4F9FBF29
:101C5000542F432F322F2227280F311D411D511D94
:101C600082E0220F331F441F551F8A95D1F7B90117
:101C7000CA0108959B01AC017FB7F89480910202DC
:101C800090910302A0910402B091050266B5A89B51
:101C900005C06F3F19F00196A11DB11D7FBFBA2F7E
:101CA000A92F982F8827860F911DA11DB11D62E0D5
:101CB000880F991FAA1FBB1F6A95D1F7BC012DC0C1
:101CC000FFB7F8948091020290910302A091040260
:101CD000B0910502E6B5A89B05C0EF3F19F001964B
:101CE000A11DB11DFFBFBA2FA92F982F88278E0FD6
:101CF000911DA11DB11DE2E0880F991FAA1FBB1FF6
:101D0000EA95D1F7861B970B885E9340C8F2215065
:101D100030404040504068517C4F2115310541050D
:101D2000510571F60895019739F0880F991F880FB2
:101D3000991F02970197F1F70895789484B582600E
:101D400084BD84B5816084BD85B5826085BD85B55F
:101D5000816085BDEEE6F0E0808181608083E1E80E
:101D6000F0E0108280818260808380818160808346
:101D7000E0E8F0E0808181608083E1E9F0E080814B
:101D800082608083808181608083E0E9F0E08081EF
:101D900081608083E1ECF0E08081846080838081D9
:101DA00082608083808181608083E3ECF0E08081C9
:101DB00081608083E0ECF0E0808182608083E2ECEF
:101DC000F0E0808181608083EAE7F0E080818460D8
:101DD0008083808182608083808181608083808134
:101DE0008068808308951F93CF93DF93182FEB01B2
:101DF00061E00E94980F209709F48FC0CF3FD10572
:101E000009F48EC0E12FF0E0EE5EFE4F8491883041
:101E100009F440C0893070F4823019F1833020F425
:101E2000813009F077C018C0833001F1843009F0A7
:101E300071C026C08B3009F44BC08C3030F489302F
:101E400099F18A3009F066C039C08C3009F44DC070
:101E50008E3009F05FC051C084B5806884BDC7BDB5
:101E600063C084B5806284BDC8BD5EC080918000BF
:101E7000806880938000D0938900C093880054C00C
:101E800080918000806280938000D0938B00C0930B
:101E90008A004AC080919000806880939000D0931F
:101EA0009900C093980040C0809190008062809318
:101EB0009000D0939B00C0939A0036C08091900010
:101EC000886080939000D0939D00C0939C002CC0AC
:101ED0008091C00080688093C0008091C0008F7B9B
:101EE0008093C000C093CF001FC08091C00080626B
:101EF0008093C000C093D00017C08091C20088605A
:101F00008093C2008091C2008B7F8093C200C093F7
:101F1000D2000AC0C038D1051CF4812F60E002C095
:101F2000812F61E00E942510DF91CF911F910895CC
:101F3000CF93DF93482F50E0CA018C509F4FFC0194
:101F400034914A525F4FFA018491882369F190E0FD
:101F5000880F991FFC01E455FF4FA591B491FC0136
:101F6000E654FF4FC591D491662351F42FB7F894EE
:101F70008C91932F909589238C93888189230BC012
:101F8000623061F42FB7F8948C91932F9095892348
:101F90008C938881832B88832FBF06C09FB7F894CA
:101FA0008C91832B8C939FBFDF91CF9108958830C4
:101FB00071F1893068F4823031F1833020F481305E
:101FC00009F042C01DC0833089F08430E9F512C0A9
:101FD0008B3059F18C3028F48930E9F08A30A1F542
:101FE0001EC08C3031F18E3079F529C0809180008F
:101FF0008F7703C0809180008F7D8093800008954B
:1020000084B58F7702C084B58F7D84BD089580919B
:1020100090008F7707C0809190008F7D03C08091E2
:102020009000877F8093900008958091C0008F7703
:1020300003C08091C0008F7D8093C000089580917F
:10204000C200877F8093C2000895FF920F931F9371
:10205000F62E482F50E0CA018E5E9E4FFC0124915F
:10206000CA018C509F4FFC0114914A525F4FFA01F4
:1020700004910023C9F0222319F0822F0E94D70F68
:10208000E02FF0E0EE0FFF1FE654FF4FA591B49153
:102090009FB7F894FF2021F48C911095812302C002
:1020A0008C91812B8C939FBF1F910F91FF9008956E
:1020B0000F931F93482F50E0CA018E5E9E4FFC0184
:1020C0002491CA018C509F4FFC0104914A525F4FEA
:1020D000FA011491112319F420E030E015C02223F5
:1020E00019F0822F0E94D70F812F90E0880F991F3F
:1020F00088539F4FFC01A591B4918C9120E030E072
:10210000802311F021E030E0C9011F910F91089563
:102110008F929F92AF92BF92CF92DF92EF92FF92F7
:102120000F931F93CF93DF93A82FB0E0CD018C5076
:102130009F4FFC018490AA52BF4FFD0184916623FA
:1021400011F4992401C0982C6FEFA62E6FEFB62ED4
:102150006FEFC62E6FE0D62EA222B322C422D52264
:10216000682F70E0660F771F68537F4FEE24FF24BF
:102170008701FB01A591B4910BC0EA14FB040C0587
:102180001D0509F44EC00894E11CF11C011D111D30
:102190008C918821891589F30CC0EA14FB040C0585
:1021A0001D0509F43EC00894E11CF11C011D111D20
:1021B00003C0FB01A591B4918C918821891569F721
:1021C00020E030E040E050E0FB01C591D4910FC029
:1021D000DA01C9018E0D9F1DA01FB11F8A159B0535
:1021E000AC05BD05F1F02F5F3F4F4F4F5F4F88812A
:1021F0008821891569F3CA01B90125E130E040E081
:1022000050E00E94C1199B01AC01205F3F4F4F4F2E
:102210005F4F84E056954795379527958A95D1F776
:1022200004C020E030E040E050E0B901CA01DF9195
:10223000CF911F910F91FF90EF90DF90CF90BF90C3
:10224000AF909F908F900895089520914B02309108
:102250004C0280914D0290914E02281B390B2F7336
:102260003070C901089520914B0230914C02809149
:102270004D0290914E022817390719F42FEF3FEFC6
:1022800009C0E0914D02F0914E02E55FFD4F808163
:10229000282F30E0C901089520914B0230914C0263
:1022A00080914D0290914E022817390719F42FEFB3
:1022B0003FEF13C0E0914D02F0914E02E55FFD4FFC
:1022C000208180914D0290914E0201968F73907003
:1022D00090934E0280934D0230E0C9010895109210
:1022E00052021092510288EE93E0A0E0B0E0809399
:1022F000530290935402A0935502B09356028EE776
:1023000091E09093500280934F0208950F931F9392
:10231000DF93CF930F92CDB7DEB78C0169838091A5
:102320005D01882369F083E0BE016F5F7F4F41E06C
:1023300050E00E9449131816190614F49C0107C0B6
:1023400081E090E0F8019383828320E030E0C901CE
:102350000F90CF91DF911F910F91089583E00E941C
:1023600020130895CF93DF9312C082E00E94AB1236
:102370002FEF8F3F9207C9F0E0914B02F0914C0292
:10238000E55FFD4F8083D0934C02C0934B02C09118
:102390004B02D0914C022196CF73D07080914D02A8
:1023A00090914E02C817D90701F7DF91CF91089598
:1023B000FC0180818E5F808380E86CE371E042E401
:1023C00050E00E94C4120895FC0181819081913AED
:1023D00059F4813209F04CC080E066E571E047E0D5
:1023E00050E00E94C41242C0913209F041C08032D4
:1023F00039F486E591E067E070E00E94081336C08A
:10240000823209F035C0828180935D01809156014E
:1024100090915701A0915801B0915901805B94406F
:10242000A040B04019F580915D0180FD12C087E7A2
:1024300097E790930108809300082BE088E190E0F3
:102440000FB6F894A895809360000FBE20936000AB
:102450000DC088E10FB6F894809360001092600080
:102460000FBEA895109201081092000881E008950F
:1024700080E00895CF93DF930E949D0E85E692E061
:102480000E942B130E948104C0E0D0E00E947004DF
:102490002097E1F30E940000F9CFCF92DF92EF92F4
:1024A000FF920F931F93CF93DF937C016B018A01FF
:1024B000C0E0D0E00FC0D6016D916D01D701ED9164
:1024C000FC910190F081E02DC7010995C80FD91F3B
:1024D000015010400115110571F7CE01DF91CF9128
:1024E0001F910F91FF90EF90DF90CF900895282FCC
:1024F00080915F028823C1F057FF1AC015C0289849
:1025000090935E028091F1008193E217F307B9F78F
:102510004115510539F08091F200882319F48BE6BA
:102520008093E800AFBF02C04FEF5FEFCA0108958C
:10253000AFB7F89427702093E9008091F200282F1C
:1025400030E0241735070CF4A901FB019B01240F8F
:10255000311D94E6DACFDF93CF930F92CDB7DEB77C
:10256000BE016F5F7F4F41E050E00E9477120197FC
:1025700019F02FEF3FEF03C08981282F30E0C90108
:102580000F90CF91DF910895FF920F931F93F82E34
:10259000142F052F4091620250916302212F302F9A
:1025A000C901DC01FB016EEF29C0F7FE02C0949166
:1025B00001C090812091600230916102241735079B
:1025C000ACF48091E8008570E1F38091E80082FF2F
:1025D00003C02FEF3FEF17C09093F100C9010196A0
:1025E0008F739070892B11F46093E8002F5F3F4F39
:1025F0003093610220936002119731961097A9F6EB
:10260000812F902F9C01C9011F910F91FF90089578
:102610009C018091E80082FFFCCFF901260F311D5B
:1026200003C08091F1008193E217F307D1F7289856
:1026300084E680935E028BEF8093E800CB010895DF
:102640008093E9008091F200882319F08AE3809357
:10265000E8000895089510925F0281E08093D7000A
:1026600080EA8093D80082E189BD09B400FEFDCFE5
:1026700061E070E080E090E00E943A0E80E9809393
:10268000D8008CE08093E2001092E000559A209AE6
:1026900008955F926F927F928F929F92AF92BF92B6
:1026A000CF92DF92EF92FF920F931F93CF93DF931E
:1026B000E82E842E752E80915F02882371F18B01A4
:1026C000242F352FC901EC017AEFF72E67E0962E03
:1026D0009E2050E4552E8E2D90E040E2A42EB12C89
:1026E000A822B9223AE3632E20E4C22ED12CC822BC
:1026F000D92258C09FB7F8949092E9008091E800E1
:1027000085FD02C020E004C08091F200252D281B29
:102710009FBF222361F4FA9419F42FEF3FEF4DC0CD
:1027200061E070E080E090E00E943A0E3BC0822FB2
:1027300090E0C817D9070CF42C2FC21BD1094FB752
:10274000F8949092E900A114B10421F406C010920B
:10275000F10021502223D9F719C0E7FC03C0F8018A
:10276000922F10C0C801322F06C0FC010196E491DF
:10277000E093F10031503323C1F706C0819180937B
:10278000F10091509923D1F7020F111D8091E800BB
:1027900085FF05C0209729F4C114D10411F060927F
:1027A000E8004FBF209709F0A5CF5D9884E680939D
:1027B0005D02282D372DC9019C01C901DF91CF9100
:1027C0001F910F91FF90EF90DF90CF90BF90AF904F
:1027D0009F908F907F906F905F9008951F920F92BF
:1027E0000FB60F9211242F933F934F935F936F93E4
:1027F0007F938F939F93AF93BF93EF93FF938091BA
:10280000E1001092E100982F83FF0FC01092E900C1
:1028100081E08093EB001092EC0082E38093ED0066
:1028200010925F0288E08093F00092FF34C083E052
:102830008093E9008091F200882319F08AE3809365
:10284000E8008FB7F89492E09093E9009091F2003D
:102850008FBF992321F08FE492E00E94B211809102
:102860005D02882351F080915D02815080935D026A
:1028700080915D02882309F45D9A80915E0288232D
:1028800051F080915E02815080935E0280915E02E1
:10289000882309F4289AFF91EF91BF91AF919F91FE
:1028A0008F917F916F915F914F913F912F910F90F9
:1028B0000FBE0F901F9018950F931F93DF93CF9328
:1028C0000F92CDB7DEB719828E010F5F1F4FC8017F
:1028D0000E94D811C8010E943517898190E00F909D
:1028E000CF91DF911F910F9108951F920F920FB614
:1028F0000F921124EF92FF921F932F933F934F93C8
:102900005F936F937F938F939F93AF93BF93EF9357
:10291000FF93DF93CF93CDB7DEB76197DEBFCDBF17
:102920001092E9008091E80083FF0FC1FE0131960B
:102930009E01275F3F4F03C08091F1008193E21712
:10294000F307D1F7289884E680935E0282EF8093A4
:10295000E800998197FF05C08091E80080FFFCCFD7
:1029600003C08EEF8093E800292F30E0C901807604
:102970009070892B09F0C2C08A81882329F41092B3
:10298000F1001092F100D6C0813009F4D3C0833039
:1029900009F4D0C0853049F48091E80080FFFCCF75
:1029A0008B8180688093E300C5C0863009F07CC0CD
:1029B0001C81EF80F8841230C1F51092E90010926A
:1029C00061021092600210926302109262020E94F1
:1029D0005C1499E0FE013996DF01292F1D922A959A
:1029E000E9F799871A8791E09E8790E8988B9AEF8C
:1029F000998B2091600230916102275F3F4F3C87A5
:102A00002B878D871092E90010926102109260026C
:102A1000F0926302E092620280E0BF0149E050E080
:102A20000E94C4120E945C1485C01092E9001092AA
:102A3000610210926002F0926302E092620212322E
:102A400041F482E290E00E942D17892B09F476C0B0
:102A500071C0113079F488E0E816F10419F481E0CE
:102A60008093640280916402882309F06BC0ECEBD0
:102A7000F1E013C0133009F061C08B81882319F491
:102A8000EEE7F1E00AC0823019F4E2E8F1E005C0B7
:102A9000813009F053C0E4EAF1E0449180E8BF01DD
:102AA00050E00E94C41246C0873009F447C0883005
:102AB00021F481E08093F1003DC08930D9F5237085
:102AC0003070232BD9F5E1EEF1E091E031E026E31F
:102AD0009093E9003093EB0084918093EC00209375
:102AE000ED009F5F3196953099F78EE78093EA006D
:102AF0001092EA008B8180935F021CC08F819885C1
:102B00001092E900109261021092600290936302A9
:102B1000809362028D81882329F4CE0101960E9460
:102B2000E41106C0823051F4CE0101960E94FE15D8
:102B3000882321F08EEF8093E80007C081E2809324
:102B4000EB0003C0EEECF1E0A8CF6196DEBFCDBF95
:102B5000CF91DF91FF91EF91BF91AF919F918F91B5
:102B60007F916F915F914F913F912F911F91FF90B6
:102B7000EF900F900FBE0F901F901895EF92FF925D
:102B80000F931F937B018C016115710581059105E0
:102B900029F420E030E040E050E00BC00E94F40156
:102BA000A80197010E94151AAC01CB01DA019C0122
:102BB000AD01B901CA011F910F91FF90EF900895E7
:102BC000EF92FF920F931F937B018C0162177307A3
:102BD0008407950764F4261B370B480B590BCA0171
:102BE000B9010E94BE15E60EF71E081F191FB70196
:102BF000C8011F910F91FF90EF900895FC01918102
:102C00008081813A31F4913089F080E0933089F409
:102C10000DC0813269F49B3021F4828180935E0182
:102C200005C09A3029F4828180935F0181E0089584
:102C300080E00895EF92FF920F931F938C01E62E90
:102C4000DC01ED91FC910480F581E02D0995F82ED1
:102C5000D801ED91FC910680F781E02DC8016E2D21
:102C600009958F2D90E01F910F91FF90EF9008959F
:102C70001092660210926A021092690280E991E055
:102C800090936802809367020895EF92FF920F93EA
:102C90001F93DF93CF930F92CDB7DEB789838B015C
:102CA0007A0184E0BE016F5F7F4F41E050E00E94F7
:102CB000491384E4B801A7010E9449130F90CF91F2
:102CC000DF911F910F91FF90EF90089582E048E00F
:102CD00050E00E9445160895FC0116821782108666
:102CE00011861286138614823496BF010E946616DE
:102CF0000895DC01683810F0685829C0E62FF0E02C
:102D000067FF13C0E058F04081E090E002C0880FF8
:102D1000991FEA95E2F7809514962C911497282331
:102D200014962C93149760E012C0ED59FD4F6491F6
:102D3000662319F420E030E01DC067FF08C0149638
:102D40008C9114978D7F14968C9314976F77FD0157
:102D500090E0662321F08681861709F416829F5F32
:102D600031969630B1F7CD011496BD010E946616DA
:102D700021E030E0C9010895CF93DF93DC0168388A
:102D800010F0685825C0E62FF0E067FF12C0E05849
:102D9000F04081E090E002C0880F991FEA95E2F7C9
:102DA00014962C911497282B14962C93149760E06A
:102DB0000FC0ED59FD4F64916623D9F167FF08C03C
:102DC00014968C911497826014968C9314976F7755
:102DD00016968C9116978617A9F117968C911797CE
:102DE000861781F118968C911897861759F11996C4
:102DF0008C911997861731F11A968C911A9786172C
:102E000009F11B968C911B978617E1F0ED01E0E02C
:102E1000F0E09E2F8E81882321F4EA0FFB1F66834A
:102E200006C09F5F31962196E630F10591F7963006
:102E300049F481E090E013969C938E93129720E0E2
:102E400030E007C0CD011496BD010E94661621E056
:102E500030E0C901DF91CF91089580E865EE71E01F
:102E600045E650E00E94C4120895FC0180818F5F06
:102E7000808380E86AE472E049E150E00E94C41275
:102E800008955058BB27AA270ED075C166D130F0DF
:102E90006BD120F031F49F3F11F41EF45BC10EF4AE
:102EA000E095E7FB51C1E92F77D180F3BA176207AC
:102EB00073078407950718F071F49EF58FC10EF41F
:102EC000E0950B2EBA2FA02D0B01B90190010C013A
:102ED000CA01A0011124FF27591B99F0593F50F452
:102EE000503E68F11A16F040A22F232F342F4427AA
:102EF000585FF3CF469537952795A795F0405395A2
:102F0000C9F77EF41F16BA0B620B730B840BBAF071
:102F10009150A1F0FF0FBB1F661F771F881FC2F7DC
:102F20000EC0BA0F621F731F841F48F487957795F0
:102F30006795B795F7959E3F08F0B3CF9395880FA7
:102F400008F09927EE0F979587950895D9D008F442
:102F500081E008950CD00FC107D140F0FED030F0D1
:102F600021F45F3F19F0F0C0511139C1F3C014D101
:102F700098F39923C9F35523B1F3951B550BBB2740
:102F8000AA2762177307840738F09F5F5F4F220FED
:102F9000331F441FAA1FA9F333D00E2E3AF0E0E8E6
:102FA00030D091505040E695001CCAF729D0FE2F32
:102FB00027D0660F771F881FBB1F261737074807C4
:102FC000AB07B0E809F0BB0B802DBF01FF2793587A
:102FD0005F4F2AF09E3F510568F0B6C000C15F3FC9
:102FE000ECF3983EDCF3869577956795B795F79562
:102FF0009F5FC9F7880F911D9695879597F908955A
:10300000E1E0660F771F881FBB1F621773078407F5
:10301000BA0720F0621B730B840BBA0BEE1F88F704
:10302000E095089504D06894B111D9C00895BCD03A
:1030300088F09F5790F0B92F9927B751A0F0D1F0A1
:10304000660F771F881F991F1AF0BA95C9F712C02B
:10305000B13081F0C3D0B1E00895C0C0672F782FA0
:103060008827B85F39F0B93FCCF386957795679597
:10307000B395D9F73EF490958095709561957F4F03
:103080008F4F9F4F0895E89409C097FB3EF49095A9
:103090008095709561957F4F8F4F9F4F9923A9F031
:1030A000F92F96E9BB279395F695879577956795C0
:1030B000B795F111F8CFFAF4BB0F11F460FF1BC004
:1030C0006F5F7F4F8F4F9F4F16C0882311F096E997
:1030D00011C0772321F09EE8872F762F05C0662345
:1030E00071F096E8862F70E060E02AF09A95660FFE
:1030F000771F881FDAF7880F9695879597F90895B7
:10310000990F0008550FAA0BE0E8FEEF16161706F8
:10311000E807F907C0F012161306E407F50798F060
:10312000621B730B840B950B39F40A2661F0232B79
:10313000242B252B21F408950A2609F4A140A695F5
:103140008FEF811D811D089597F99F6780E870E0DA
:1031500060E008959FEF80EC089500240A9416160D
:10316000170618060906089500240A941216130675
:10317000140605060895092E0394000C11F4882303
:1031800052F0BB0F40F4BF2B11F460FF04C06F5F1F
:103190007F4F8F4F9F4F089557FD9058440F551FF5
:1031A00059F05F3F71F04795880F97FB991F61F0C9
:1031B0009F3F79F087950895121613061406551F40
:1031C000F2CF4695F1DF08C0161617061806991FAC
:1031D000F1CF86957105610508940895E894BB27A1
:1031E00066277727CB0197F908958ADF08F48FEFD8
:1031F00008950BD0C0CFB1DF28F0B6DF18F09523CB
:1032000009F0A2CFA7CF1124EACFC6DFA0F3959F84
:10321000D1F3950F50E0551F629FF001729FBB27BD
:10322000F00DB11D639FAA27F00DB11DAA1F649F69
:103230006627B00DA11D661F829F2227B00DA11D1C
:10324000621F739FB00DA11D621F839FA00D611DA2
:10325000221F749F3327A00D611D231F849F600DC3
:10326000211D822F762F6A2F11249F5750408AF0FC
:10327000E1F088234AF0EE0FFF1FBB1F661F771F88
:10328000881F91505040A9F79E3F510570F05CCFC8
:10329000A6CF5F3FECF3983EDCF386957795679574
:1032A000B795F795E7959F5FC1F7FE2B880F911DA6
:1032B0009695879597F9089511F40EF44BCF4AC06F
:1032C00073DFD0F39923D9F3CEF39F57550B87FFC4
:1032D00051D056959795B0E020F4660F771F881F60
:1032E000BB1F1F930F9300249001A0018001F001E8
:1032F000A0E80E0F1F1F0A1E511D601B710B8009D5
:10330000B50B48F4600F711F801DB51F0E1B1F0BFE
:103310000A0A510907C02E0F3F1F4A1F0E0F1F1F19
:103320000A1E511D660F771F881FBB1FA695F795B4
:10333000E795F8F60617170708065B07211D311DEC
:10334000411D0F911F91B901842F9158880F9695B7
:10335000879508959F3F49F0915028F48695779579
:103360006795B7959F5F80389F4F880F9695879593
:1033700097F9089591505040660F771F881FD2F734
:103380000895629FD001739FF001829FE00DF11DAF
:10339000649FE00DF11D929FF00D839FF00D749FCF
:1033A000F00D659FF00D9927729FB00DE11DF91F7B
:1033B000639FB00DE11DF91FBD01CF0111240895D8
:1033C00097FB092E07260AD077FD04D049D006D0F6
:1033D00000201AF4709561957F4F0895F6F7909547
:1033E00081959F4F0895A1E21A2EAA1BBB1BFD01D8
:1033F0000DC0AA1FBB1FEE1FFF1FA217B307E407D4
:10340000F50720F0A21BB30BE40BF50B661F771F2B
:10341000881F991F1A9469F760957095809590950B
:103420009B01AC01BD01CF01089597FB092E052634
:103430000ED057FD04D0D7DF0AD0001C38F45095C9
:103440004095309521953F4F4F4F5F4F0895F6F7C8
:1034500090958095709561957F4F8F4F9F4F089500
:10346000AA1BBB1B51E107C0AA1FBB1FA617B707AA
:1034700010F0A61BB70B881F991F5A95A9F78095C6
:103480009095BC01CD010895EE0FFF1F0590F491BA
:10349000E02D09942F923F924F925F926F927F920C
:1034A0008F929F92AF92BF92CF92DF92EF92FF9254
:1034B0000F931F93CF93DF93CDB7DEB7CA1BDB0B00
:1034C0000FB6F894DEBF0FBECDBF09942A883988A5
:1034D00048885F846E847D848C849B84AA84B984AC
:1034E000C884DF80EE80FD800C811B81AA81B981B8
:1034F000CE0FD11D0FB6F894DEBF0FBECDBFED01CC
:10350000089512E0CCEED2E004C0FE010E94461AFB
:0C3510002296CE3ED107C9F7F894FFCFF9
:10351C000100000031323331303132333130333449
:10352C003530333435303030353635343330313066
:10353C00303536353433303130303330353130305E
:10354C00303330353100FFFF4F00FFFF0B1A0D1DDC
:10355C001C1B01000E0F1213141516170607050479
:10356C0080007702000000E1000000000000010173
:10357C0000000000110B6F0A280B27086D085F0B69
:10358C008508C508FA083A099E0900000000861152
:10359C004D1225114C113311AE11B2110000000067
:0A35AC001A164D12BC1679166C16A3
:00000001FF
