:100000000C9477010C949F010C949F010C949F0118
:100010000C949F010C949F010C949F010C949F01E0
:100020000C949F010C949F010C9490120C94BD139E
:100030000C949F010C949F010C949F010C949F01C0
:100040000C949F010C949F010C949F010C949F01B0
:100050000C949F010C949F010C949F010C944D0DE6
:100060000C949F010C949F010C949F010C949F0190
:100070000C949F010C949F010C949F010C949F0180
:100080000C949F010C949F010C949F010C949F0170
:100090000C949F010C949F010C949F010C949F0160
:1000A0000C949F010C949F010C949F010000000090
:1000B000240027002A002D00300000000000250049
:1000C00028002B002E003100000000002300260035
:1000D00029002C002F000404040404030405020278
:1000E00002020403020202020606060606060404D1
:1000F00002020204040802011040804010204080E7
:10010000408008020401804020100201108010206D
:1001100040400000000200080E0000030401000B34
:1001200000000000000000000000000000000000CF
:10013000070605040100080A0B0C0D09080B000254
:10014000020201000904000001020200000524006F
:100150001001052401010104240206052406000102
:100160000705810310004009040100020A00000095
:100170000705020240000007058302400000040357
:1001800009042203410072006400750069006E00DA
:100190006F0020004C0065006F006E00610072006F
:1001A00064006F001803410072006400750069006C
:1001B0006E006F0020004C004C0043001201000252
:1001C00000000040412336800001010200011201BD
:1001D00000020200004041233680000101020001BC
:1001E00000C18081C105010902A1010901A10085A9
:1001F00001050919012903150025019503750181E0
:100200000295017505810305010930093109381589
:1002100081257F750895038106C0C005010906A1E7
:10022000018502050719E029E715002501750195EB
:10023000088102950175088103950675081500254A
:10024000650507190029658100C009040200010342
:100250000000000921010100012265000705840357
:1002600040000100000000000000002A2B280000D0
:10027000000000000000000000000000000000007E
:100280000000002C9EB4A0A1A2A434A6A7A5AE365F
:100290002D3738271E1F20212223242526B333B6CD
:1002A0002EB7B89F8485868788898A8B8C8D8E8FA0
:1002B000909192939495969798999A9B9C9D2F31A3
:1002C00030A3AD350405060708090A0B0C0D0E0F07
:1002D000101112131415161718191A1B1C1DAFB183
:1002E000B0B500004C02C310DC1280154502112489
:1002F0001FBECFEFDAE0DEBFCDBF11E0A0E0B1E07E
:10030000ECEAF3E302C005900D92A839B107D9F7E2
:1003100012E0A8E9B1E001C01D92AD32B107E1F7EA
:1003200012E0CCEED2E004C02297FE010E948E19AA
:10033000C43ED107C9F70E9495110C94C9190C94B9
:100340000000A0E0B0E0E7EAF1E00C949A19EC01BB
:10035000A880B980CA80DB80A114B104C104D10493
:1003600041F484E2A82E89EDB82E8BE5C82E87E0F3
:10037000D82EC601B5012DE133EF41E050E00E94D7
:100380005D1927EA31E440E050E00E9409197B0141
:100390008C01C601B5012DE133EF41E050E00E9430
:1003A0005D19CA01B9012CEE34EF4FEF5FEF0E94E7
:1003B00009196E0D7F1D801F911F97FF04C06150AA
:1003C000704080409048688379838A839B839B0137
:1003D000AC015F77B901CA01CDB7DEB7EAE00C9492
:1003E000B6190E94A101089580E091E00E94A10148
:1003F000089560930001709301018093020190932E
:1004000003010895CF92EF920F938130910581F50A
:100410006F5F7F4FB1F520913C01209398011092BE
:10042000990140913D0140939A0110929B01809166
:10043000470180939C0110929D018EE991E061E05B
:1004400004E035E0E32ECC24C3940E941A0A82EE25
:1004500091E063E00E94A90586EE91E066E041E04C
:100460000E94260583EF91E069E00E947D0409C0A7
:10047000892B39F46F5F7F4F21F486EE91E00E9463
:1004800011050F91EF90CF90089580E090E06FEF0D
:100490007FEF0E940202089581E090E06FEF7FEF0E
:1004A0000E9402020895CF92DF92EF92FF920F9383
:1004B0001F93CF93DF937C01C62ED42E122FEC0115
:1004C00009C086EE91E06C2F40E020E000E00E9441
:1004D000B7042196CF30D105A4F386EE91E00E94B7
:1004E000E204C0E0D0E009C086EE91E06C2F4C2D14
:1004F0002D2D012F0E94B7042196CE15DF05A4F300
:1005000086EE91E00E94E204DF91CF911F910F915E
:10051000FF90EF90DF90CF9008950F931F9303EF1C
:1005200011E0C80163E770E00E94420467E370E0F5
:1005300080E090E00E94BB0DC8010E9478041F91EA
:100540000F9108950F931F932091F8013091F901B5
:10055000C90101970F9708F04CC080913801909124
:100560003901289FA001299F500D389F500D11245B
:10057000662757FD6095762F8EE991E00E9431073E
:100580008EE991E00E94EF0B8823D1F761E070E0E3
:1005900080E090E022E330E040E050E00E94281547
:1005A000062F61E070E080E090E022E330E040E080
:1005B00050E00E942815162F61E070E080E090E086
:1005C00022E330E040E050E00E942815262F809181
:1005D000F8019091F901602F412F0E945302809100
:1005E000F8019091F9019093FB018093FA010E9428
:1005F0008D021F910F91089582EE91E00E949A055D
:1006000061157105B9F066347105A4F4CB016AE097
:1006100070E00E942819675F7F4F7093F901609323
:10062000F8018091FA019091FB016817790711F0A8
:100630000E94A2020895CF93DF93C4E0D1E018C0D6
:10064000992787FD9095909581959F4F805C9F4F4E
:100650009093F9018093F801409739F468EC70E0C9
:1006600080E090E00E94BB0D02C00E94A202219691
:100670008881882329F7DF91CF9108958EE991E051
:1006800040E050E06AEF73E40E9452078EE991E087
:1006900040E050E66AE676E40E941D0B8EE991E0A8
:1006A00040E050E060E070E00E94B2058EE991E029
:1006B0000E94EF0B80919C0162E00E94190F64EF91
:1006C00071E080E090E00E94BB0D8EE991E040EF88
:1006D00058ED6FEF7FEF0E9431078EE991E00E94A5
:1006E000EF0B882331F080919C010E94D90F892B58
:1006F00069F564E670E080E090E00E94BB0D8EE951
:1007000091E00E94EF0B882331F080919C010E94C0
:10071000D90F892BD9F460ED77E080E090E00E945A
:10072000BB0D8EE991E040E050E060E070E00E9497
:10073000B2058EE991E00E94EF0B8EE991E048E26C
:1007400050E060E070E00E94310709C08EE991E05E
:100750000E94EF0BC2CF8EE991E00E94EF0B8EE971
:1007600091E00E94AC05683271058105910599F709
:100770008EE991E00E9495098EE991E040E050E415
:100780006CE176E40E9452078EE991E040E050E48B
:100790006CE176E40E941D0B8EE991E040E550E0AB
:1007A00060E070E00E94B2058EE991E00E94EF0BDC
:1007B000089585E092E00E941E11892B01F185E0E9
:1007C00092E00E94FD10282F8D3421F481E0809367
:1007D000F70108958E3419F41092F70108958150AD
:1007E0008F3068F4332727FD309580E190E0821B3D
:1007F000930B9093F9018093F8010E94A20208954F
:100800008091F701882311F00E94FC020E94D90315
:1008100062E370E080E090E00E94BB0D08950F93CA
:100820001F9385E092E040E052EC61E070E00E94AE
:10083000A51006EE11E0C8016FE00E9412058FE0DE
:1008400090E060E040E020E00E945302C8010E9476
:10085000E2040E943E0381E090E064E640E020E094
:100860000E945302C8010E94E2040E948D0268E8BF
:1008700073E180E090E00E94BB0D0E941B031F917A
:100880000F910895EF92FF920F931F93CF93DF93F1
:10089000F82EE92EEB016F3F710519F014F0CFEF40
:1008A000D0E08E018FEFC130D8071CF401E01FEFBC
:1008B0000BC0D7FD09C08F2D9E2D61E00E94A404BE
:1008C0008F2D9E2DBE010BC08F2D9E2D60E00E94AE
:1008D000A40466277727601B710B8F2D9E2D0E9425
:1008E0009F04DF91CF911F910F91FF90EF9008959A
:1008F00060E070E00E94420408950E948004089520
:10090000DC01E62FF0E0EE0FFF1FE65CFE4F80817A
:100910008C93818111968C93119712966C9391E030
:10092000909380008BE0809381009093900080935F
:10093000910087E08093C1001092C3000895FC01EC
:1009400080810E94740E0895FF920F931F938C0173
:10095000F62EFC01818161E00E94190FF80181816E
:100960006F2D0E94A60F1F910F91FF9008950F9376
:10097000DC01522F262F30E014968D919C91159713
:100980002817390710F080E01BC083E0689F802D96
:10099000112490E01696ED91FC911797E80FF91F3E
:1009A00050831696ED91FC911797E80FF91F41833C
:1009B0001696ED91FC911797E80FF91F028381E0DD
:1009C0000F910895CF93DF93FC01C681D781848175
:1009D00095819C01220F331F280F391F9485A08514
:1009E000B1855FB7F8948C91492F40954823982B97
:1009F00011C0899168E09C9300C087FF4C93880FD9
:100A000000C000C000C008F44C9300C06A9599F77C
:100A1000215030402115310561F75FBFDF91CF9143
:100A2000089508950F931F938C0170E0FC01758366
:100A30006483CB01880F991F860F971F0E94180CA3
:100A4000F801868397831F910F9108951F93CF9389
:100A5000DF93EC01142F0E9480041130E1F48881AF
:100A6000282F30E0F901EC50FF4FE491EC872A5237
:100A70003F4FF901249130E0220F331FF901E65472
:100A8000FF4F4591549159874887F901E455FF4F2D
:100A9000259134911BC08981282F30E0F901EC5059
:100AA000FF4FE491EC872A523F4FF901249130E047
:100AB000220F331FF901E654FF4F45915491598796
:100AC0004887F901E455FF4F259134913B872A87E8
:100AD00061E00E94190FCE0164E00E941205DF91CF
:100AE000CF911F9108950F931F938C0160E00E9496
:100AF000A40482E090E00E94140EC80161E00E940C
:100B0000A4048AE090E00E94140EC80160E00E94F4
:100B1000A404F801818160E00E94190FF80181812D
:100B200061E020E432E44FE050E00E9409101F91A0
:100B30000F9108950E9473052DE130E040E050E0F0
:100B40000E945D195595479537952795B901CA01BA
:100B500008950E9480040895FC016385748585854D
:100B600096850895FC014387548765877687478774
:100B7000508B618B728B13AA14AA15AA16AA13A202
:100B800014A215A216A208956F927F928F929F923F
:100B9000AF92BF92CF92DF92EF92FF920F931F938B
:100BA000CF93DF93EC01AF84B888C988DA888B854E
:100BB0009C85AD85BE85A81AB90ACA0ADB0A2B89AD
:100BC0003C894D895E89CA01B9010E9441187B01A7
:100BD0008C012B8D3C8D4D8D5E8DCA01B9010E941B
:100BE0008A169B01AC01C801B7010E94F2160E944F
:100BF0005A179B01AC01A114B104C104D104B9F48A
:100C000062307105810591050CF085C01BA21CA204
:100C10001DA21EA280E090E0A0E0B0E08B8B9C8B38
:100C2000AD8BBE8B1BAA1CAA1DAA1EAA0BC1EBA8CA
:100C3000FCA80DA91EA91A141B041C041D0444F5CC
:100C40001E141F041006110674F46A157B058C052A
:100C50009D05B4F5CD5BDF4F8881C354D040882318
:100C600009F059C02DC0E114F1040105110509F482
:100C700052C06A157B058C059D050CF04CC0CD5B00
:100C8000DF4F8881C354D040813009F044C038C060
:100C90001E141F0410061106DCF488279927DC01B6
:100CA0008A199B09AC09BD09281739074A075B0750
:100CB0003CF4CD5BDF4F8881C354D040813059F57F
:100CC00088279927DC01821B930BA40BB50B1FC04F
:100CD000E114F10401051105F1F088279927DC01E1
:100CE0008A199B09AC09BD09281739074A075B0710
:100CF00094F4CD5BDF4F8881C354D040882359F4EE
:100D000088279927DC018E199F09A00BB10B8BABAB
:100D10009CABADABBEAB6BA87CA88DA89EA86114A4
:100D2000710481049104A9F48FA998ADA9ADBAAD5D
:100D30008BAF9CAFADAFBEAFFE01ED5BFF4F10823E
:100D40001A141B041C041D040CF049C081E08083AC
:100D500046C0ABACBCACCDACDEACC601B50120E04E
:100D600030E040E050EC0E9441187B018C01C4014E
:100D7000B3010E948D1720E030E040E850E40E946B
:100D8000411820E030E040E85FE30E948A169B01B2
:100D9000AC01C801B7010E94F2169B01AC01C6016B
:100DA000B5010E948A167B018C016BAF7CAF8DAFC1
:100DB0009EAFEF96A880B980CA80DB80EF9795013F
:100DC000A6010E943D18181624F4D801C701570146
:100DD0006D01C501D6018BAF9CAFADAFBEAF8BA986
:100DE0009CA9ADA9BEA90196A11DB11D8BAB9CAB61
:100DF000ADABBEAB6BAD7CAD8DAD9EAD0E945F1754
:100E00006BA37CA38DA39EA360E074E284E799E4C6
:100E10002BAD3CAD4DAD5EAD0E94F2169B01AC0119
:100E20006B8B7C8B8D8B9E8BCD5BDF4F8881C3540E
:100E3000D040882339F4DA01C901B0588B8B9C8BE0
:100E4000AD8BBE8BDF91CF911F910F91FF90EF90F3
:100E5000DF90CF90BF90AF909F908F907F906F90DA
:100E60000895FC0187859089A189B2898417950727
:100E7000A607B70739F04787508B618B728BCF017C
:100E80000E94C4050895FC01DB01CA014385548515
:100E900065857685480F591F6A1F7B1FCF010E9409
:100EA00031070895EF92FF920F931F93CF93DF9333
:100EB000EC017A018B016F89788D898D9A8DA8015B
:100EC00097010E94EE168823E1F1EF8AF88E098FD0
:100ED0001A8FEF9660E074E284E799E4A801970125
:100EE0000E94F216688379838A839B83EF978BA98C
:100EF0009CA9ADA9BEA9181619061A061B060CF561
:100F00002B893C894D895E89CA01B9010E9441182B
:100F10007B018C012B8D3C8D4D8D5E8DCA01B901FD
:100F20000E948A169B01AC01C801B7010E94F2160B
:100F30000E945A176BAB7CAB8DAB9EABCE010E946F
:100F4000C405DF91CF911F910F91FF90EF9008950D
:100F5000DC0112968C911297833001F1843040F4B9
:100F6000813089F0ED91FC911197823098F407C09F
:100F7000863011F1883049F1843079F516C000844B
:100F8000F185E02D1FC0ED91FC9111970284F3854E
:100F9000E02D18C00484F585E02D14C0ED91FC917E
:100FA00011970684F785E02D0DC0ED91FC91119706
:100FB0000088F189E02D06C0ED91FC91119702881F
:100FC000F389E02DCD0109950895ED91FC911197DC
:100FD0000488F589E02DCD0109950895CF93DF931D
:100FE000EC016B897C898D899E8920E030E040E0AE
:100FF00050E00E943D1818161CF4EFA5F8A902C095
:10100000E9A9FAA90995DF91CF910895DC01437010
:101010005070607070704130510561057105F1F0DC
:10102000423051056105710534F4411551056105E2
:10103000710561F008954230510561057105B1F007
:10104000433051056105710501F518C0ED91FC9122
:1010500011970480F581E02D62E00EC0ED91FC91C6
:1010600011970480F581E02D63E006C0ED91FC91BD
:101070000480F581E02D61E009950895ED91FC91E2
:101080000480F581E02D60E009950895CF93DF930A
:10109000EC01CB01BA0123E030E040E050E00E94D7
:1010A0005D19613071058105910591F0623071051E
:1010B00081059105A9F06115710581059105C1F4BE
:1010C000E881F9810480F581E02DCE0164E00FC054
:1010D000E881F9810480F581E02DCE0161E007C04F
:1010E000E881F9810480F581E02DCE0162E0099567
:1010F000DF91CF910895DC01437050706070707083
:101100004130510561057105F1F04230510561052D
:10111000710534F4411551056105710561F00895BB
:101120004230510561057105B1F04330510561054B
:10113000710501F518C0ED91FC9111970480F581BE
:10114000E02D65E00EC0ED91FC9111970480F581D2
:10115000E02D66E006C0ED91FC910480F581E02D64
:101160006AE009950895ED91FC910480F581E02DE8
:1011700069E009950895CF93DF93EC01CB01BA01A3
:1011800026E030E040E050E00E945D1962307105D9
:101190008105910589F1633071058105910564F43C
:1011A0006115710581059105B9F061307105810501
:1011B000910509F041C018C06430710581059105A1
:1011C00059F16430710581059105F4F065307105C0
:1011D0008105910589F528C0E881F9810480F581B0
:1011E000E02DCE0164E027C0E881F9810480F5811B
:1011F000E02DCE0165E01FC0E881F9810480F58112
:10120000E02DCE0161E017C0E881F9810480F5810D
:10121000E02DCE0163E00FC0E881F9810480F58103
:10122000E02DCE0162E007C0E881F9810480F581FC
:10123000E02DCE0166E00995DF91CF910895DC01A4
:1012400047705070607070704330510561057105D2
:1012500009F443C0443051056105710584F44130FF
:1012600051056105710549F142305105610571056E
:1012700064F54115510561057105B9F008954530D2
:10128000510561057105C9F14530510561057105CB
:1012900064F14630510561057105B9F147305105DA
:1012A0006105710509F040C038C0ED91FC911197BE
:1012B0000480F581E02D61E02EC0ED91FC91119745
:1012C0000480F581E02D65E026C0ED91FC91119739
:1012D0000480F581E02D64E01EC0ED91FC91119732
:1012E0000480F581E02D66E016C0ED91FC91119728
:1012F0000480F581E02D62E00EC0ED91FC91119724
:101300000480F581E02D6AE006C0ED91FC91048037
:10131000F581E02D68E009950895ED91FC91048038
:10132000F581E02D69E009950895AF92BF92CF92C3
:10133000DF92EF92FF920F931F93CF93DF93EC0115
:10134000AB88BC88CD88DE88C601B50120E030E0DE
:1013500040E050E00E94EE168823B9F1C601B501C5
:10136000A60195010E9441187B018C012B8D3C8DBB
:101370004D8D5E8DCA01B9010E948A169B01AC0198
:10138000C801B7010E94F2160E945A177B018C0116
:101390000894E11CF11C011D111DC601B50120E0DE
:1013A00030E040E050E00E943D18181624F4CE01D1
:1013B000B801A70108C044275527BA014E195F0993
:1013C000600B710BCE010E944307DF91CF911F91FB
:1013D0000F91FF90EF90DF90CF90BF90AF90089566
:1013E000CF93DF93EC018A81882309F18B8161E03F
:1013F0000E94190F8C8161E00E94190F8A8184304C
:1014000011F0883041F48D8161E00E94190F8E81C6
:1014100061E00E94190F8EA58F3F49F061E00E94A4
:10142000190F6DA581E068278EA50E94A60FDF9198
:10143000CF9108954F925F926F927F928F929F9279
:10144000AF92BF92CF92EF920F93FC0184E691E0AE
:101450009183808362831386148615861686178689
:10146000108A118A128A0F2EF0E04F2EF0E05F2EC4
:10147000F0E06F2EF0E07F2EF02D438A548A658ACB
:10148000768A0F2EF0E08F2EF0E09F2EF0E8AF2E40
:10149000FFE3BF2EF02D878A908EA18EB28E838EB1
:1014A000948EA58EB68E878E90A2A1A2B2A213A210
:1014B00014A215A216A281E090E094A783A78FEF53
:1014C00086A717A210A611A612A64383248305831C
:1014D000E68213AA14AA15AA16AA47AA50AE61AEAC
:1014E00072AE43AE54AE65AE76AEFF9681929192E7
:1014F000A192B1921082E354F040178210861186B7
:101500001286CC2019F0CF010E94F0090F91EF90C4
:10151000CF90BF90AF909F908F907F906F905F9093
:101520004F900895CF93DF93EC018A81882371F067
:10153000E881F9810480F581E02DCE0160E0099514
:101540008EA58F3F19F06DA50E94A60FDF91CF9158
:101550000895CF92DF92EF92FF920F931F93CF9354
:10156000DF93FC012281243029F0283019F092E029
:10157000D92E02C084E0D82E8F01C0E0D0E0E62E44
:10158000FF24CC24C394F8012381C7010C2E02C090
:10159000959587950A94E2F7678180FD6C25822FE7
:1015A0000E94A60F21960F5F1F4FCD1560F3DF91AC
:1015B000CF911F910F91FF90EF90DF90CF90089502
:1015C000CF93DF93EC01E881F9810480F581E02D70
:1015D000CD5BDF4F8881C354D040882311F460E095
:1015E00001C062E0CE010995E881F9810480F581AE
:1015F000E02DCD5BDF4F8881C354D040882311F4A8
:1016000061E001C063E0CE0109958BA59CA50E9415
:10161000140EE881F9810480F581E02DCD5BDF4F68
:101620008881C354D040882311F460E001C062E097
:10163000CE010995DF91CF9108956F927F928F929D
:101640009F92AF92BF92CF92DF92EF92FF920F9351
:101650001F93CF93DF93EC013A014B01CB01BA0109
:1016600020E030E040E050E00E94EE16882309F4CC
:1016700041C0AB8CBC8CCD8CDE8CC601B501A40105
:1016800093010E94EE168823A9F16BA97CA98DA96C
:101690009EA90E948D177B018C01C601B501A40192
:1016A00093010E94F2169B01AC01C801B7010E9490
:1016B00041180E945A176BAB7CAB8DAB9EAB60E0C0
:1016C00070E080E090E4A40193010E94F2160E9471
:1016D000A81820E034E244E759E40E9441186FABB7
:1016E00078AF89AF9AAF6B8E7C8E8D8E9E8ECE0139
:1016F0000E94C405DF91CF911F910F91FF90EF9051
:10170000DF90CF90BF90AF909F908F907F906F9021
:101710000895EF92FF920F931F93CF93DF93EC0105
:101720008BA19CA1ADA1BEA10097A105B10509F4B3
:101730004EC00E94950D7B018C012FA138A549A5B3
:101740005AA58BA19CA1ADA1BEA1820F931FA41F7E
:10175000B51F82179307A407B50730F0E816F906FE
:101760000A071B0758F405C0E816F9060A071B0705
:1017700070F1E216F3060407150748F5CD5BDF4F5D
:101780008881C354D0402B853C854D855E85813052
:1017900029F42F5F3F4F4F4F5F4F04C0215030401F
:1017A000404050402B873C874D875E87E881F98118
:1017B0004B855C856D857E850680F781E02DCE01A9
:1017C0000995EFA2F8A609A71AA781E001C080E059
:1017D000DF91CF911F910F91FF90EF900895CF93DC
:1017E000DF93EC010E94890B882319F0CE010E943F
:1017F000C4056B897C898D899E8920E030E040E0BA
:1018000050E00E94EE16882371F460E02F8538893D
:1018100049895A898B859C85AD85BE8528173907EE
:101820004A075B0709F061E0862FDF91CF910895A9
:101830000F931F93CF93DF93BC018230910510F477
:1018400062E070E0E0912B02F0912C0240E050E069
:10185000A0E0B0E024C08081918186179707D0F086
:101860008617970771F482819381109729F0139658
:101870009C938E9312972CC090932C0280932B02F2
:1018800027C04115510519F08417950718F48D01EB
:10189000AC01EF01DF01828193819C01F901309756
:1018A000D1F641155105F9F0CA01861B970B84301A
:1018B000910580F48A819B810115110521F0F801C1
:1018C0009383828304C090932C0280932B02FE01A9
:1018D000329645C0FE01E80FF91F6193719302979C
:1018E000998388833CC08091290290912A02892B98
:1018F00041F4809152019091530190932A02809378
:10190000290240915401509155014115510541F46E
:101910004DB75EB78091500190915101481B590B12
:101920002091290230912A0224173507B0F4CA0108
:10193000821B930B8617970780F0AB014E5F5F4FBA
:101940008417950750F0420F531F50932A0240937B
:101950002902F9016193719302C0E0E0F0E0CF0148
:10196000DF91CF911F910F910895CF93DF939C0149
:10197000009709F48FC0EC0122971B821A826091B4
:101980002B0270912C026115710581F48881998177
:10199000820F931F2091290230912A0228173907BC
:1019A00039F5D0932A02C093290274C0DB0140E0CC
:1019B00050E0AC17BD0708F1BB83AA83FE0121915B
:1019C0003191E20FF31FAE17BF0779F48D919C910F
:1019D0001197280F391F2E5F3F4F398328831296A6
:1019E0008D919C9113979B838A834115510571F4C6
:1019F000D0932C02C0932B024DC012968D919C91D6
:101A00001397AD01009711F0DC01D3CFDA011396E3
:101A1000DC93CE931297FA0121913191E20FF31FDB
:101A2000CE17DF0769F488819981280F391F2E5F4F
:101A30003F4FFA01318320838A819B819383828384
:101A4000E0E0F0E0DB0112968D919C9113970097F6
:101A500019F0BC01FD01F6CFAB014E5F5F4FDB011A
:101A60008D919C91840F951F2091290230912A021B
:101A70002817390779F4309729F410922C02109224
:101A80002B0202C0138212824250504050932A020D
:101A900040932902DF91CF9108951F920F920FB6C4
:101AA0000F9211242F933F938F939F93AF93BF93E4
:101AB0008091000290910102A0910202B091030274
:101AC000309104020196A11DB11D232F2D5F2D37EA
:101AD00020F02D570196A11DB11D20930402809383
:101AE000000290930102A0930202B093030280913E
:101AF000FC019091FD01A091FE01B091FF010196C2
:101B0000A11DB11D8093FC019093FD01A093FE01E6
:101B1000B093FF01BF91AF919F918F913F912F9112
:101B20000F900FBE0F901F9018959FB7F8942091BB
:101B3000FC013091FD014091FE015091FF0186B5FD
:101B4000A89B06C08F3F21F02F5F3F4F4F4F5F4F45
:101B50009FBF542F432F322F2227280F311D411DA5
:101B6000511D82E0220F331F441F551F8A95D1F764
:101B7000B901CA0108959B01AC017FB7F894809127
:101B8000FC019091FD01A091FE01B091FF0166B5AD
:101B9000A89B05C06F3F19F00196A11DB11D7FBF25
:101BA000BA2FA92F982F8827860F911DA11DB11D2F
:101BB00062E0880F991FAA1FBB1F6A95D1F7BC016D
:101BC0002DC0FFB7F8948091FC019091FD01A09188
:101BD000FE01B091FF01E6B5A89B05C0EF3F19F0EB
:101BE0000196A11DB11DFFBFBA2FA92F982F8827DD
:101BF0008E0F911DA11DB11DE2E0880F991FAA1F34
:101C0000BB1FEA95D1F7861B970B885E9340C8F2FD
:101C1000215030404040504068517C4F21153105E3
:101C20004105510571F60895019739F0880F991F04
:101C3000880F991F02970197F1F70895789484B55A
:101C4000826084BD84B5816084BD85B5826085BDB8
:101C500085B5816085BDEEE6F0E08081816080839E
:101C6000E1E8F0E010828081826080838081816081
:101C70008083E0E8F0E0808181608083E1E9F0E04A
:101C8000808182608083808181608083E0E9F0E0F0
:101C9000808181608083E1ECF0E0808184608083DA
:101CA000808182608083808181608083E3ECF0E0CA
:101CB000808181608083E0ECF0E0808182608083BD
:101CC000E2ECF0E0808181608083EAE7F0E08081EF
:101CD0008460808380818260808380818160808352
:101CE00080818068808308951F93CF93DF93182F9E
:101CF000EB0161E00E94190F209709F48FC0CF3FDC
:101D0000D10509F48EC0E12FF0E0EE5EFE4F849124
:101D1000883009F440C0893070F4823019F1833082
:101D200020F4813009F077C018C0833001F184308D
:101D300009F071C026C08B3009F44BC08C3030F4F0
:101D4000893099F18A3009F066C039C08C3009F4C5
:101D50004DC08E3009F05FC051C084B5806884BD2D
:101D6000C7BD63C084B5806284BDC8BD5EC08091BC
:101D70008000806880938000D0938900C0938800A1
:101D800054C080918000806280938000D0938B004B
:101D9000C0938A004AC08091900080688093900030
:101DA000D0939900C093980040C0809190008062C9
:101DB00080939000D0939B00C0939A0036C080918E
:101DC0009000886080939000D0939D00C0939C0009
:101DD0002CC08091C00080688093C0008091C000BA
:101DE0008F7B8093C000C093CF001FC08091C00044
:101DF00080628093C000C093D00017C08091C20061
:101E000088608093C2008091C2008B7F8093C20063
:101E1000C093D2000AC0C038D1051CF4812F60E005
:101E200002C0812F61E00E94A60FDF91CF911F9128
:101E30000895CF93DF93482F50E0CA018C509F4FF5
:101E4000FC0134914A525F4FFA018491882369F171
:101E500090E0880F991FFC01E455FF4FA591B491C4
:101E6000FC01E654FF4FC591D491662351F42FB77E
:101E7000F8948C91932F909589238C938881892352
:101E80000BC0623061F42FB7F8948C91932F90952A
:101E900089238C938881832B88832FBF06C09FB7AB
:101EA000F8948C91832B8C939FBFDF91CF910895F1
:101EB000883071F1893068F4823031F1833020F458
:101EC000813009F042C01DC0833089F08430E9F5CB
:101ED00012C08B3059F18C3028F48930E9F08A3007
:101EE000A1F51EC08C3031F18E3079F529C080917A
:101EF00080008F7703C0809180008F7D8093800069
:101F0000089584B58F7702C084B58F7D84BD089510
:101F1000809190008F7707C0809190008F7D03C0E3
:101F200080919000877F8093900008958091C000F9
:101F30008F7703C08091C0008F7D8093C00008958B
:101F40008091C200877F8093C2000895FF920F9313
:101F50001F93F62E482F50E0CA018E5E9E4FFC0163
:101F60002491CA018C509F4FFC0114914A525F4F3B
:101F7000FA0104910023C9F0222319F0822F0E9454
:101F8000580FE02FF0E0EE0FFF1FE654FF4FA59132
:101F9000B4919FB7F894FF2021F48C911095812380
:101FA00002C08C91812B8C939FBF1F910F91FF904A
:101FB00008950F931F93482F50E0CA018E5E9E4FE5
:101FC000FC012491CA018C509F4FFC0104914A529C
:101FD0005F4FFA011491112319F420E030E015C08D
:101FE000222319F0822F0E94580F812F90E0880F32
:101FF000991F88539F4FFC01A591B4918C9120E0CB
:1020000030E0802311F021E030E0C9011F910F91F1
:1020100008958F929F92AF92BF92CF92DF92EF92EC
:10202000FF920F931F93CF93DF93A82FB0E0CD01C2
:102030008C509F4FFC018490AA52BF4FFD018491A8
:10204000662311F4992401C0982C6FEFA62E6FEF30
:10205000B62E6FEFC62E6FE0D62EA222B322C42278
:10206000D522682F70E0660F771F68537F4FEE24EC
:10207000FF248701FB01A591B4910BC0EA14FB0476
:102080000C051D0509F44EC00894E11CF11C011D4E
:10209000111D8C918821891589F30CC0EA14FB0469
:1020A0000C051D0509F43EC00894E11CF11C011D3E
:1020B000111D03C0FB01A591B4918C918821891554
:1020C00069F720E030E040E050E0FB01C591D49199
:1020D0000FC0DA01C9018E0D9F1DA01FB11F8A1507
:1020E0009B05AC05BD05F1F02F5F3F4F4F4F5F4F94
:1020F00088818821891569F3CA01B90125E130E099
:1021000040E050E00E9409199B01AC01205F3F4F65
:102110004F4F5F4F84E056954795379527958A95A1
:10212000D1F704C020E030E040E050E0B901CA013E
:10213000DF91CF911F910F91FF90EF90DF90CF90A3
:10214000BF90AF909F908F9008952FEF3FEFFC01CD
:10215000358724870895DF93CF930F92CDB7DEB7ED
:10216000FC016983A081B18112962D913C91139756
:10217000BE016F5F7F4F41E050E0F90109950F907C
:10218000CF91DF910895109208021092070288EE15
:1021900093E0A0E0B0E08093090290930A02A0933C
:1021A0000B02B0930C028EE791E0909306028093AD
:1021B00005028FEF9FEF9093120280931102089512
:1021C000CF93DF93EC0180915D01882341F083E0A0
:1021D0000E94FB121816190614F49C0106C081E037
:1021E00090E09B838A8320E030E0C901DF91CF91AA
:1021F000089583E00E9486120895FC0124853585A8
:1022000037FD05C08FEF9FEF9587848704C082E07C
:102210000E9411129C01C9010895CF93DF93EC0134
:102220008C859D8597FF05C082E00E9411129D87D5
:102230008C878C859D85DF91CF910895FC018485E5
:10224000958597FD08C082E00E94D411282F30E0C8
:102250002F5F3F4F05C082E00E94D411282F30E04D
:10226000C9010895FC0180818E5F808380E86CE362
:1022700071E042E450E00E942A120895FC0181813D
:102280009081913A59F4813209F04CC080E066E5C2
:1022900071E047E050E00E942A1242C0913209F0FA
:1022A00041C0803239F486E591E067E070E00E9439
:1022B0006E1236C0823209F035C0828180935D0192
:1022C0008091560190915701A0915801B091590108
:1022D000805B9440A040B04019F580915D0180FD85
:1022E00012C087E797E790930108809300082BE0DE
:1022F00088E190E00FB6F894A895809360000FBE37
:10230000209360000DC088E10FB6F89480936000C0
:10231000109260000FBEA89510920108109200085C
:1023200081E0089580E008950895CF93DF930E949F
:102330001E0E0E9494118BE192E00E94DD120E9419
:102340000F04C0E0D0E00E9400042097E1F30E9457
:102350000000F9CFCF92DF92EF92FF920F931F937D
:10236000CF93DF937C016B018A01C0E0D0E00FC006
:10237000D6016D916D01D701ED91FC910190F08135
:10238000E02DC7010995C80FD91F01501040011554
:10239000110571F7CE01DF91CF911F910F91FF9041
:1023A000EF90DF90CF9008959FB7F8948770809357
:1023B000E9008091F2009FBF0895282F80911502B7
:1023C0008823C1F057FF1AC015C0289890931402B3
:1023D0008091F1008193E217F307B9F74115510598
:1023E00039F08091F200882319F48BE68093E8009D
:1023F000AFBF02C04FEF5FEFCA010895AFB7F894C7
:1024000027702093E9008091F200282F30E02417F4
:1024100035070CF4A901FB019B01240F311D94E643
:10242000DACFDF93CF930F92CDB7DEB7BE016F5FE8
:102430007F4F41E050E00E94DD11019719F02FEF2E
:102440003FEF03C08981282F30E0C9010F90CF9161
:10245000DF910895FF920F931F93F82E142F052FED
:102460004091180250911902212F302FC901DC012F
:10247000FB016EEF29C0F7FE02C0949101C090816C
:10248000209116023091170224173507ACF4809181
:10249000E8008570E1F38091E80082FF03C02FEF30
:1024A0003FEF17C09093F100C90101968F739070B0
:1024B000892B11F46093E8002F5F3F4F3093170290
:1024C00020931602119731961097A9F6812F902F1D
:1024D0009C01C9011F910F91FF9008959C0180916B
:1024E000E80082FFFCCFF901260F311D03C0809167
:1024F000F1008193E217F307D1F7289884E68093DF
:1025000014028BEF8093E800CB0108958093E900DB
:102510008091F200882319F08AE38093E8000895FF
:102520001F920F920FB60F9211248F939F93809159
:10253000E1001092E100982F83FF0FC01092E90094
:1025400081E08093EB001092EC0082E38093ED0039
:102550001092150288E08093F00092FF26C083E07D
:102560008093E9008091F200882319F08AE3809338
:10257000E80080911302882351F08091130281506A
:102580008093130280911302882309F45D9A80914D
:102590001402882351F08091140281508093140218
:1025A00080911402882309F4289A9F918F910F90AB
:1025B0000FBE0F901F90189508951092150281E09C
:1025C0008093D70080EA8093D80082E189BD09B466
:1025D00000FEFDCF61E070E080E090E00E94BB0D66
:1025E00080E98093D8008CE08093E2001092E000B4
:1025F000559A209A08955F926F927F928F929F9240
:10260000AF92BF92CF92DF92EF92FF920F931F9300
:10261000CF93DF93E82E842E752E809115028823A8
:1026200071F18B01242F352FC901EC017AEFF72EC0
:1026300067E0962E9E2050E4552E8E2D90E040E2CD
:10264000A42EB12CA822B9223AE3632E20E4C22E94
:10265000D12CC822D9225CC09FB7F8949092E9008F
:102660008091E80085FD02C020E004C08091F20066
:10267000252D281B9FBF222361F4FA9419F42FEF14
:102680003FEF51C061E070E080E090E00E94BB0D40
:102690003FC0822F90E0C817D9070CF42C2F4FB7FA
:1026A000F8949092E9008091E80085FF30C0C21B49
:1026B000D109A114B10421F406C01092F1002150F7
:1026C0002223D9F719C0E7FC03C0F801922F10C0EC
:1026D000C801322F06C0FC010196E491E093F1009D
:1026E00031503323C1F706C081918093F10091509E
:1026F0009923D1F7020F111D8091E80085FF05C0D5
:10270000209729F4C114D10411F06092E8004FBF62
:10271000209709F0A1CF5D9884E680931302282DBD
:10272000372DC9019C01C901DF91CF911F910F91F4
:10273000FF90EF90DF90CF90BF90AF909F908F90E1
:102740007F906F905F9008950F931F93DF93CF93C7
:102750000F92CDB7DEB719828E010F5F1F4FC801F0
:102760000E943211C8010E947D16898190E00F906D
:10277000CF91DF911F910F9108951F920F920FB685
:102780000F921124EF92FF921F932F933F934F9339
:102790005F936F937F938F939F93AF93BF93EF93C9
:1027A000FF93DF93CF93CDB7DEB76197DEBFCDBF89
:1027B0001092E9008091E80083FF0FC1FE0131967D
:1027C0009E01275F3F4F03C08091F1008193E21784
:1027D000F307D1F7289884E68093140282EF809360
:1027E000E800998197FF05C08091E80080FFFCCF49
:1027F00003C08EEF8093E800292F30E0C901807676
:102800009070892B09F0C2C08A81882329F4109224
:10281000F1001092F100D6C0813009F4D3C08330AA
:1028200009F4D0C0853049F48091E80080FFFCCFE6
:102830008B8180688093E300C5C0863009F07CC03E
:102840001C81EF80F8841230C1F51092E9001092DB
:1028500017021092160210921902109218020E948A
:10286000A41399E0FE013996DF01292F1D922A95C4
:10287000E9F799871A8791E09E8790E8988B9AEFFD
:10288000998B2091160230911702275F3F4F3C87AA
:102890002B878D871092E900109217021092160272
:1028A000F0921902E092180280E0BF0149E050E086
:1028B0000E942A120E94A41385C01092E90010926F
:1028C000170210921602F0921902E09218021232C8
:1028D00041F482E290E00E947516892B09F476C0DB
:1028E00071C0113079F488E0E816F10419F481E040
:1028F00080931A0280911A02882309F06BC0ECEBD6
:10290000F1E013C0133009F061C08B81882319F402
:10291000EEE7F1E00AC0823019F4E2E8F1E005C028
:10292000813009F053C0E4EAF1E0449180E8BF014E
:1029300050E00E942A1246C0873009F447C0883010
:1029400021F481E08093F1003DC08930D9F52370F6
:102950003070232BD9F5E1EEF1E091E031E026E390
:102960009093E9003093EB0084918093EC002093E6
:10297000ED009F5F3196953099F78EE78093EA00DE
:102980001092EA008B81809315021CC08F8198857C
:102990001092E900109217021092160290931902F9
:1029A000809318028D81882329F4CE0101960E941C
:1029B0003E1106C0823051F4CE0101960E944615A8
:1029C000882321F08EEF8093E80007C081E2809396
:1029D000EB0003C0EEECF1E0A8CF6196DEBFCDBF07
:1029E000CF91DF91FF91EF91BF91AF919F918F9127
:1029F0007F916F915F914F913F912F911F91FF9028
:102A0000EF900F900FBE0F901F901895EF92FF92CE
:102A10000F931F937B018C01611571058105910551
:102A200029F420E030E040E050E00BC00E94F401C7
:102A3000A80197010E945D19AC01CB01DA019C014C
:102A4000AD01B901CA011F910F91FF90EF90089558
:102A5000EF92FF920F931F937B018C016217730714
:102A60008407950764F4261B370B480B590BCA01E2
:102A7000B9010E940615E60EF71E081F191FB701BF
:102A8000C8011F910F91FF90EF900895FC01918173
:102A90008081813A31F4913089F080E0933089F47B
:102AA0000DC0813269F49B3021F4828180935E01F4
:102AB00005C09A3029F4828180935F0181E00895F6
:102AC00080E00895EF92FF920F931F938C01E62E02
:102AD000DC01ED91FC910480F581E02D0995F82E43
:102AE000D801ED91FC910680F781E02DC8016E2D93
:102AF00009958F2D90E01F910F91FF90EF90089511
:102B000010921C021092200210921F028EE891E097
:102B100090931E0280931D020895EF92FF920F93EF
:102B20001F93DF93CF930F92CDB7DEB789838B01CD
:102B30007A0184E0BE016F5F7F4F41E050E00E9468
:102B4000FB1284E4B801A7010E94FB120F90CF9101
:102B5000DF911F910F91FF90EF90089582E048E080
:102B600050E00E948D150895FC0116821782108690
:102B700011861286138614823496BF010E94AE1508
:102B80000895DC01683810F0685829C0E62FF0E09D
:102B900067FF13C0E058F04081E090E002C0880F6A
:102BA000991FEA95E2F7809514962C9114972823A3
:102BB00014962C93149760E012C0ED59FD4F649168
:102BC000662319F420E030E01DC067FF08C01496AA
:102BD0008C9114978D7F14968C9314976F77FD01C9
:102BE00090E0662321F08681861709F416829F5FA4
:102BF00031969630B1F7CD011496BD010E94AE1505
:102C000021E030E0C9010895CF93DF93DC016838FB
:102C100010F0685825C0E62FF0E067FF12C0E058BA
:102C2000F04081E090E002C0880F991FEA95E2F73A
:102C300014962C911497282B14962C93149760E0DB
:102C40000FC0ED59FD4F64916623D9F167FF08C0AD
:102C500014968C911497826014968C9314976F77C6
:102C600016968C9116978617A9F117968C9117973F
:102C7000861781F118968C911897861759F1199635
:102C80008C911997861731F11A968C911A9786179D
:102C900009F11B968C911B978617E1F0ED01E0E09E
:102CA000F0E09E2F8E81882321F4EA0FFB1F6683BC
:102CB00006C09F5F31962196E630F10591F7963078
:102CC00049F481E090E013969C938E93129720E054
:102CD00030E007C0CD011496BD010E94AE1521E081
:102CE00030E0C901DF91CF91089580E865EE71E091
:102CF00045E650E00E942A120895FC0180818F5F12
:102D0000808380E86AE472E049E150E00E942A1280
:102D100008955058BB27AA270ED075C166D130F050
:102D20006BD120F031F49F3F11F41EF45BC10EF41F
:102D3000E095E7FB51C1E92F77D180F3BA1762071D
:102D400073078407950718F071F49EF58FC10EF490
:102D5000E0950B2EBA2FA02D0B01B90190010C01AB
:102D6000CA01A0011124FF27591B99F0593F50F4C3
:102D7000503E68F11A16F040A22F232F342F44271B
:102D8000585FF3CF469537952795A795F040539513
:102D9000C9F77EF41F16BA0B620B730B840BBAF0E3
:102DA0009150A1F0FF0FBB1F661F771F881FC2F74E
:102DB0000EC0BA0F621F731F841F48F48795779562
:102DC0006795B795F7959E3F08F0B3CF9395880F19
:102DD00008F09927EE0F979587950895D9D008F4B4
:102DE00081E008950CD00FC107D140F0FED030F043
:102DF00021F45F3F19F0F0C0511139C1F3C014D173
:102E000098F39923C9F35523B1F3951B550BBB27B1
:102E1000AA2762177307840738F09F5F5F4F220F5E
:102E2000331F441FAA1FA9F333D00E2E3AF0E0E857
:102E300030D091505040E695001CCAF729D0FE2FA3
:102E400027D0660F771F881FBB1F26173707480735
:102E5000AB07B0E809F0BB0B802DBF01FF279358EB
:102E60005F4F2AF09E3F510568F0B6C000C15F3F3A
:102E7000ECF3983EDCF3869577956795B795F795D3
:102E80009F5FC9F7880F911D9695879597F90895CB
:102E9000E1E0660F771F881FBB1F62177307840767
:102EA000BA0720F0621B730B840BBA0BEE1F88F776
:102EB000E095089504D06894B111D9C00895BCD0AC
:102EC00088F09F5790F0B92F9927B751A0F0D1F013
:102ED000660F771F881F991F1AF0BA95C9F712C09D
:102EE000B13081F0C3D0B1E00895C0C0672F782F12
:102EF0008827B85F39F0B93FCCF386957795679509
:102F0000B395D9F73EF490958095709561957F4F74
:102F10008F4F9F4F0895E89409C097FB3EF490951A
:102F20008095709561957F4F8F4F9F4F9923A9F0A2
:102F3000F92F96E9BB279395F69587957795679531
:102F4000B795F111F8CFFAF4BB0F11F460FF1BC075
:102F50006F5F7F4F8F4F9F4F16C0882311F096E908
:102F600011C0772321F09EE8872F762F05C06623B6
:102F700071F096E8862F70E060E02AF09A95660F6F
:102F8000771F881FDAF7880F9695879597F9089528
:102F9000990F0008550FAA0BE0E8FEEF161617066A
:102FA000E807F907C0F012161306E407F50798F0D2
:102FB000621B730B840B950B39F40A2661F0232BEB
:102FC000242B252B21F408950A2609F4A140A69567
:102FD0008FEF811D811D089597F99F6780E870E04C
:102FE00060E008959FEF80EC089500240A9416167F
:102FF000170618060906089500240A9412161306E7
:10300000140605060895092E0394000C11F4882374
:1030100052F0BB0F40F4BF2B11F460FF04C06F5F90
:103020007F4F8F4F9F4F089557FD9058440F551F66
:1030300059F05F3F71F04795880F97FB991F61F03A
:103040009F3F79F087950895121613061406551FB1
:10305000F2CF4695F1DF08C0161617061806991F1D
:10306000F1CF86957105610508940895E894BB2712
:1030700066277727CB0197F908958ADF08F48FEF49
:1030800008950BD0C0CFB1DF28F0B6DF18F095233C
:1030900009F0A2CFA7CF1124EACFC6DFA0F3959FF6
:1030A000D1F3950F50E0551F629FF001729FBB272F
:1030B000F00DB11D639FAA27F00DB11DAA1F649FDB
:1030C0006627B00DA11D661F829F2227B00DA11D8E
:1030D000621F739FB00DA11D621F839FA00D611D14
:1030E000221F749F3327A00D611D231F849F600D35
:1030F000211D822F762F6A2F11249F5750408AF06E
:10310000E1F088234AF0EE0FFF1FBB1F661F771FF9
:10311000881F91505040A9F79E3F510570F05CCF39
:10312000A6CF5F3FECF3983EDCF3869577956795E5
:10313000B795F795E7959F5FC1F7FE2B880F911D17
:103140009695879597F9089511F40EF44BCF4AC0E0
:1031500073DFD0F39923D9F3CEF39F57550B87FF35
:1031600051D056959795B0E020F4660F771F881FD1
:10317000BB1F1F930F9300249001A0018001F00159
:10318000A0E80E0F1F1F0A1E511D601B710B800946
:10319000B50B48F4600F711F801DB51F0E1B1F0B70
:1031A0000A0A510907C02E0F3F1F4A1F0E0F1F1F8B
:1031B0000A1E511D660F771F881FBB1FA695F79526
:1031C000E795F8F60617170708065B07211D311D5E
:1031D000411D0F911F91B901842F9158880F969529
:1031E000879508959F3F49F0915028F486957795EB
:1031F0006795B7959F5F80389F4F880F9695879505
:1032000097F9089591505040660F771F881FD2F7A5
:103210000895629FD001739FF001829FE00DF11D20
:10322000649FE00DF11D929FF00D839FF00D749F40
:10323000F00D659FF00D9927729FB00DE11DF91FEC
:10324000639FB00DE11DF91FBD01CF011124089549
:1032500097FB092E07260AD077FD04D049D006D067
:1032600000201AF4709561957F4F0895F6F79095B8
:1032700081959F4F0895A1E21A2EAA1BBB1BFD0149
:103280000DC0AA1FBB1FEE1FFF1FA217B307E40745
:10329000F50720F0A21BB30BE40BF50B661F771F9D
:1032A000881F991F1A9469F760957095809590957D
:1032B0009B01AC01BD01CF01089597FB092E0526A6
:1032C0000ED057FD04D0D7DF0AD0001C38F450953B
:1032D0004095309521953F4F4F4F5F4F0895F6F73A
:1032E00090958095709561957F4F8F4F9F4F089572
:1032F000AA1BBB1B51E107C0AA1FBB1FA617B7071C
:1033000010F0A61BB70B881F991F5A95A9F7809537
:103310009095BC01CD010895EE0FFF1F0590F4912B
:10332000E02D09942F923F924F925F926F927F927D
:103330008F929F92AF92BF92CF92DF92EF92FF92C5
:103340000F931F93CF93DF93CDB7DEB7CA1BDB0B71
:103350000FB6F894DEBF0FBECDBF09942A88398816
:1033600048885F846E847D848C849B84AA84B9841D
:10337000C884DF80EE80FD800C811B81AA81B98129
:10338000CE0FD11D0FB6F894DEBF0FBECDBFED013D
:10339000089512E0CCEED2E004C0FE010E948E1926
:0C33A0002296CE3ED107C9F7F894FFCF6B
:1033AC000100000038393A383038393A38303A3B75
:1033BC003C303A3B3C3030303C3D3C3B3A30383092
:1033CC00303C3D3C3B3A3038303039303530383099
:1033DC0030303930353038005000FFFF0B1A0D1DDE
:1033EC001C1B01000E0F12131415161706070504EB
:1033FC0080002D02000000E100000000000001012F
:10340C0000000000920AF009A90AA807EE07E00ADA
:10341C00060846087B08BB081F0900000000AB101B
:10342C00E0101E11FD100D11F910000000006215C6
:08343C00AA110416C115B41514
:00000001FF
