:100000000C94CF010C94F7010C94F7010C94F701B8
:100010000C94F7010C94F7010C94F7010C94F70180
:100020000C94F7010C94F7010C94DA1F0C946120E6
:100030000C94F7010C94F7010C94F7010C94F70160
:100040000C94F7010C941F150C94F7010C94F70114
:100050000C94F7010C94F7010C94F7010C9412170F
:100060000C94F7010C94C71B0C94151C0C94F7010D
:100070000C94F7010C94F7010C94F7010C94F70120
:100080000C94F7010C94F7010C94F7010C94F70110
:100090000C94F7010C94F7010C94F7010C94F70100
:1000A0000C94F7010C94F7010C94F701084AD73B24
:1000B0003BCE016E84BCBFFDC12F3D6C74319ABD37
:1000C00056833DDA3D00C77F11BED9E4BB4C3E915B
:1000D0006BAAAABE000000803F07634236B79BD8D8
:1000E000A71A39685618AEBAAB558C1D3CB7CC5719
:1000F00063BD6DEDFD753EF6177231BF00000080E7
:100100003F08000000BE922449123EABAAAA2ABEB4
:10011000CDCCCC4C3E00000080BEABAAAAAA3E00CB
:10012000000000BF000000803F0000000000084108
:1001300078D3BB4387D1133D190E3CC3BD4282AD7A
:100140002B3E68EC8276BED98FE1A93E4C80EFFF52
:10015000BE01C4FF7F3F000000000000000000243B
:100160000027002A002D0030000000000025002894
:10017000002B002E00310000000000230026002983
:10018000002C002F000404040404030405020202EE
:100190000204030202020206060606060604040220
:1001A00002020404080201104080401020408040F8
:1001B00080080204018040201002011080102040BD
:1001C000400000000200080E0000030401000B00C4
:1001D0000000000000000000000000000000000718
:1001E0000605040100080A0B0C0D09080B000202A9
:1001F00002010009040000010202000005240010B1
:10020000010524010101042402060524060001075A
:1002100005810310004009040100020A00000007E4
:1002200005020240000007058302400000040309A4
:10023000042203410072006400750069006E006FC3
:100240000020004C0065006F006E006100720064C9
:10025000006F001803410072006400750069006EB1
:10026000006F0020004C004C00430012010002000F
:10027000000040412336800001010200011201000C
:10028000020200004041233680000101020001000B
:10029000C18081C105010902A1010901A1008501F7
:1002A000050919012903150025019503750181022E
:1002B000950175058103050109300931093815815A
:1002C000257F750895038106C0C005010906A101B7
:1002D0008502050719E029E7150025017501950834
:1002E000810295017508810395067508150025653D
:1002F0000507190029658100C009040200010300F7
:100300000000092101010001226500070584034066
:10031000000100000000000000002A2B280000005F
:1003200000000000000000000000000000000000CD
:1003300000002C9EB4A0A1A2A434A6A7A5AE362D81
:100340003738271E1F20212223242526B333B62E1B
:10035000B7B89F8485868788898A8B8C8D8E8F908D
:100360009192939495969798999A9B9C9D2F313052
:10037000A3AD350405060708090A0B0C0D0E0F1076
:100380001112131415161718191A1B1C1DAFB1B032
:10039000B5003102FB1A811D161F2D222A021124DD
:1003A0001FBECFEFDAE0DEBFCDBF11E0A0E0B1E0CD
:1003B000E4E9FFE402C005900D92AC38B107D9F72B
:1003C00013E0ACE8B1E001C01D92AB3AB107E1F730
:1003D00013E0CCE9D3E004C02297FE010E94B927C4
:1003E000C239D107C9F70E94D71D0C94BD270C94C0
:1003F00000008130910521F56F5F7F4F51F58CE84A
:1004000091E00E947B0E8EE991E00E94FC0A82EA54
:1004100091E00E94BC0E84EB91E00E94F60D81EC0D
:1004200091E00E94B11085EC91E00E94C30A8FEC2C
:1004300091E00E94A00C83ED91E00E94940C08953D
:10044000892B39F46F5F7F4F21F484EB91E00E9498
:10045000AB0D089580E090E06FEF7FEF0E94F9010F
:10046000089581E090E06FEF7FEF0E94F901089519
:100470001092DC0189ED92E00E94B11A181619065B
:1004800064F481E08093DC011092DD0189ED92E05B
:100490000E94D81A80934A0208958FE693E00E9442
:1004A000D71C181619065CF481E08093DC01809358
:1004B000DD018FE693E00E94081D80934A020895B3
:1004C000682F8091DD01882329F08FE693E00E9458
:1004D000411D089589ED92E00E94121B08956093DA
:1004E000D8017093D9018093DA019093DB01809158
:1004F000D8010E9460028091D9010E94600280911F
:10050000DA010E9460028091DB010E94600208957E
:10051000EF92FF920F931F93CF93DF93EB018A012A
:10052000E22E8530910509F46FC086309105B4F450
:100530008230910509F43FC0833091053CF4009767
:1005400009F4E2C0019709F001C123C0833091058D
:1005500009F44CC0049709F0F9C048C080319105F6
:1005600009F470C08131910544F48630910509F495
:10057000B7C00F9709F0EAC078C08E31910509F431
:10058000CCC08F31910509F4D0C0419709F0DEC08D
:1005900085C081EC91E00E94C80C90E08C179D070B
:1005A00029F081EC91E06C2F0E94CE0C81EC91E05F
:1005B0000E94A210C7C082EA91E00E94C80C90E09D
:1005C0008C179D0741F482EA91E00E94CB0C90E0E9
:1005D0008017910731F082EA91E06C2F402F0E9442
:1005E000960E82EA91E00E940410AEC08FEC91E07A
:1005F0000E94C80C90E08C179D07F9F08FEC91E0F9
:100600006C2F0E94CE0C19C08FEC91E00E94C80C98
:1006100090E08C179D0729F08FEC91E06C2F0E94E1
:10062000CE0C0130110529F48FEC91E00E94FB0CF7
:1006300083C00230110509F089C08FEC91E00E945F
:10064000F60C7AC083ED91E00E94C80C90E08C1704
:100650009D0729F083ED91E06C2F0E94CE0C6091F4
:10066000490270E080E090E016C08FEC91E00E94BB
:10067000C80C90E08C179D0729F08FEC91E06C2F4F
:100680000E94CE0C8FEC91E00E94260D90E0A0E03D
:10069000B0E0BC01CD010E94602456C08FEC91E017
:1006A0000E94C80C90E08C179D0729F08FEC91E018
:1006B0006C2F0E94CE0C8FEC91E00E943A0DE82E38
:1006C0008FEC91E00E94260DFF24EE0CFF1CE80E3B
:1006D000F11C0027F7FC0095102FC801B70132C0AC
:1006E0000E94700B0130110519F40E94000B2CC000
:1006F0000230110519F40E940B0B26C003301105BE
:1007000029F50E94160B20C06091090170910A0121
:1007100080910B0190910C0117C0822F60E00E9424
:1007200024198E2D0E94E41907C0822F60E00E94D8
:1007300024198E2D0E944718AA2797FDA095BA2F3D
:10074000BC01CD010E9462240E946F02DF91CF9113
:100750001F910F91FF90EF9008958091DD01882304
:1007600019F08FE693E002C089ED92E00E94141E1A
:1007700008952F923F924F925F926F927F928F9245
:100780009F92AF92BF92CF92DF92EF92FF920F9320
:100790001F93DF93CF93CDB7DEB72F970FB6F894A3
:1007A000DEBF0FBECDBF109248029091DD019923AC
:1007B00019F08091140202C08091E0018230B9F1F9
:1007C000843009F473C3813009F09CC38FEF0E9419
:1007D000600285E50E9460028091DD01882319F0A6
:1007E0008091180202C08091E4010E946002809111
:1007F000DD01882319F02091170202C02091E30146
:1008000030E0882319F08091160202C08091E20145
:10081000B901E4E076956795EA95E1F7A9014F7093
:10082000507090E00E9488020E94AD036BC3992330
:1008300019F08091150202C08091E101282F30E06B
:100840003D832C8374E0C72ED12C27C31091DD018A
:10085000112321F0F601EE5EFD4F03C0F601E252D6
:10086000FE4FE0812E2F30E0C6010196112321F0CA
:10087000FC01EE5EFD4F03C0FC01E252FE4F008121
:10088000402F50E05A0164E0B694A7946A95E1F7CE
:100890006C010894C11CD11C2830310509F0BFC07F
:1008A000F6013196112329F082E192E0C80ED91E9B
:1008B00004C02EED31E0C20ED31ED601BC91BB8325
:1008C0007F010894E11CF11C112319F0EE5EFD4F2D
:1008D00002C0E252FE4F608170E080E090E00E9432
:1008E00060246A877B878C879D87F7013196FA831E
:1008F000E983112329F022E132E0E20EF31E04C065
:10090000EEEDF1E0EE0EFF1ED7016C9170E080E09D
:1009100090E00E9460246E837F83888799871123EB
:1009200029F0E981FA81EE5EFD4F04C0E981FA8188
:10093000E252FE4F608170E080E090E00E9460240F
:100940001B012C0184EB91E00E94C80C90E08A15F9
:100950009B0529F084EB91E06A2D0E94C00DBB81BC
:10096000BB2319F41F861E8646C0EB81E150EB8342
:100970006A857B858C859D850E9434243B014C01D2
:100980006E817F81888599850E9434245B016C018A
:10099000C201B1010E9434247B018C0184EB91E0FF
:1009A0006B81462D2A2D0E2D0E94510D2EC06A8579
:1009B0007B858C859D850E9434243B014C016E8192
:1009C0007F81888599850E9434245B016C01C20176
:1009D000B1010E9434247B018C0184EB91E06E858F
:1009E000462D2A2D0E2D0E94510D2E853F852F5FFD
:1009F0003F4F3F872E8784EB91E00E944E0D90E0A1
:100A0000AE85BF85A817B90794F2C980DA8008942B
:100A1000C11CD11C84EB91E00E947C0D3EC22A30A7
:100A2000310509F053C0D6011196112329F0E2E1F6
:100A3000F2E0CE0EDF1E04C02EED31E0C20ED31E5A
:100A4000F60160816093D801FD013196112319F000
:100A5000AE5EBD4F02C0A252BE4F8C918093D901B1
:100A6000BF016F5F7F4F112319F0EE5EFD4F02C093
:100A7000E252FE4F80818093DA01112321F0FB01C5
:100A8000EE5EFD4F03C0FB01E252FE4FE0816B01C1
:100A90000894C11CD11CE093DB01E090D801F090D8
:100AA000D9010091DA011091DB018EE991E06A2D04
:100AB0000E94CE0CC801B7010E942F249B01AC01FB
:100AC0008EE991E0B9010E94C60AE7C129303105DB
:100AD00009F054C0D6011196112319F022E132E039
:100AE00002C02EED31E0C20ED31EF601608160938C
:100AF000D801FD013196112319F0AE5EBD4F02C041
:100B0000A252BE4F8C918093D9016F010894C11CF1
:100B1000D11C112319F0EE5EFD4F02C0E252FE4FD0
:100B200080818093DA01112321F0F601EE5EFD4F02
:100B300003C0F601E252FE4FE081E093DB01E0905A
:100B4000D801F090D9010091DA011091DB0185EC18
:100B500091E00E94C80C90E08A159B0529F085EC75
:100B600091E06A2D0E949F090894C11CD11C85EC5C
:100B700091E0B801A7010E94390A8FC12B303105DD
:100B800009F080C0D6011196112319F022E132E05C
:100B900002C02EED31E0C20ED31EF60160816093DB
:100BA000D801FD013196112319F0AE5EBD4F02C090
:100BB000A252BE4F8C918093D9016F010894C11C41
:100BC000D11C112319F0EE5EFD4F02C0E252FE4F20
:100BD00080818093DA01112321F0F601EE5EFD4F52
:100BE00003C0F601E252FE4FE0818A010F701070DF
:100BF000E093DB018091D8019091D901A091DA01B5
:100C0000B091DB0180930D0190930E01A0930F0131
:100C1000B09310018CE891E00E94C80C90E08A1516
:100C20009B0541F48CE891E00E94CB0C90E080178A
:100C3000910731F08CE891E06A2D402F0E945B0E05
:100C4000E0900D01F0900E0100910F011091100144
:100C5000C801B70120E030E040E050E00E948C2560
:100C600018161CF4C801B70103C0C801B701905899
:100C70000E9434240894C11CD11C8CE891E00E948D
:100C8000030E0BC12330310509F05EC0D601119669
:100C9000112319F022E132E002C02EED31E0C20E44
:100CA000D31EF60160816093D801FD0131961123B6
:100CB00019F0AE5EBD4F02C0A252BE4F8C91809320
:100CC000D9017F010894E11CF11C112319F0EE5E9B
:100CD000FD4F02C0E252FE4F80818093DA01112362
:100CE00021F0F701EE5EFD4F03C0F701E252FE4F27
:100CF000E081E093DB018FEC91E00E94C80C90E072
:100D00008A159B0529F08FEC91E06A2D0E94CE0C8C
:100D100067010894C11CD11C10E06091D80170914A
:100D2000D9018091DA019091DB0120E030E040E8C8
:100D30005FE30E948C2588230CF011E08FEC91E09A
:100D4000612F0E94130DA9C02E31310509F053C047
:100D5000D6011196112319F022E132E002C02EEDE6
:100D600031E0C20ED31EF60160816093D801FD010F
:100D70003196112319F0AE5EBD4F02C0A252BE4F94
:100D80008C918093D901BF016F5F7F4F112319F0C0
:100D9000EE5EFD4F02C0E252FE4F80818093DA0189
:100DA000112321F0FB01EE5EFD4F03C0FB01E25277
:100DB000FE4FE0816B010894C11CD11CE093DB0164
:100DC000802F61E00E94241910E06091D801709199
:100DD000D9018091DA019091DB0120E030E040E818
:100DE0005FE30E948C2588230CF011E0802F612F97
:100DF0000E94B11952C02F5130402230310508F005
:100E00004CC0D6011196112319F022E132E002C044
:100E10002EED31E0C20ED31EF60160816093D80141
:100E2000FD013196112319F0AE5EBD4F02C0A252F2
:100E3000BE4F8C918093D901BF016F5F7F4F11230B
:100E400019F0EE5EFD4F02C0E252FE4F80818093AA
:100E5000DA01112321F0FB01EE5EFD4F03C0FB011F
:100E6000E252FE4FE0816B010894C11CD11CE0935B
:100E7000DB01802F61E00E9424196091D8017091FC
:100E8000D9018091DA019091DB010E942F249B010E
:100E9000AC01802FB9010E947F18C60103972C81F5
:100EA0003D81281739070CF0D1CC2CC08EE991E098
:100EB00069E00E94CE0C8EE991E060E070E00E9453
:100EC000C60A8EE991E06AE00E94CE0C8EE991E0BC
:100ED00060E070E00E94C60A8EE991E061E00E9445
:100EE000CE0C8EE991E060E070E00E94C60A8EE9C7
:100EF00091E062E00E94CE0C8EE991E060E070E04B
:100F00000E94C60A2F960FB6F894DEBF0FBECDBF63
:100F1000CF91DF911F910F91FF90EF90DF90CF90D5
:100F2000BF90AF909F908F907F906F905F904F9009
:100F30003F902F90089583ED91E00E94800C8823CC
:100F400071F083ED91E00E946F0C181619064CF4B5
:100F500083ED91E00E943C0C8093490202C0109204
:100F600049020E9438028091DC01882309F44FC0B5
:100F700020914A02253571F480914802882351F46A
:100F800080914B028F3F31F581E080934602809340
:100F9000480220C020934B02809148028823D1F060
:100FA00090914602933019F42093470207C0943081
:100FB00028F080914702815080934702E92FF0E0AA
:100FC0008091DD01882319F0EE5EFD4F02C0E252F0
:100FD000FE4F2083809146028F5F809346028433C8
:100FE00020F0109246021092480280914802882315
:100FF00071F080914702882351F480914602843039
:1010000030F0109248020E94B903109246020895EF
:101010000F931F930FE613E0C80140E855E260E02C
:1010200070E00E94501C60ED77E080E090E00E944C
:101030008E17C80160E071E00E94501E68EE73E0F8
:1010400080E090E00E948E17C80140E052EC61E021
:1010500070E00E94501C89ED92E060E072EC0E940A
:10106000B01A6A9A729A64E670E080E090E00E949A
:101070008E176A9A72981F910F9108952F923F923E
:101080004F925F926F927F928F929F92AF92BF9298
:10109000CF92DF92EF92FF920F931F93CF93DF9344
:1010A0001A012B01E90137FD44C02196BE018827B2
:1010B00077FD8095982F21970E9462249B01AC01B7
:1010C00060E070E080E291E40E94FA255B016C012F
:1010D000C201B101A60195010E94C7230E949D246F
:1010E0003B014C01BE01882777FD8095982F0E9417
:1010F00062249B01AC0160E070E080E291E40E9418
:10110000FA257B018C01C401B301A60195010E945F
:1011100097259B01AC01C201B1010E943623A801B1
:1011200097010E94C7230E949D240E942F24CB0177
:101130001CC000271127021B130BC0E0D0E0C20126
:10114000B10120E030E040E251E40E9497251B010C
:101150002C012196C017D10794F30E942F24DC01A3
:10116000CB016AE070E00E945327DF91CF911F917D
:101170000F91FF90EF90DF90CF90BF90AF909F9036
:101180008F907F906F905F904F903F902F90089539
:101190000F931F938C01FC01808560E00E94B119C0
:1011A000F801818560E00E94B119F801808561E055
:1011B0000E94B119F801818561E00E94B1191F9167
:1011C0000F9108950F931F938C01FC01808561E0BE
:1011D0000E94B119F801818561E00E94B119F801FE
:1011E000818560E00E94B119F801808560E00E946D
:1011F000B1191F910F910895FF920F931F93CF93F1
:10120000DF93EC01162FFF24888560E00E94B1195E
:10121000012F112707FD109500FF03C0898561E0AC
:1012200002C0898560E00E94B119888561E00E9452
:10123000B119F39488E0F81621F015950795102F51
:10124000E3CF888560E00E94B119898561E00E9442
:10125000B119888561E00E94B119898560E00E941A
:1012600024190BC01F5F183C49F4898561E00E9476
:101270002419898560E00E94B11910E089850E94D7
:10128000E419892B79F7898561E00E942419DF919F
:10129000CF911F910F91FF9008950F931F93CF93BC
:1012A000DF93EC01162F4F3711F400E007C0E42F55
:1012B000FF27E7FDF095E65CFE4F0081CE010E941E
:1012C000E208CE0164E40E94FC08CE010E94C80836
:1012D000CE010E94E208106CCE01612F0E94FC0832
:1012E000CE01602F0E94FC08CE010E94C808CE01EA
:1012F0000E94E208CE016E810E94FC08CE010E948D
:10130000C808DF91CF911F910F9108950F931F93FC
:101310008C0160E04FE70E944D09C80161E04FE792
:101320000E944D09C80162E04FE70E944D09C801C3
:1013300063E04FE70E944D091F910F9108950F93AD
:101340001F938C01E62FDC0112966C931297F0E04C
:10135000EE0FFF1FEF5EFE4F818111968C93119768
:1013600090819C9318968C93189719969C9361E0A2
:101370000E942419F801818561E00E94241980E40B
:10138000D80114968C93149780EC15968C9315972E
:101390008AE816968C93C8010E9486091F910F91C6
:1013A00008950F931F93DF93CF9300D000D0CDB754
:1013B000DEB78C0120E030E0AE014F5F5F4FFA01F5
:1013C000E20FF31FDB01A20FB31F8C9180832F5F0D
:1013D0003F4F2430310599F7DA019E012B5F3F4FD3
:1013E000EC91EF3711F41C9207C0FF27E7FDF09551
:1013F000E65CFE4F80818C931196A217B30781F7AC
:10140000C8010E94E208C80160E40E94FC08C8010B
:101410000E94C808C8010E94E208C801F80165815D
:101420000E94FC08C80169810E94FC08C8016A8109
:101430000E94FC08C8016B810E94FC08C8016C81F5
:101440000E94FC08C8010E94C808C8010E94E20866
:10145000C801F80166810E94FC08C8010E94C80802
:101460000F900F900F900F90CF91DF911F910F91E0
:1014700008952F923F924F925F926F927F929F9228
:10148000AF92BF92CF92DF92EF92FF920F931F9392
:10149000DF93CF9300D000D0CDB7DEB73C017A0107
:1014A0008B0119821A821B821C82CB01BA0120E0B7
:1014B00030E040E050E00E94C32387FD03C0AA242F
:1014C000BB2409C017FB109517F9109580E289839A
:1014D00031E0A32EB12CCC24DD24992423E0222E4C
:1014E000312C2E010894411C511C91012C193D09ED
:1014F000C301B801A7010E943E08181619063CF066
:1015000023E0C216D10439F09920B1F00EC023E0D7
:10151000C216D10441F4F201EA0DFB1D805F808305
:101520009924939406C099249394F201EA0DFB1D2B
:1015300080830894A11CB11C84E0A816B1043CF47B
:101540000894C11CD11C27E0C216D10471F6C30156
:10155000BE016F5F7F4F0E94D1090F900F900F90D7
:101560000F90CF91DF911F910F91FF90EF90DF903F
:10157000CF90BF90AF909F907F906F905F904F9073
:101580003F902F9008950E94970C0895EF92FF923C
:101590000F931F93CF93DF93F82EE92EEB016F3F4C
:1015A000710519F014F0CFEFD0E08E018FEFC1304C
:1015B000D8071CF401E01FEF0BC0D7FD09C08F2D29
:1015C0009E2D61E00E94000D8F2D9E2DBE010BC04F
:1015D0008F2D9E2D60E00E94000D66277727601BEF
:1015E000710B8F2D9E2D0E94F10CDF91CF911F91D9
:1015F0000F91FF90EF90089560E00E94A90C08956C
:101600002091540230915502409156025091570258
:10161000B901CA01089520915002309151024091C0
:10162000520250915302B901CA01089520914C020F
:1016300030914D0240914E0250914F02B901CA01C2
:101640000895EF92FF920F931F93E0902701F0907F
:10165000280188E665E746E026E008E512E00E94FA
:10166000691390E080915802843309F491E0892F46
:101670001F910F91FF90EF90089588E66BE646E08A
:1016800020E00E942F1308950F9388E66CE144E058
:1016900022E000E00E94E5120F9108950F9388E682
:1016A0006BE144E022E000E00E94E5120F91089512
:1016B0000F9388E66BE642E023E001E00E94E5122A
:1016C0000F91089580E991E061E00E94B5100E94B9
:1016D000580B0E944E0B0E94440B0E943D0B089534
:1016E0006F927F928F929F92AF92BF92CF92DF9232
:1016F000EF92FF920F931F930E94210B882311F406
:101700000E94620B009127011091280188E66BE38B
:101710004EE028E532E00E948F1270915A0260E09C
:1017200020915B0230E0622B732B882777FD809538
:10173000982F0E94622420E030E048EC52E40E949E
:10174000C7233B014C0170915C0260E020915D0277
:1017500030E0622B732B882777FD8095982F0E94AD
:10176000622420E030E048EC52E40E94C7237B0171
:101770008C017091640260E02091650230E0622B80
:10178000732B882777FD8095982F0E94622420E094
:1017900030E046EA52E40E94372320E030E043E89C
:1017A00052E40E94C7235B016C017091580260E013
:1017B0002091590230E0622B732B882777FD8095AA
:1017C000982F0E94622420E030E048EC52E40E940E
:1017D000C723A80197010E94C7230E949B2320E0F2
:1017E00030E044E353E40E9497252AED3FE049E4CA
:1017F00050E40E94C7236093540270935502809373
:10180000560290935702C401B301A80197010E94A8
:10181000C7230E949B2320E030E044E353E40E946E
:1018200097252AED3FE049E450E40E94C7236093E6
:101830005002709351028093520290935302C6015A
:10184000B50120E030E040E251E40E94C7236093FC
:101850004C0270934D0280934E0290934F021F9161
:101860000F91FF90EF90DF90CF90BF90AF909F903F
:101870008F907F906F900895FC0184811482089569
:10188000EF92FF921F93CF93DF937C01FC01818144
:101890000E94E419892B11F010E01AC010E0C0E09A
:1018A000D0E085E690E00E94E717F70181810E9471
:1018B000E4190C2E02C0880F991F0A94E2F7182B26
:1018C0002196C830D10569F785E690E00E94E717B8
:1018D000812FDF91CF911F91FF90EF900895CF93CB
:1018E000DF93EC010E94400C18161CF020E030E061
:1018F00003C08C8321E030E0C901DF91CF910895CE
:101900000F931F93182F092F0E94C80C882311F4DE
:1019100090E006C0812F902F0E943A0D91E0982709
:10192000892F1F910F9108950E94970C0895FC0133
:101930008091110180838091120181831282089528
:10194000FC018091110180838091120181831282B8
:101950000895DC01E62FF0E0EE0FFF1FEF5EFE4F73
:1019600080818C93818111968C93119712966C9340
:1019700091E0909380008BE08093810090939000A1
:101980008093910087E08093C1001092C300089576
:10199000FC0182810895FC0183810895DC01E62F1A
:1019A000F0E0EE0FFF1FEF5EFE4F80818C93818190
:1019B00011968C93119712966C930895DC01E62F83
:1019C000F0E0EE0FFF1FEF5EFE4F80818C93818170
:1019D00011968C93119712966C93129713964C93C1
:1019E0000895FC0180810E947F180895FC01818187
:1019F0000E9447180895FC0180810E9447180895AD
:101A0000FF920F931F938C01F62EFC01818161E000
:101A10000E942419F80181816F2D0E94B1191F9134
:101A20000F91FF900895FF920F931F938C01F62E54
:101A3000FC01808161E00E942419F80180816F2DF2
:101A40000E94B1191F910F91FF9008950F931F935A
:101A50008C01FC01818160E00E942419F8018181E0
:101A60000E94E41920E0892B09F021E0822F1F91C8
:101A70000F9108950F931F938C01FC01808160E00A
:101A80000E942419F80180810E94E41920E0892B2A
:101A900009F021E0822F1F910F910895FC018481AC
:101AA00008950F93DC01522F262F30E014968D916C
:101AB0009C9115972817390710F080E01BC083E030
:101AC000689F802D112490E01696ED91FC91179758
:101AD000E80FF91F50831696ED91FC911797E80FC8
:101AE000F91F41831696ED91FC911797E80FF91FA6
:101AF000028381E00F910895CF93DF93FC01C681AB
:101B0000D781848195819C01220F331F280F391FB3
:101B10009485A085B1855FB7F8948C91492F409545
:101B20004823982B11C0899168E09C9300C087FFDF
:101B30004C93880F00C000C000C008F44C9300C054
:101B40006A9599F7215030402115310561F75FBF43
:101B5000DF91CF91089508950F931F938C0170E04A
:101B6000FC0175836483CB01880F991F860F971F33
:101B70000E94DD15F801868397831F910F910895C8
:101B8000DC01E62F12966C931297F0E0EE0FFF1F28
:101B9000EF5EFE4F818111968C93119790819C93FB
:101BA000282F30E0F901ED55FE4FE4911C96EC939F
:101BB0001C972B573E4FF901249130E0220F331F21
:101BC000F901E759FE4F4591549119965C934E9354
:101BD0001897F901E55AFE4F259134911B963C93D5
:101BE0002E931A9761E00E94241908950F931F9372
:101BF0008C0160E00E94A90CC80164E00E94AC0D59
:101C00001F910F910895AF92BF92CF92DF92EF9202
:101C1000FF920F931F93CF93DF93EC01162F6E83E8
:101C20000D9670E00E9431148C81882339F100D028
:101C300000D0612F70E080E090E020ED37E040E0E0
:101C400050E0EDB7FEB7218332834383548320E015
:101C500030E040E050E0F4EBEF2EF12C012D112D9F
:101C6000E8EEAE2EE3E0BE2EC12CD12C0E94AA21BC
:101C700078876F830F900F900F900F90DF91CF9127
:101C80001F910F91FF90EF90DF90CF90BF90AF909A
:101C90000895FC0114820D960E94C5130895FC015D
:101CA00065838AE5868381E08483CF010D9670E0A9
:101CB0000E94181508950F931F93CF93DF93EC01A3
:101CC000062F142F0E94490E0A831B83E02FF0E099
:101CD000EE0FFF1FEF5EFE4F818189836081688375
:101CE000113009F0682FCE010E944F0EDF91CF9185
:101CF0001F910F9108950F931F938C010E94970CD1
:101D0000C8010D960E94AB13F80114828FEF8583F2
:101D10008AE586830E946817F80161877287838746
:101D20009487118A108A1F910F9108951F93CF9362
:101D3000DF93EC01142F0E94DE0C123011F4E981C4
:101D400001C0E8812E2F30E0C9018D559E4FFC0166
:101D500084918C832B573E4FF9018491E82FF0E05A
:101D6000EE0FFF1FE958FE4F859194919E838D835E
:101D7000DF91CF911F9108950E94970C0895DF92F3
:101D8000EF92FF920F931F93FC01E080018112817B
:101D9000F894F80181818E2981838281DE2CD09490
:101DA0008D21828383E090E00E94E717F801818112
:101DB0008D21818382818E2982838AE090E00E9436
:101DC000E717F8010081789485E390E00E94E71717
:101DD00080E010E0FF240E211F21012B09F081E09B
:101DE0001F910F91FF90EF90DF900895EF92FF9277
:101DF0000F931F93CF93DF937C0101E010E0C0E0CD
:101E0000D0E0C7010E94BF0E8111102B000F219658
:101E1000C830D105B1F7812FDF91CF911F910F917C
:101E2000FF90EF9008951F93CF93DF93FC011081F3
:101E3000C181D281912F909560FF12C0F8948A8160
:101E400089238A838981812B89838AE090E00E949B
:101E5000E7178A81812B8A83789487E390E011C009
:101E6000F8948A8189238A838981812B898381E4FB
:101E700090E00E94E7178A81812B8A83789485E01D
:101E800090E00E94E717DF91CF911F910895CF92C4
:101E9000DF92EF92FF920F931F93CF93DF93EC01AA
:101EA000E42EFF24F39400E010E0C62EDD2460E071
:101EB0008F2D90E08C219D21892B09F061E0CE01CE
:101EC0000E94130FFF0C0F5F1F4F0830110579F7A9
:101ED000EE20B1F4F894E981FA81918188818095AE
:101EE00098239183E981FA8182819881892B828369
:101EF000E981FA81928188818095982392837894F0
:101F0000DF91CF911F910F91FF90EF90DF90CF90D5
:101F100008956CEC40E00E94470F0895DF92EF9225
:101F2000FF920F931F93CF93DF93FC010081C18138
:101F3000D281F8948981D02ED0948D2189838A8191
:101F4000802B8A8378941DE7E02EFF24115071F1D5
:101F500082E090E00E94E717888190E08E219F2127
:101F6000892BA1F3F8948A818D218A838981802B22
:101F70008983789480EE91E00E94E717F894898134
:101F80008D2189838A81802B8A8386E490E00E9458
:101F9000E717888110E090E0E822F922EF2809F4A1
:101FA00011E078948AE991E00E94E717812FDF9190
:101FB000CF911F910F91FF90EF90DF900895EF92D6
:101FC000FF920F931F93FC01E08001811281F801C1
:101FD00081819E2D90958923818382818E298283A0
:101FE0008AE090E00E94E717F801808120E090E00D
:101FF000FF248E219F21892B09F021E0822F1F9140
:102000000F91FF90EF900895AF92BF92CF92DF9221
:10201000EF92FF920F931F93DF93CF93CDB7DEB76D
:102020002C970FB6F894DEBF0FBECDBF74E0E72E3D
:10203000F12CE80EF91EC7010E948E0FC7010E9405
:10204000890FC70164E440E00E94470F0E945A17BD
:102050005B016C01C7010E94DF0F8823C1F50E945C
:102060005A176A197B098C099D096E5E724080407F
:10207000904068F5EFCFC7010E94F60EF8018193FA
:102080008F01EC15FD05B9F77A8160E0298130E018
:10209000622B732B882777FD8095982F0E946224EE
:1020A00020E030E040E85DE30E9497252C960FB6D3
:1020B000F894DEBF0FBECDBFCF91DF911F910F917E
:1020C000FF90EF90DF90CF90BF90AF900895C70141
:1020D0000E948E0FC7010E94890FC7016EEB40E07E
:1020E0000E94470F8E010F5F1F4F66E0C62ED12C56
:1020F000CC0EDD1EC0CF0F931F938C0160E00E94B9
:10210000000D82E090E00E94E717C80161E00E94A4
:10211000000D8AE090E00E94E717C80160E00E948D
:10212000000DF801818160E00E942419F80181818D
:1021300061E020E533EC40E050E00E94141A1F916A
:102140000F9108950E947B102DE130E040E050E0B7
:102150000E9488275595479537952795B901CA015B
:10216000089560E00E94A90C0895FC011092BC0043
:10217000662319F08BB1836002C08BB18C7F8BB961
:102180001092B9009F01442737FD4095542F60E815
:102190007EE380E090E00E9488272051304040405C
:1021A0005040CA01B90122E030E040E050E00E9416
:1021B00088272093B80084E08093BC000895482FBE
:1021C000440F92E064EB54E86093BC002AEF30E0E7
:1021D0008091BC0087FD34C0215030408FEF2F3FED
:1021E0003807B1F727C08091B900887F883021F087
:1021F000803111F082E008954093BB005093BC0001
:102200002AEF30E08091BC0087FD1EC02150304095
:102210008FEF2F3F3807B1F70FC08091B900887F4B
:10222000803221F4992351F09150CECF883131F48E
:1022300080E0089581E0089583E0089584E00895A2
:102240001216130684F2F6CF1216130634F3F4CFE7
:10225000EF92FF920F931F93162FE42E022FF32E6F
:102260000E94DF101093BB0084E88093BC002AEF2B
:1022700030E08091BC0087FD07C0215030408FEFD7
:102280002F3F3807B1F703C0121613063CF0802F1A
:102290009F2D9C01F90190E044E81CC08091B90099
:1022A000F6CF80818093BB004093BC002AEF30E0E2
:1022B0008091BC0087FD07C0215030408FEF2F3F39
:1022C0003807B1F705C01216130614F48091B9004F
:1022D0009F5F31969E1528F384E98093BC002AEF16
:1022E00030E08091BC0087FD06C02115310519F052
:1022F00021503040F6CF81E01F910F91FF90EF9079
:102300000895DF93CF930F92CDB7DEB7498341E0B5
:102310009E012F5F3F4F0E9428110F90CF91DF91B8
:1023200008951F93F82F122F72E0B4EBE82FEE7F81
:10233000A4E8B093BC002AEF30E08091BC0087FD98
:10234000D0C0215030408FEF2F3F3807B1F7B7C0D2
:102350008091B900887F883021F0803111F091E1BF
:10236000BDC0E093BB00A093BC002AEF30E0809199
:10237000BC0087FDBBC0215030408FEF2F3F380796
:10238000B1F79FC09091B900987F903229F47723DC
:1023900009F499C07150CDCF983109F094C0609381
:1023A000BB0084E88093BC002AEF30E08091BC0041
:1023B00087FDA1C0215030408FEF2F3F3807B1F784
:1023C00084C08091B900887F883211F095E186C081
:1023D00062E0A4EB7F2F7160E4E8A093BC002AEFD9
:1023E00030E08091BC0087FD8BC0215030408FEFE2
:1023F0002F3F3807B1F76BC08091B900887F8830D4
:1024000021F0803111F097E169C07093BB00E09337
:10241000BC002AEF30E08091BC0087FD76C02150DF
:1024200030408FEF2F3F3807B1F758C08091B90087
:10243000887F883429F4662309F44BC06150CDCFDE
:10244000803409F046C0FA0160E0412F50E041506D
:102450005040A4EC74E822C0862F90E084179507C2
:1024600019F47093BC0002C0A093BC002AEF30E0C6
:102470008091BC0087FD4EC0215030408FEF2F3F30
:102480003807B1F728C09091B900987F903511F0C6
:10249000983521F58091BB0081936F5F6117E0F261
:1024A00084E98093BC002AEF30E08091BC0087FD76
:1024B00014C02115310589F021503040F6CF90E14C
:1024C0000DC092E10BC093E109C094E107C096E111
:1024D00005C099E103C09AE101C090E0892F1F91E6
:1024E0000895121613060CF433CFE9CF1216130613
:1024F0000CF448CFE6CF121613060CF462CFE5CFEA
:10250000121613060CF478CFE2CF121613060CF451
:102510008DCFE4CF121613060CF4B5CFDCCF7F922B
:102520008F929F92AF92BF92CF92DF92EF92FF92E3
:102530000F931F93CF93DF93F82EE62E742E69012D
:10254000E8010E945A174B015C018F2D880F6E2DF8
:10255000A601272D0E949111882311F01FEF01C0C1
:10256000172D2097C1F00E945A17681979098A0916
:102570009B099E0140E050E06217730784079507AE
:1025800050F0212F332727FD3095872D90E0281715
:1025900039070CF41FEF812FDF91CF911F910F911D
:1025A000FF90EF90DF90CF90BF90AF909F908F9073
:1025B0007F9008950F931F93FA01890141E09F01D5
:1025C0000E948F121F910F910895DF92EF92FF9258
:1025D0000F931F93DF93CF930F92CDB7DEB7E82E03
:1025E000D62EF42E122F2091270130912801AE0112
:1025F0004F5F5F4F0E94DA12882341F1212F30E0B4
:102600004F2D50E04F5F5F4F421B530B81E090E036
:1026100002C0880F991F1A95E2F70197042E02C095
:10262000880F991F0A94E2F7202F30E002C0220F92
:10263000331F4A95E2F7482F40955981452382235D
:10264000482B49838E2D6D2D0E9481110F90CF91C3
:10265000DF911F910F91FF90EF90DF900895EF921F
:10266000FF920F931F93DF93CF930F92CDB7DEB7F7
:10267000F82EE62E042F122F2091270130912801E9
:10268000AE014F5F5F4F0E94DA122981112351F092
:1026900081E090E002C0880F991F0A95E2F7422F6F
:1026A000482B0AC081E090E002C0880F991F0A956C
:1026B000E2F7482F4095422349838F2D6E2D0E94CB
:1026C00081110F90CF91DF911F910F91FF90EF90AB
:1026D0000895CF92DF92EF92FF920F931F93DF93B3
:1026E000CF930F92CDB7DEB7C42ED22E9701AE0195
:1026F0004F5F5F4F0E94DA12682F882309F18D2DFA
:1027000090E04C2D50E04F5F5F4F481B590B21E08C
:1027100030E002C0220F331FDA94E2F7215030403C
:10272000042E02C0220F331F0A94E2F7898182230C
:1027300090E002C0959587954A95E2F7F80180836D
:10274000862F0F90CF91DF911F910F91FF90EF9007
:10275000DF90CF900895FC01809166028C3090F458
:1027600080838F5F80936602815090E0FC01EE0FC2
:10277000FF1FE80FF91FE959FD4F88EB9BE092839B
:10278000818308958FEF80830895DC018C9190E020
:10279000FC01EE0FFF1FE80FF91FE959FD4F808183
:1027A0008F7B80838C916CE00E94472790E0AC0186
:1027B000440F551F480F591F440F551F440F551FF5
:1027C00020E030E0C901840F951FFC01EE0FFF1FD0
:1027D000E80FF91FE959FD4F808186FD05C02F5F85
:1027E0003F4F2C30310571F70895FC0120812C30CA
:1027F000B8F58181992787FD909548E850E0481BFE
:10280000590B440F551F440F551F6417750784F06B
:102810008281992787FD909548E552E0481B590B26
:10282000440F551F440F551F641775070CF4AB0177
:1028300042505040CA01AA2797FDA095BA2F880F91
:10284000991FAA1FBB1F4FB7F89430E0F901EE0F94
:10285000FF1FE20FF31FE959FD4F928381834FBFA2
:102860000895AF92BF92CF92DF92EF92FF920F93B3
:102870001F93CF93DF93EC019B0182E060327807D6
:102880000CF048C077FF03C020E030E005C0653B96
:10289000710514F024EB30E000D000D0B901882796
:1028A00077FD8095982F2981332727FD3095E8E81B
:1028B000AE2EB12CA21AB30AAA0CBB1CAA0CBB1CCC
:1028C000CC24B7FCC094DC2CEA81FF27E7FDF0950F
:1028D00028E532E02E1B3F0B220F331F220F331F40
:1028E000442737FD4095542FEDB7FEB7218332833F
:1028F0004383548320E030E040E050E004EBE02EDE
:10290000F12C012D112D0E94AA219B010F900F90F7
:102910000F900F90CE01B9010E94F513DF91CF9176
:102920001F910F91FF90EF90DF90CF90BF90AF90ED
:102930000895CF92DF92EF92FF921F93CF93DF9390
:10294000EC01162F7A01690188818C3008F064C08F
:10295000862F61E00E942419888190E0FC01EE0F2F
:10296000FF1FE80FF91FE959FD4F1F738081807C1D
:10297000812B808380E292E08E199F0964E070E0F1
:102980000E945327698380E699E08C199D0964E0D1
:1029900070E00E9453276A83A8818A2F6CE00E940E
:1029A0004727682F70E0AB01440F551F460F571F94
:1029B000440F551F440F551F20E030E0C901840F1C
:1029C000951FFC01EE0FFF1FE80FF91FE959FD4F9E
:1029D000808186FD15C02F5F3F4F2C30310571F788
:1029E00024C01092800082E08093810010928500C4
:1029F00010928400B19A80916F00826080936F0082
:102A00008A2F90E0FC01EE0FFF1FE80FF91FE95934
:102A1000FD4F8081806480838881DF91CF911F91F9
:102A2000FF90EF90DF90CF900895672BD1F2E8CF21
:102A300040E252E020E639E00E94991408951F9286
:102A40000F920FB60F9211242F933F934F935F93E2
:102A50006F937F938F939F93AF93BF93EF93FF9366
:102A600080918B0287FF05C0109285001092840030
:102A70002BC020918B02332727FD30958091660271
:102A800090E02817390704F580918B02992787FD7C
:102A90009095FC01EE0FFF1FE80FF91FE959FD4F5C
:102AA000808186FF11C080918B02992787FD9095C8
:102AB000FC01EE0FFF1FE80FF91FE959FD4F808160
:102AC0008F7360E00E94B11980918B028F5F8093B9
:102AD0008B0220918B02332727FD3095809166026F
:102AE00090E0281739070CF04EC080918B028C3093
:102AF0000CF049C0209184003091850080918B02B8
:102B0000992787FD9095FC01EE0FFF1FE80FF91F35
:102B1000E959FD4F81819281280F391F3093890037
:102B20002093880080918B02992787FD9095FC0166
:102B3000EE0FFF1FE80FF91FE959FD4F808186FF57
:102B40002BC080918B02992787FD9095FC01EE0F99
:102B5000FF1FE80FF91FE959FD4F80818F7361E076
:102B60000E94B11919C080E49CE905C080918400DD
:102B700090918500049690938900809388008FEF50
:102B800080938B0209C08091840090918500049607
:102B900080549C4940F3EACFFF91EF91BF91AF91F0
:102BA0009F918F917F916F915F914F913F912F9165
:102BB0000F900FBE0F901F9018950F931F93CF93F8
:102BC000DF93BC018230910510F462E070E0E09187
:102BD000A903F091AA0340E050E0A0E0B0E024C0D7
:102BE0008081918186179707D0F08617970771F437
:102BF00082819381109729F013969C938E9312975C
:102C00002CC09093AA038093A90327C041155105B6
:102C100019F08417950718F48D01AC01EF01DF015D
:102C2000828193819C01F9013097D1F641155105BC
:102C3000F9F0CA01861B970B8430910580F48A81D4
:102C40009B810115110521F0F8019383828304C053
:102C50009093AA038093A903FE01329645C0FE011A
:102C6000E80FF91F619371930297998388833CC0A1
:102C70008091A7039091A803892B41F480912B01A7
:102C800090912C019093A8038093A70340912D016C
:102C900050912E014115510541F44DB75EB7809119
:102CA000290190912A01481B590B2091A7033091CB
:102CB000A80324173507B0F4CA01821B930B8617AB
:102CC000970780F0AB014E5F5F4F8417950750F078
:102CD000420F531F5093A8034093A703F901619338
:102CE000719302C0E0E0F0E0CF01DF91CF911F913E
:102CF0000F910895CF93DF939C01009709F48FC043
:102D0000EC0122971B821A826091A9037091AA0399
:102D10006115710581F488819981820F931F20913B
:102D2000A7033091A8032817390739F5D093A803D2
:102D3000C093A70374C0DB0140E050E0AC17BD07AF
:102D400008F1BB83AA83FE0121913191E20FF31FA9
:102D5000AE17BF0779F48D919C911197280F391FF9
:102D60002E5F3F4F3983288312968D919C91139744
:102D70009B838A834115510571F4D093AA03C093B4
:102D8000A9034DC012968D919C911397AD010097A8
:102D900011F0DC01D3CFDA011396DC93CE931297B6
:102DA000FA0121913191E20FF31FCE17DF0769F489
:102DB00088819981280F391F2E5F3F4FFA01318397
:102DC00020838A819B8193838283E0E0F0E0DB01B2
:102DD00012968D919C911397009719F0BC01FD01FB
:102DE000F6CFAB014E5F5F4FDB018D919C91840F5D
:102DF000951F2091A7033091A8032817390779F46C
:102E0000309729F41092AA031092A90302C01382EA
:102E10001282425050405093A8034093A703DF9181
:102E2000CF9108951F920F920FB60F9211242F93F6
:102E30003F938F939F93AF93BF9380919002909114
:102E40009102A0919202B091930230919402019666
:102E5000A11DB11D232F2D5F2D3720F02D57019679
:102E6000A11DB11D20939402809390029093910232
:102E7000A0939202B093930280918C0290918D0264
:102E8000A0918E02B0918F020196A11DB11D809379
:102E90008C0290938D02A0938E02B0938F02BF910B
:102EA000AF919F918F913F912F910F900FBE0F90F7
:102EB0001F9018958FB7F89420919002309191024D
:102EC00040919202509193028FBFB901CA010895B7
:102ED0009FB7F89420918C0230918D0240918E0220
:102EE00050918F0286B5A89B06C08F3F21F02F5FBF
:102EF0003F4F4F4F5F4F9FBF542F432F322F2227FB
:102F0000280F311D411D511D82E0220F331F441F28
:102F1000551F8A95D1F7B901CA0108959B01AC01EB
:102F20007FB7F89480918C0290918D02A0918E02CF
:102F3000B0918F0266B5A89B05C06F3F19F001964E
:102F4000A11DB11D7FBFBA2FA92F982F8827860FEB
:102F5000911DA11DB11D62E0880F991FAA1FBB1F03
:102F60006A95D1F7BC012DC0FFB7F89480918C020F
:102F700090918D02A0918E02B0918F02E6B5A89B30
:102F800005C0EF3F19F00196A11DB11DFFBFBA2F7B
:102F9000A92F982F88278E0F911DA11DB11DE2E04A
:102FA000880F991FAA1FBB1FEA95D1F7861B970BA5
:102FB000885E9340C8F221503040404050406851F4
:102FC0007C4F211531054105510571F60895019792
:102FD00039F0880F991F880F991F02970197F1F711
:102FE0000895789484B5826084BD84B5816084BD81
:102FF00085B5826085BD85B5816085BDEEE6F0E072
:10300000808181608083E1E8F0E0108280818260CD
:103010008083808181608083E0E8F0E0808181604E
:103020008083E1E9F0E0808182608083808181603B
:103030008083E0E9F0E0808181608083E1ECF0E072
:1030400080818460808380818260808380818160D0
:103050008083E3ECF0E0808181608083E0ECF0E04D
:10306000808182608083E2ECF0E0808181608083F7
:10307000EAE7F0E0808184608083808182608083E1
:10308000808181608083808180688083089582311F
:1030900008F08251E82FF0E0E152FE4FE4912091D8
:1030A0007B008E2F86958695869590E08170907036
:1030B00035E0880F991F3A95E1F72F7D282B209353
:1030C0007B00E77080912F018295880F880F807CAC
:1030D0008E2B80937C0080917A00806480937A00AC
:1030E00080917A0086FDFCCF209178004091790094
:1030F000942F80E030E0282B392BC90108951F93CD
:10310000CF93DF93182FEB0161E00E9424192097E1
:1031100009F48FC0CF3FD10509F48EC0E12FF0E054
:10312000EF53FE4F8491883009F440C0893070F429
:10313000823019F1833020F4813009F077C018C053
:10314000833001F1843009F071C026C08B3009F45E
:103150004BC08C3030F4893099F18A3009F066C068
:1031600039C08C3009F44DC08E3009F05FC051C0B9
:1031700084B5806884BDC7BD63C084B5806284BDEA
:10318000C8BD5EC080918000806880938000D0932D
:103190008900C093880054C0809180008062809331
:1031A0008000D0938B00C0938A004AC08091900029
:1031B000806880939000D0939900C093980040C09D
:1031C00080919000806280939000D0939B00C09388
:1031D0009A0036C080919000886080939000D093D0
:1031E0009D00C0939C002CC08091C000806880939B
:1031F000C0008091C0008F7B8093C000C093CF003F
:103200001FC08091C00080628093C000C093D00036
:1032100017C08091C20088608093C2008091C20074
:103220008B7F8093C200C093D2000AC0C038D10502
:103230001CF4812F60E002C0812F61E00E94B1196F
:10324000DF91CF911F910895CF93DF93482F50E0E6
:10325000CA018D559E4FFC0134914B575E4FFA01C8
:103260008491882369F190E0880F991FFC01E55A49
:10327000FE4FA591B491FC01E759FE4FC591D49141
:10328000662351F42FB7F8948C91932F909589234E
:103290008C93888189230BC0623061F42FB7F89436
:1032A0008C91932F909589238C938881832B88838D
:1032B0002FBF06C09FB7F8948C91832B8C939FBF30
:1032C000DF91CF910895883071F1893068F48230B0
:1032D00031F1833020F4813009F042C01DC08330C9
:1032E00089F08430E9F512C08B3059F18C3028F424
:1032F0008930E9F08A30A1F51EC08C3031F18E3072
:1033000079F529C0809180008F7703C0809180007B
:103310008F7D80938000089584B58F7702C084B537
:103320008F7D84BD0895809190008F7707C0809134
:1033300090008F7D03C080919000877F80939000E4
:1033400008958091C0008F7703C08091C0008F7D69
:103350008093C00008958091C200877F8093C2004F
:103360000895FF920F931F93F62E482F50E0CA0145
:103370008F539E4FFC012491CA018D559E4FFC0135
:1033800014914B575E4FFA0104910023C9F0222398
:1033900019F0822F0E946319E02FF0E0EE0FFF1F5B
:1033A000E759FE4FA591B4919FB7F894FF2021F4FF
:1033B0008C911095812302C08C91812B8C939FBF9F
:1033C0001F910F91FF9008950F931F93482F50E086
:1033D000CA018F539E4FFC012491CA018D559E4F07
:1033E000FC0104914B575E4FFA011491112319F41B
:1033F00020E030E015C0222319F0822F0E946319CB
:10340000812F90E0880F991F89589E4FFC01A5914C
:10341000B4918C9120E030E0802311F021E030E085
:10342000C9011F910F9108958F929F92AF92BF9201
:10343000CF92DF92EF92FF920F931F93CF93DF9380
:10344000A82FB0E0CD018D559E4FFC018490AB5765
:10345000BE4FFD018491662311F4992401C0982C7C
:103460006FEFA62E6FEFB62E6FEFC62E6FE0D62E43
:10347000A222B322C422D522682F70E0660F771FE4
:1034800069587E4FEE24FF248701FB01A591B4917A
:103490000BC0EA14FB040C051D0509F44EC008948A
:1034A000E11CF11C011D111D8C918821891589F3E6
:1034B0000CC0EA14FB040C051D0509F43EC0089479
:1034C000E11CF11C011D111D03C0FB01A591B4916C
:1034D0008C918821891569F720E030E040E050E0C8
:1034E000FB01C591D4910FC0DA01C9018E0D9F1D5A
:1034F000A01FB11F8A159B05AC05BD05F1F02F5F1C
:103500003F4F4F4F5F4F88818821891569F3CA016A
:10351000B90125E130E040E050E00E9428279B01FE
:10352000AC01205F3F4F4F4F5F4F84E0569547956A
:10353000379527958A95D1F704C020E030E040E028
:1035400050E0B901CA01DF91CF911F910F91FF9017
:10355000EF90DF90CF90BF90AF909F908F900895A5
:1035600008952091D5023091D6028091D702909192
:10357000D802281B390B2F733070C9010895209190
:10358000D5023091D6028091D7029091D8022817A7
:10359000390719F42FEF3FEF09C0E091D702F091FE
:1035A000D802EB56FD4F8081282F30E0C9010895E5
:1035B0002091D5023091D6028091D7029091D80205
:1035C0002817390719F42FEF3FEF13C0E091D70206
:1035D000F091D802EB56FD4F20818091D702909157
:1035E000D80201968F7390709093D8028093D7027F
:1035F00030E0C90108951092DC021092DB0288EEDF
:1036000093E0A0E0B0E08093DD029093DE02A0930F
:10361000DF02B093E0028FE591E09093DA028093AD
:10362000D90208950F931F93DF93CF930F92CDB7D5
:10363000DEB78C01698380913701882369F083E0CC
:10364000BE016F5F7F4F41E050E00E94351F1816AA
:10365000190614F49C0107C081E090E0F8019383FF
:10366000828320E030E0C9010F90CF91DF911F915C
:103670000F91089583E00E940C1F0895CF93DF936C
:1036800012C082E00E94971E2FEF8F3F9207C9F071
:10369000E091D502F091D602EB56FD4F8083D09396
:1036A000D602C093D502C091D502D091D602219600
:1036B000CF73D0708091D7029091D802C817D907E4
:1036C00001F7DF91CF910895FC0180818E5F8083A7
:1036D00080E86BEE71E042E450E00E94B01E089575
:1036E000FC0181819081913A59F4813209F04CC0FA
:1036F00080E060E371E047E050E00E94B01E42C00D
:10370000913209F041C0803239F480E391E067E002
:1037100070E00E94F41E36C0823209F035C082810A
:10372000809337018091300190913101A091320155
:10373000B0913301805B9440A040B04019F5809176
:10374000370180FD12C087E797E7909301088093C7
:1037500000082BE088E190E00FB6F894A8958093DC
:1037600060000FBE209360000DC088E10FB6F89492
:1037700080936000109260000FBEA895109201081F
:103780001092000881E0089580E0089508951F9246
:103790000F920FB60F9211242F933F934F938F9355
:1037A0009F93EF93FF938091C80082FD1DC04091CD
:1037B000CE0020912703309128032F5F3F4F2F73B6
:1037C00030708091290390912A032817390771F0EE
:1037D000E0912703F0912803E951FD4F4083309396
:1037E00028032093270302C08091CE00FF91EF9120
:1037F0009F918F914F913F912F910F900FBE0F90FE
:103800001F901895E0917B03F0917C03E05CFF4FE3
:103810008191919120813181821B930B8F739070E4
:10382000892B11F00E94C61B08951F920F920FB6AC
:103830000F9211242F933F938F939F93EF93FF93B6
:1038400020916B0330916C0380916D0390916E0316
:103850002817390731F48091C9008F7D8093C90002
:1038600014C0E0916D03F0916E03E55DFC4F208183
:1038700080916D0390916E0301968F739070909379
:103880006E0380936D032093CE00FF91EF919F9183
:103890008F913F912F910F900FBE0F901F90189511
:1038A000AF92BF92DF92EF92FF920F931F93CF934D
:1038B000DF93EC017A018B01DD24403081EE580763
:1038C00080E0680780E0780711F0DD24D39491E070
:1038D000A92EB12CEC89FD89DD2069F0C50108A075
:1038E00002C0880F991F0A94E2F7808360E079E0B4
:1038F0008DE390E005C0108260E874E88EE190E00E
:10390000A80197010E946627215030404040504056
:10391000569547953795279580E12030380720F058
:10392000DD2011F0DD24D6CFE889F9893083EA89DA
:10393000FB89208319A2EE89FF89408121E030E0D4
:10394000C9010C8C02C0880F991F0A94E2F7482B1A
:103950004083EE89FF894081C9010D8C02C0880F28
:10396000991F0A94E2F7482B4083EE89FF89408132
:10397000C9010E8C02C0880F991F0A94E2F7482BE8
:103980004083EE89FF8980810F8C02C0220F331F94
:103990000A94E2F7209528232083DF91CF911F918D
:1039A0000F91FF90EF90DF90BF90AF900895DC01F2
:1039B0001C96ED91FC911D97E05CFF4F2191319198
:1039C00080819181281B390B2F733070C9010895B4
:1039D000DC011C96ED91FC911D97E05CFF4F20816E
:1039E0003181E054F040DF01AE5BBF4F8D919C917F
:1039F00011972817390719F42FEF3FEF07C08D9162
:103A00009C91E80FF91F8081282F30E0C9010895AB
:103A1000DC011C96ED91FC911D97E05CFF4F20812D
:103A20003181E054F040DF01AE5BBF4F8D919C913E
:103A300011972817390719F42FEF3FEF10C08D9118
:103A40009C911197E80FF91F20818D919C911197FE
:103A500001968F73907011969C938E9330E0C901FC
:103A60000895DC0191968C919197882339F05496B2
:103A7000ED91FC915597808186FFF9CF91961C922C
:103A80000895CF93DF93EC01EE85FF85E05CFF4F57
:103A900020813181E054F0402F5F3F4F2F73307011
:103AA000DF01AE5BBF4F8D919C91119728173907AD
:103AB000D1F3E05CFF4F80819181E054F040E80F4A
:103AC000F91F6083EE85FF85E05CFF4F3183208323
:103AD000EE89FF89208181E090E00F8C02C0880F81
:103AE000991F0A94E2F7282B208381E089A3EC89AF
:103AF000FD8980818064808381E090E0DF91CF91B7
:103B00000895109272031092710388EE93E0A0E082
:103B1000B0E08093730390937403A0937503B09304
:103B2000760381E791E09093700380936F0387EEB3
:103B300092E090937C0380937B038BE293E09093DD
:103B40007E0380937D038DEC90E0909380038093BF
:103B50007F038CEC90E0909382038093810388EC48
:103B600090E0909384038093830389EC90E090939A
:103B70008603809385038AEC90E09093880380937A
:103B800087038EEC90E090938A038093890384E00E
:103B900080938B0383E080938C0387E080938D0375
:103BA00085E080938E0381E080938F030895CF9307
:103BB000DF930E94F11789E993E00E94171F0E948A
:103BC0000808C2E0DCE10E949B072097E1F30E9415
:103BD000021CF9CFCF92DF92EF92FF920F931F93C7
:103BE000CF93DF937C016B018A01C0E0D0E00FC06E
:103BF000D6016D916D01D701ED91FC910190F0819D
:103C0000E02DC7010995C80FD91F015010400115BB
:103C1000110571F7CE01DF91CF911F910F91FF90A8
:103C2000EF90DF90CF900895EF92FF920F931F9344
:103C30008C01DC01ED91FC910190F081E02D6DE0B3
:103C400009957C01D801ED91FC910190F081E02D66
:103C5000C8016AE009959C012E0D3F1DC9011F9105
:103C60000F91FF90EF900895CF93DF93EC016115D2
:103C7000710519F420E030E00FC0DB010D90002049
:103C8000E9F71197A61BB70BE881F9810280F38150
:103C9000E02DAD0109959C01C901DF91CF910895F7
:103CA000EF92FF920F931F937C010E94341E8C01B0
:103CB000C7010E94141E080F191FC8011F910F9100
:103CC000FF90EF900895282F809193038823C1F0EF
:103CD00057FF1AC015C02898909392038091F10065
:103CE0008193E217F307B9F74115510539F0809137
:103CF000F200882319F48BE68093E800AFBF02C07E
:103D00004FEF5FEFCA010895AFB7F8942770209383
:103D1000E9008091F200282F30E0241735070CF4D9
:103D2000A901FB019B01240F311D94E6DACFDF933B
:103D3000CF930F92CDB7DEB7BE016F5F7F4F41E0EB
:103D400050E00E94631E019719F02FEF3FEF03C070
:103D50008981282F30E0C9010F90CF91DF9108951C
:103D6000FF920F931F93F82E142F052F4091960367
:103D700050919703212F302FC901DC01FB016EEF19
:103D800029C0F7FE02C0949101C090812091940354
:103D90003091950324173507ACF48091E8008570C5
:103DA000E1F38091E80082FF03C02FEF3FEF17C0DF
:103DB0009093F100C90101968F739070892B11F4D3
:103DC0006093E8002F5F3F4F309395032093940357
:103DD000119731961097A9F6812F902F9C01C90158
:103DE0001F910F91FF9008959C018091E80082FF40
:103DF000FCCFF901260F311D03C08091F1008193A2
:103E0000E217F307D1F7289884E6809392038BEFAB
:103E10008093E800CB0108958093E9008091F2003F
:103E2000882319F08AE38093E8000895089510929A
:103E3000930381E08093D70080EA8093D80082E1E9
:103E400089BD09B400FEFDCF61E070E080E090E044
:103E50000E948E1780E98093D8008CE08093E20066
:103E60001092E000559A209A08955F926F927F9287
:103E70008F929F92AF92BF92CF92DF92EF92FF927A
:103E80000F931F93CF93DF93E82E842E752E80918E
:103E90009303882371F18B01242F352FC901EC0185
:103EA0007AEFF72E67E0962E9E2050E4552E8E2D49
:103EB00090E040E2A42EB12CA822B9223AE3632E6E
:103EC00020E4C22ED12CC822D92258C09FB7F89422
:103ED0009092E9008091E80085FD02C020E004C0D6
:103EE0008091F200252D281B9FBF222361F4FA94B4
:103EF00019F42FEF3FEF4DC061E070E080E090E0FB
:103F00000E948E173BC0822F90E0C817D9070CF48F
:103F10002C2FC21BD1094FB7F8949092E900A1143D
:103F2000B10421F406C01092F10021502223D9F7E8
:103F300019C0E7FC03C0F801922F10C0C801322F4E
:103F400006C0FC010196E491E093F1003150332367
:103F5000C1F706C081918093F10091509923D1F768
:103F6000020F111D8091E80085FF05C0209729F4FC
:103F7000C114D10411F06092E8004FBF209709F0FE
:103F8000A5CF5D9884E680939103282D372DC90134
:103F90009C01C901DF91CF911F910F91FF90EF908C
:103FA000DF90CF90BF90AF909F908F907F906F9059
:103FB0005F9008951F920F920FB60F9211242F93C6
:103FC0003F934F935F936F937F938F939F93AF93A1
:103FD000BF93EF93FF938091E1001092E100982F3F
:103FE00083FF0FC01092E90081E08093EB001092F4
:103FF000EC0082E38093ED001092930388E08093BD
:10400000F00092FF34C083E08093E9008091F200D9
:10401000882319F08AE38093E8008FB7F89492E040
:104020009093E9009091F2008FBF992321F089EDE0
:1040300092E00E943E1B80919103882351F0809171
:10404000910381508093910380919103882309F417
:104050005D9A80919203882351F080919203815060
:104060008093920380919203882309F4289AFF9108
:10407000EF91BF91AF919F918F917F916F915F91E0
:104080004F913F912F910F900FBE0F901F90189559
:104090000F931F93DF93CF930F92CDB7DEB71982A3
:1040A0008E010F5F1F4FC8010E94641BC8010E9450
:1040B0002A23898190E00F90CF91DF911F910F917A
:1040C00008951F920F920FB60F921124EF92FF9254
:1040D0001F932F933F934F935F936F937F938F9390
:1040E0009F93AF93BF93EF93FF93DF93CF93CDB79E
:1040F000DEB76197DEBFCDBF1092E9008091E80086
:1041000083FF0FC1FE0131969E01275F3F4F03C021
:104110008091F1008193E217F307D1F7289884E6A4
:104120008093920382EF8093E800998197FF05C006
:104130008091E80080FFFCCF03C08EEF8093E80001
:10414000292F30E0C90180769070892B09F0C2C018
:104150008A81882329F41092F1001092F100D6C0D0
:10416000813009F4D3C0833009F4D0C0853049F4DC
:104170008091E80080FFFCCF8B8180688093E30012
:10418000C5C0863009F07CC01C81EF80F8841230F5
:10419000C1F51092E90010929503109294031092C9
:1041A0009703109296030E94482099E0FE013996E9
:1041B000DF01292F1D922A95E9F799871A8791E047
:1041C0009E8790E8988B9AEF998B20919403309179
:1041D0009503275F3F4F3C872B878D871092E9001F
:1041E0001092950310929403F0929703E092960335
:1041F00080E0BF0149E050E00E94B01E0E944820CC
:1042000085C01092E9001092950310929403F092E9
:104210009703E0929603123241F482E290E00E940A
:104220002223892B09F476C071C0113079F488E01B
:10423000E816F10419F481E08093980380919803C3
:10424000882309F06BC0EBE6F2E013C0133009F0ED
:1042500061C08B81882319F4EDE2F2E00AC082305C
:1042600019F4E1E3F2E005C0813009F053C0E3E561
:10427000F2E0449180E8BF0150E00E94B01E46C0C9
:10428000873009F447C0883021F481E08093F10041
:104290003DC08930D9F523703070232BD9F5E0E982
:1042A000F2E091E031E026E39093E9003093EB00F7
:1042B00084918093EC002093ED009F5F31969530C0
:1042C00099F78EE78093EA001092EA008B81809341
:1042D00093031CC08F8198851092E900109295037A
:1042E0001092940390939703809396038D81882373
:1042F00029F4CE0101960E94701B06C0823051F451
:10430000CE0101960E94F321882321F08EEF809345
:10431000E80007C081E28093EB0003C0EDE7F2E024
:10432000A8CF6196DEBFCDBFCF91DF91FF91EF9116
:10433000BF91AF919F918F917F916F915F914F91BD
:104340003F912F911F91FF90EF900F900FBE0F9014
:104350001F9018952F923F924F925F926F927F928B
:104360008F929F92AF92BF92CF92DF92EF92FF9285
:104370000F931F93DF93CF93CDB7DEB73B014C0173
:1043800019012A016D897E898F89988D6A197B09A7
:104390008C099D09621A730A840A950AA401930183
:1043A0000E942827E218F30804091509A8019701BB
:1043B0000E9488272A0D3B1D4C1D5D1DB901CA01B5
:1043C000CF91DF911F910F91FF90EF90DF90CF90F1
:1043D000BF90AF909F908F907F906F905F904F9025
:1043E0003F902F900895FC0191818081813A31F4B2
:1043F000913089F080E0933089F40DC0813269F406
:104400009B3021F482818093380105C09A3029F4D1
:1044100082818093390181E0089580E00895EF92D0
:10442000FF920F931F938C01E62EDC01ED91FC911E
:104430000480F581E02D0995F82ED801ED91FC91CD
:104440000680F781E02DC8016E2D09958F2D90E033
:104450001F910F91FF90EF90089510929A03109280
:104460009E0310929D0381E891E090939C038093BA
:104470009B030895EF92FF920F931F93DF93CF93C7
:104480000F92CDB7DEB789838B017A0184E0BE013C
:104490006F5F7F4F41E050E00E94351F84E4B80118
:1044A000A7010E94351F0F90CF91DF911F910F91AF
:1044B000FF90EF90089582E048E050E00E943A2299
:1044C0000895FC01168217821086118612861386C3
:1044D00014823496BF010E945B220895DC01683883
:1044E00010F0685829C0E62FF0E067FF13C0E058CD
:1044F000F04081E090E002C0880F991FEA95E2F752
:10450000809514962C911497282314962C93149725
:1045100060E012C0EE5EFC4F6491662319F420E067
:1045200030E01DC067FF08C014968C9114978D7FF2
:1045300014968C9314976F77FD0190E0662321F019
:104540008681861709F416829F5F31969630B1F7FF
:10455000CD011496BD010E945B2221E030E0C9012B
:104560000895CF93DF93DC01683810F0685825C0B8
:10457000E62FF0E067FF12C0E058F04081E090E0E5
:1045800002C0880F991FEA95E2F714962C911497B0
:10459000282B14962C93149760E00FC0EE5EFC4F0E
:1045A00064916623D9F167FF08C014968C91149723
:1045B000826014968C9314976F7716968C91169749
:1045C0008617A9F117968C911797861781F118967F
:1045D0008C911897861759F119968C91199786170F
:1045E00031F11A968C911A97861709F11B968C91C6
:1045F0001B978617E1F0ED01E0E0F0E09E2F8E8141
:10460000882321F4EA0FFB1F668306C09F5F319663
:104610002196E630F10591F7963049F481E090E07B
:1046200013969C938E93129720E030E007C0CD0143
:104630001496BD010E945B2221E030E0C901DF91A8
:10464000CF91089580E864E972E045E650E00E9469
:10465000B01E0895FC0180818F5F808380E869EF40
:1046600072E049E150E00E94B01E08955058BB2707
:10467000AA270ED000C2F1D130F0F6D120F031F4EB
:104680009F3F11F41EF4C1C10EF4E095E7FB8CC10D
:10469000E92F02D280F3BA176207730784079507E0
:1046A00018F071F49EF531C20EF4E0950B2EBA2F7E
:1046B000A02D0B01B90190010C01CA01A001112428
:1046C000FF27591B99F0593F50F4503E68F11A16D4
:1046D000F040A22F232F342F4427585FF3CF469565
:1046E00037952795A795F0405395C9F77EF41F1687
:1046F000BA0B620B730B840BBAF09150A1F0FF0F51
:10470000BB1F661F771F881FC2F70EC0BA0F621F3C
:10471000731F841F48F4879577956795B795F7952C
:104720009E3F08F0B3CF9395880F08F09927EE0FBE
:10473000979587950895DF93DD27B92FBF7740E8D8
:104740005FE31616170648075B0710F4D92FE8D168
:104750009F938F937F936F9399D2ECEAF0E058D1B7
:104760008AD12F913F914F915F91EDD1DD2349F097
:104770009058A2EA2AED3FE049EC5FE3D0785D274C
:1047800087DFDF9178C1ECD008F481E008950CD088
:1047900072C16AD140F061D130F021F45F3F19F06D
:1047A00003C15111B3C131C177D198F39923C9F332
:1047B0005523B1F3951B550BBB27AA276217730727
:1047C000840738F09F5F5F4F220F331F441FAA1FDB
:1047D000A9F333D00E2E3AF0E0E830D0915050409B
:1047E000E695001CCAF729D0FE2F27D0660F771F49
:1047F000881FBB1F261737074807AB07B0E809F02B
:10480000BB0B802DBF01FF2793585F4F2AF09E3FBF
:10481000510568F0C9C07AC15F3FECF3983EDCF304
:10482000869577956795B795F7959F5FC9F7880F38
:10483000911D9695879597F90895E1E0660F771F8A
:10484000881FBB1F621773078407BA0720F0621B1B
:10485000730B840BBA0BEE1F88F7E095089504D014
:104860006894B11153C108951FD188F09F5790F0FB
:10487000B92F9927B751A0F0D1F0660F771F881F85
:10488000991F1AF0BA95C9F712C0B13081F03DD125
:10489000B1E008953AC1672F782F8827B85F39F0C3
:1048A000B93FCCF3869577956795B395D9F73EF4E4
:1048B00090958095709561957F4F8F4F9F4F08958C
:1048C000E89409C097FB3EF49095809570956195AA
:1048D0007F4F8F4F9F4F9923A9F0F92F96E9BB2760
:1048E0009395F695879577956795B795F111F8CFDC
:1048F000FAF4BB0F11F460FF1BC06F5F7F4F8F4F47
:104900009F4F16C0882311F096E911C0772321F03C
:104910009EE8872F762F05C0662371F096E8862FD4
:1049200070E060E02AF09A95660F771F881FDAF72B
:10493000880F9695879597F90895D0D080F09F3786
:1049400040F491110EF0E2C060E070E080E89FEB6F
:10495000089526F41B16611D711D811D2BC045C0D5
:10496000990F0008550FAA0BE0E8FEEF1616170680
:10497000E807F907C0F012161306E407F50798F0E8
:10498000621B730B840B950B39F40A2661F0232B01
:10499000242B252B21F408950A2609F4A140A6957D
:1049A0008FEF811D811D089597F99F6780E870E062
:1049B00060E00895882371F4772321F09850872BC5
:1049C000762F07C0662311F499270DC09051862BCE
:1049D00070E060E02AF09A95660F771F881FDAF77B
:1049E000880F9695879597F908959F3F49F09150C4
:1049F00028F4869577956795B7959F5F80389F4F88
:104A0000880F9695879597F908959FEF80EC089504
:104A1000DF93CF931F930F93FF92EF92DF927B016F
:104A20008C01689405C0DA2EEF018DD0FE01E89468
:104A3000A5912591359145915591AEF3EF0128DE71
:104A4000FE019701A801DA9479F7DF90EF90FF90CB
:104A50000F911F91CF91DF91089500240A941616AB
:104A6000170618060906089500240A94121613065C
:104A7000140605060895092E0394000C11F48823EA
:104A800052F0BB0F40F4BF2B11F460FF04C06F5F06
:104A90007F4F8F4F9F4F089557FD9058440F551FDC
:104AA00059F05F3F71F04795880F97FB991F61F0B0
:104AB0009F3F79F087950895121613061406551F27
:104AC000F2CF4695F1DF08C0161617061806991F93
:104AD000F1CF86957105610508940895E5DFA0F092
:104AE000BEE7B91788F4BB279F3860F41616B11DCE
:104AF000672F782F8827985FF7CF869577956795EA
:104B0000B11D93959639C8F30895E894BB2766279D
:104B10007727CB0197F9089523DF08F48FEF0895E5
:104B20009B01AC0160E070E080E89FE330CE0BD0E9
:104B3000A2CF93DF28F098DF18F0952309F034CF47
:104B400064CF1124E3CFA8DFA0F3959FD1F3950F95
:104B500050E0551F629FF001729FBB27F00DB11D01
:104B6000639FAA27F00DB11DAA1F649F6627B00D91
:104B7000A11D661F829F2227B00DA11D621F739F7A
:104B8000B00DA11D621F839FA00D611D221F749F88
:104B90003327A00D611D231F849F600D211D822FCF
:104BA000762F6A2F11249F5750408AF0E1F0882316
:104BB0004AF0EE0FFF1FBB1F661F771F881F915023
:104BC0005040A9F79E3F510570F0EECE9FCF5F3F5A
:104BD000ECF3983EDCF3869577956795B795F79556
:104BE000E7959F5FC1F7FE2B880F911D96958795DE
:104BF00097F90895FA01EE0FFF1F30962105310550
:104C000099F16115710561F48038BFE39B0749F1A3
:104C100068949038810561F08038BFEF9B0741F0C0
:104C2000992342F5FF3FE1053105210511F1E89493
:104C30000894E795D901AA2329F4AB2FBE2FF85F7A
:104C4000D0F310C0FF5F70F4A695E0F7F73950F08D
:104C500019F0FF3A38F49F779F930CD00F9007FC20
:104C6000905808953EF0D1CE60E070E080E89FE378
:104C700008954FE79F775F934F933F932F9375D09E
:104C80002F913F914F915F9152DF08C09B01AC0182
:104C90004ECF19F40EF088CE38CFB7CE05DFC8F36B
:104CA0009638C0F707F80F92E8942BE33AEA48EBFE
:104CB0005FE74BDF0F920F920F924DB75EB70F92E7
:104CC00094D0E9EDF0E0A4DE4F915F91EF91FF9178
:104CD000E595EE1FFF1F49F0FE57E0684427EE0FF1
:104CE000441FFA95E1F74195550B06D00F9007FE4A
:104CF00017CF089559CE79CED7DEE8F39923D9F3AB
:104D0000940F511DBBF39150504094F059F08823FB
:104D100032F0660F771F881F91505040C1F79E3FB9
:104D2000510544F7880F911D9695879597F9089539
:104D30005F3FACF0983E9CF0BB27869577956795D2
:104D4000B79508F4B1609395C1F7BB0F58F711F40C
:104D500060FFE8CF6F5F7F4F8F4F9F4FE3CFD6CE7F
:104D60000EF043CE52CE68941FCE9EDEC8F3992338
:104D7000D1F3C6F3DF93CF931F930F93FF92C92F05
:104D8000DD2788232AF02197660F771F881FDAF71F
:104D900020E030E040E85FEB9FE3883920F0803E80
:104DA00030F021968F7763DCE1E0F1E003C05FDC57
:104DB000EEE2F1E02DDE8B01BE01EC01FB2E6F5720
:104DC00071097595771F880B990B7CDD28E132E717
:104DD00041E35FE3B8DEAF2D9801AE01FF900F9184
:104DE0001F91CF91DF9154DC46CEFA01DC01AA0F6E
:104DF000BB1F9B01AC01BF5728F422273327442750
:104E000050781FC0B75188F4AB2F002446953795D2
:104E10002795011CA395D2F3002069F0220F331FC0
:104E2000441FB395DAF30DD021CC61307105A0E8B1
:104E30008A07B94630F49B01AC016627772788279B
:104E40009078309621F020833183428353830895F4
:104E5000629FD001739FF001829FE00DF11D649F5E
:104E6000E00DF11D929FF00D839FF00D749FF00DEA
:104E7000659FF00D9927729FB00DE11DF91F639F8B
:104E8000B00DE11DF91FBD01CF0111240895991B3B
:104E900079E004C0991F961708F0961B881F7A9531
:104EA000C9F78095089597FB092E07260AD077FD4C
:104EB00004D049D006D000201AF4709561957F4F38
:104EC0000895F6F7909581959F4F0895A1E21A2EC7
:104ED000AA1BBB1BFD010DC0AA1FBB1FEE1FFF1F9E
:104EE000A217B307E407F50720F0A21BB30BE40BEE
:104EF000F50B661F771F881F991F1A9469F7609535
:104F00007095809590959B01AC01BD01CF010895EE
:104F100097FB092E05260ED057FD04D0D7DF0AD007
:104F2000001C38F450954095309521953F4F4F4FD8
:104F30005F4F0895F6F790958095709561957F4F36
:104F40008F4F9F4F0895AA1BBB1B51E107C0AA1F9B
:104F5000BB1FA617B70710F0A61BB70B881F991F1A
:104F60005A95A9F780959095BC01CD010895EE0F53
:104F7000FF1F0590F491E02D099413E0CCE9D3E0F4
:104F800004C0FE010E94B9272296CE39D107C9F785
:044F9000F894FFCFC3
:104F940041542B42415544380020D2873F0000B48D
:104FA40042FFFF0B1A0D1D1C1B01000E0F121314E0
:104FB40015161706070504E8038000AB030000017B
:104FC40000E100000000000001013F065B4F666D38
:104FD4007D077F6F777C395E7971BF86DBCFE6ED25
:104FE400FD87FFEFF7FCB9DEF9F140000000001285
:104FF4001BEA1DB11AD81ABF1A3A1B3E1B00000047
:1050040000411DEA1DD71C081DE81C311D000000CD
:0C501400000F22EA1DB1226E2261220072
:00000001FF
