:100000000C94BC000C94E4000C94E4000C94E40008
:100010000C94E4000C94E4000C94E4000C94E400D0
:100020000C94E4000C94E4000C94E4000C94E213AF
:100030000C94E4000C94E4000C94E4000C94E400B0
:100040000C94D5150C94E4000C94F4180C944219FB
:100050000C94E4000C94E4000C94E4000C94E40090
:100060000C94E4000C94E400084AD73B3BCE016EAC
:1000700084BCBFFDC12F3D6C74319ABD56833DDAFF
:100080003D00C77F11BED9E4BB4C3E916BAAAABE0E
:10009000000000803F07634236B79BD8A71A396833
:1000A0005618AEBAAB558C1D3CB7CC5763BD6DED41
:1000B000FD753EF6177231BF000000803F0800005A
:1000C00000BE922449123EABAAAA2ABECDCCCC4C8B
:1000D0003E00000080BEABAAAAAA3E00000000BFFE
:1000E000000000803F0000000000084178D3BB43BF
:1000F00087D1133D190E3CC3BD4282AD2B3E68EC47
:100100008276BED98FE1A93E4C80EFFFBE01C4FFCD
:100110007F3F000000000000000000240027002AAC
:100120000000000000250028002B00000000002334
:10013000002600290004040404040404040202024A
:100140000202020303030303030102040810204018
:1001500080010204081020010204081020000000A1
:100160000700020100000304060000000000000078
:1001700000001E01AE1A170111241FBECFEFD8E0F8
:10018000DEBFCDBF11E0A0E0B1E0E2EDF0E402C0DF
:1001900005900D92A236B107D9F713E0A2E6B1E0BF
:1001A00001C01D92A931B107E1F711E0C6E7D1E026
:1001B00004C02297FE010E945820C237D107C9F718
:1001C0000E94041B0C945C200C940000813091056B
:1001D00021F56F5F7F4F51F582E691E00E943E0D61
:1001E00084E791E00E94C20988E791E00E947F0DB8
:1001F0008AE891E00E94B90C87E991E00E94740FAF
:100200008BE991E00E94890985EA91E00E94660BE2
:1002100089EA91E00E945A0B0895892B39F46F5FA7
:100220007F4F21F48AE891E00E946E0C089580E0EF
:1002300090E06FEF7FEF0E94E600089581E090E08C
:100240006FEF7FEF0E94E60008951092B20183EFF6
:1002500092E00E94041A181619065CF481E080935B
:10026000B2011092B30183EF92E00E94351A80939D
:1002700020020895682F83EF92E00E946E1A08957D
:100280006093AE017093AF018093B0019093B10180
:100290008091AE010E943A018091AF010E943A0123
:1002A0008091B0010E943A018091B1010E943A010F
:1002B0000895EF92FF920F931F93CF93DF93EB017B
:1002C0008A01E22E8530910509F46FC086309105D0
:1002D000B4F48230910509F43FC0833091053CF4B9
:1002E000009709F4E2C0019709F001C123C08330EF
:1002F000910509F44CC0049709F0F9C048C0803159
:10030000910509F470C08131910544F4863091055E
:1003100009F4B7C00F9709F0EAC078C08E31910593
:1003200009F4CCC08F31910509F4D0C0419709F090
:10033000DEC085C087E991E00E948B0B90E08C17AE
:100340009D0729F087E991E06C2F0E94910B87E9C6
:1003500091E00E94650FC7C088E791E00E948B0B77
:1003600090E08C179D0741F488E791E00E948E0B86
:1003700090E08017910731F088E791E06C2F402FD3
:100380000E94590D88E791E00E94C70EAEC085EA31
:1003900091E00E948B0B90E08C179D07F9F085EAA5
:1003A00091E06C2F0E94910B19C085EA91E00E94A8
:1003B0008B0B90E08C179D0729F085EA91E06C2F5C
:1003C0000E94910B0130110529F485EA91E00E9409
:1003D000BE0B83C00230110509F089C085EA91E0A7
:1003E0000E94B90B7AC089EA91E00E948B0B90E0E1
:1003F0008C179D0729F089EA91E06C2F0E94910BE0
:1004000060911F0270E080E090E016C085EA91E004
:100410000E948B0B90E08C179D0729F085EA91E0F4
:100420006C2F0E94910B85EA91E00E94E90B90E00D
:10043000A0E0B0E0BC01CD010E94FF1C56C085EADF
:1004400091E00E948B0B90E08C179D0729F085EAC4
:1004500091E06C2F0E94910B85EA91E00E94FD0BC8
:10046000E82E85EA91E00E94E90BFF24EE0CFF1CC8
:10047000E80EF11C0027F7FC0095102FC801B7010A
:1004800032C00E94360A0130110519F40E94C609D3
:100490002CC00230110519F40E94D10926C0033086
:1004A000110529F50E94DC0920C0609109017091B5
:1004B0000A0180910B0190910C0117C0822F60E01E
:1004C0000E9471178E2D0E94041807C0822F60E0D1
:1004D0000E9471178E2D0E94EF16AA2797FDA095F6
:1004E000BA2FBC01CD010E94011D0E944001DF9185
:1004F000CF911F910F91FF90EF90089583EF92E0BD
:100500000E943D1B08952F923F924F925F926F92EF
:100510007F928F929F92AF92BF92CF92DF92EF9293
:10052000FF920F931F93DF93CF93CDB7DEB72F9733
:100530000FB6F894DEBF0FBECDBF10921E02909191
:10054000B301992319F08091EA0102C08091B601AC
:100550008230B9F1843009F473C3813009F09CC34F
:100560008FEF0E943A0185E50E943A018091B30124
:10057000882319F08091EE0102C08091BA010E9497
:100580003A018091B301882319F02091ED0102C056
:100590002091B90130E0882319F08091EC0102C06C
:1005A0008091B801B901E4E076956795EA95E1F7A5
:1005B000A9014F70507090E00E9459010E947E0284
:1005C0006BC3992319F08091EB0102C08091B701B0
:1005D000282F30E03D832C8374E0C72ED12C27C315
:1005E0001091B301112321F0F601E851FE4F03C031
:1005F000F601EC54FE4FE0812E2F30E0C60101964B
:10060000112321F0FC01E851FE4F03C0FC01EC5422
:10061000FE4F0081402F50E05A0164E0B694A79449
:100620006A95E1F76C010894C11CD11C2830310592
:1006300009F0BFC0F6013196112329F088EE91E050
:10064000C80ED91E04C024EB31E0C20ED31ED60161
:10065000BC91BB837F010894E11CF11C112319F0AC
:10066000E851FE4F02C0EC54FE4F608170E080E024
:1006700090E00E94FF1C6A877B878C879D87F7012B
:100680003196FA83E983112329F028EE31E0E20E56
:10069000F31E04C0E4EBF1E0EE0EFF1ED7016C91F7
:1006A00070E080E090E00E94FF1C6E837F8388876B
:1006B0009987112329F0E981FA81E851FE4F04C09E
:1006C000E981FA81EC54FE4F608170E080E090E0B7
:1006D0000E94FF1C1B012C018AE891E00E948B0BF9
:1006E00090E08A159B0529F08AE891E06A2D0E9426
:1006F000830CBB81BB2319F41F861E8646C0EB8189
:10070000E150EB836A857B858C859D850E94D31C97
:100710003B014C016E817F81888599850E94D31CA5
:100720005B016C01C201B1010E94D31C7B018C01F1
:100730008AE891E06B81462D2A2D0E2D0E94140C23
:100740002EC06A857B858C859D850E94D31C3B01CC
:100750004C016E817F81888599850E94D31C5B0145
:100760006C01C201B1010E94D31C7B018C018AE89B
:1007700091E06E85462D2A2D0E2D0E94140C2E859B
:100780003F852F5F3F4F3F872E878AE891E00E9489
:10079000110C90E0AE85BF85A817B90794F2C98007
:1007A000DA800894C11CD11C8AE891E00E943F0CB9
:1007B0003EC22A30310509F053C0D60111961123EB
:1007C00029F0E8EEF1E0CE0EDF1E04C024EB31E0AC
:1007D000C20ED31EF60160816093AE01FD01319619
:1007E000112319F0A851BE4F02C0AC54BE4F8C91DA
:1007F0008093AF01BF016F5F7F4F112319F0E85164
:10080000FE4F02C0EC54FE4F80818093B001112353
:1008100021F0FB01E851FE4F03C0FB01EC54FE4FF9
:10082000E0816B010894C11CD11CE093B101E09000
:10083000AE01F090AF010091B0011091B10184E7D9
:1008400091E06A2D0E94910BC801B7010E94CE1C55
:100850009B01AC0184E791E0B9010E948C09E7C1DA
:100860002930310509F054C0D6011196112319F031
:1008700028EE31E002C024EB31E0C20ED31EF601B7
:1008800060816093AE01FD013196112319F0A851EA
:10089000BE4F02C0AC54BE4F8C918093AF016F012C
:1008A0000894C11CD11C112319F0E851FE4F02C05D
:1008B000EC54FE4F80818093B001112321F0F601AA
:1008C000E851FE4F03C0F601EC54FE4FE081E09387
:1008D000B101E090AE01F090AF010091B001109134
:1008E000B1018BE991E00E948B0B90E08A159B058A
:1008F00029F08BE991E06A2D0E9465080894C11CDB
:10090000D11C8BE991E0B801A7010E94FF088FC1BB
:100910002B30310509F080C0D6011196112319F052
:1009200028EE31E002C024EB31E0C20ED31EF60106
:1009300060816093AE01FD013196112319F0A85139
:10094000BE4F02C0AC54BE4F8C918093AF016F017B
:100950000894C11CD11C112319F0E851FE4F02C0AC
:10096000EC54FE4F80818093B001112321F0F601F9
:10097000E851FE4F03C0F601EC54FE4FE0818A01BE
:100980000F701070E093B1018091AE019091AF01B2
:10099000A091B001B091B10180930D0190930E012F
:1009A000A0930F01B093100182E691E00E948B0B9F
:1009B00090E08A159B0541F482E691E00E948E0B3F
:1009C00090E08017910731F082E691E06A2D402F88
:1009D0000E941E0DE0900D01F0900E0100910F019C
:1009E00010911001C801B70120E030E040E050E074
:1009F0000E942B1E18161CF4C801B70103C0C801C1
:100A0000B70190580E94D31C0894C11CD11C82E6E7
:100A100091E00E94C60C0BC12330310509F05EC085
:100A2000D6011196112319F028EE31E002C024EB13
:100A300031E0C20ED31EF60160816093AE01FD016C
:100A40003196112319F0A851BE4F02C0AC54BE4FCD
:100A50008C918093AF017F010894E11CF11C11235C
:100A600019F0E851FE4F02C0EC54FE4F8081809394
:100A7000B001112321F0F701E851FE4F03C0F70147
:100A8000EC54FE4FE081E093B10185EA91E00E94D1
:100A90008B0B90E08A159B0529F085EA91E06A2D81
:100AA0000E94910B67010894C11CD11C10E0609159
:100AB000AE017091AF018091B0019091B10120E041
:100AC00030E040E85FE30E942B1E88230CF011E029
:100AD00085EA91E0612F0E94D60BA9C02E31310525
:100AE00009F053C0D6011196112319F028EE31E018
:100AF00002C024EB31E0C20ED31EF6016081609388
:100B0000AE01FD013196112319F0A851BE4F02C06C
:100B1000AC54BE4F8C918093AF01BF016F5F7F4F8C
:100B2000112319F0E851FE4F02C0EC54FE4F8081B2
:100B30008093B001112321F0FB01E851FE4F03C067
:100B4000FB01EC54FE4FE0816B010894C11CD11CE9
:100B5000E093B101802F61E00E94711710E0609175
:100B6000AE017091AF018091B0019091B10120E090
:100B700030E040E85FE30E942B1E88230CF011E078
:100B8000802F612F0E94B01752C02F513040223069
:100B9000310508F04CC0D6011196112319F028EE4A
:100BA00031E002C024EB31E0C20ED31EF6016081B9
:100BB0006093AE01FD013196112319F0A851BE4F8B
:100BC00002C0AC54BE4F8C918093AF01BF016F5FE8
:100BD0007F4F112319F0E851FE4F02C0EC54FE4F35
:100BE00080818093B001112321F0FB01E851FE4F79
:100BF00003C0FB01EC54FE4FE0816B010894C11C63
:100C0000D11CE093B101802F61E00E9471176091C7
:100C1000AE017091AF018091B0019091B1010E943D
:100C2000CE1C9B01AC01802FB9010E941117C60197
:100C300003972C813D81281739070CF0D1CC2CC0AB
:100C400084E791E069E00E94910B84E791E060E025
:100C500070E00E948C0984E791E06AE00E94910BA9
:100C600084E791E060E070E00E948C0984E791E005
:100C700061E00E94910B84E791E060E070E00E94E7
:100C80008C0984E791E062E00E94910B84E791E097
:100C900060E070E00E948C092F960FB6F894DEBFDA
:100CA0000FBECDBFCF91DF911F910F91FF90EF90BD
:100CB000DF90CF90BF90AF909F908F907F906F907C
:100CC0005F904F903F902F90089589EA91E00E94A5
:100CD000460B882371F089EA91E00E94350B1816C3
:100CE00019064CF489EA91E00E94020B80931F02DE
:100CF00002C010921F020E9425018091B201882338
:100D000009F44FC020912002253571F480911E0214
:100D1000882351F4809121028F3F31F581E0809347
:100D20001C0280931E0220C02093210280911E028B
:100D30008823D1F090911C02933019F420931D0266
:100D400007C0943028F080911D02815080931D02CD
:100D5000E92FF0E08091B301882319F0E851FE4FAC
:100D600002C0EC54FE4F208380911C028F5F809361
:100D70001C02843320F010921C0210921E028091FB
:100D80001E02882371F080911D02882351F4809106
:100D90001C02843030F010921E020E9483021092D6
:100DA0001C0208950F931F9303EF12E0C80140E85F
:100DB00055E260E070E00E947D1960ED77E080E030
:100DC00090E00E945116C80160E071E00E94791B1A
:100DD00068EE73E080E090E00E945116C80140E0A8
:100DE00052EC61E070E00E947D19C8010E943D1B39
:100DF00064E670E080E090E00E945116C8010E9415
:100E00003D1B1F910F9108952F923F924F925F9239
:100E10006F927F928F929F92AF92BF92CF92DF920A
:100E2000EF92FF920F931F93CF93DF931A012B0141
:100E3000E90137FD44C02196BE01882777FD8095E2
:100E4000982F21970E94011D9B01AC0160E070E08A
:100E500080E291E40E94991E5B016C01C201B10124
:100E6000A60195010E94661C0E943C1D3B014C019D
:100E7000BE01882777FD8095982F0E94011D9B0158
:100E8000AC0160E070E080E291E40E94991E7B0179
:100E90008C01C401B301A60195010E94361E9B017D
:100EA000AC01C201B1010E94D51BA80197010E94AB
:100EB000661C0E943C1D0E94CE1CCB011CC000275A
:100EC0001127021B130BC0E0D0E0C201B10120E0EA
:100ED00030E040E251E40E94361E1B012C012196B5
:100EE000C017D10794F30E94CE1CDC01CB016AE04D
:100EF00070E00E94F21FDF91CF911F910F91FF9040
:100F0000EF90DF90CF90BF90AF909F908F907F90A9
:100F10006F905F904F903F902F9008950F931F9385
:100F20008C01FC01808560E00E94B017F80181858A
:100F300060E00E94B017F801808561E00E94B01760
:100F4000F801818561E00E94B0171F910F9108950B
:100F50000F931F938C01FC01808561E00E94B01704
:100F6000F801818561E00E94B017F801818560E099
:100F70000E94B017F801808560E00E94B0171F91B1
:100F80000F910895FF920F931F93CF93DF93EC017E
:100F9000162FFF24888560E00E94B017012F1127CB
:100FA00007FD109500FF03C0898561E002C08985B7
:100FB00060E00E94B017888561E00E94B017F3944A
:100FC00088E0F81621F015950795102FE3CF888556
:100FD00060E00E94B017898561E00E94B0178885A3
:100FE00061E00E94B017898560E00E9471170BC014
:100FF0001F5F183C49F4898561E00E94711789855B
:1010000060E00E94B01710E089850E940418892BC7
:1010100079F7898561E00E947117DF91CF911F9167
:101020000F91FF9008950F931F93CF93DF93EC01DF
:10103000162F4F3711F400E007C0E42FFF27E7FD1C
:10104000F095E05DFE4F0081CE010E94A807CE0121
:1010500064E40E94C207CE010E948E07CE010E9466
:10106000A807106CCE01612F0E94C207CE01602F2D
:101070000E94C207CE010E948E07CE010E94A807DF
:10108000CE016E810E94C207CE010E948E07DF91C1
:10109000CF911F910F9108950F931F938C0160E0E2
:1010A0004FE70E941308C80161E04FE70E94130850
:1010B000C80162E04FE70E941308C80163E04FE7F0
:1010C0000E9413081F910F9108950F931F938C0195
:1010D000E62FDC0112966C931297F0E0EE0FFF1FE3
:1010E000EF5EFE4F818111968C93119790819C93B6
:1010F00018968C93189719969C9361E00E9471172B
:10110000F801818561E00E94711780E4D80114968E
:101110008C93149780EC15968C9315978AE8169605
:101120008C93C8010E944C081F910F9108950F9352
:101130001F93DF93CF9300D000D0CDB7DEB78C01E3
:1011400020E030E0AE014F5F5F4FFA01E20FF31F86
:10115000DB01A20FB31F8C9180832F5F3F4F2430A0
:10116000310599F7DA019E012B5F3F4FEC91EF3784
:1011700011F41C9207C0FF27E7FDF095E05DFE4FDC
:1011800080818C931196A217B30781F7C8010E9442
:10119000A807C80160E40E94C207C8010E948E0728
:1011A000C8010E94A807C801F80165810E94C20712
:1011B000C80169810E94C207C8016A810E94C207F2
:1011C000C8016B810E94C207C8016C810E94C207DE
:1011D000C8010E948E07C8010E94A807C801F80133
:1011E00066810E94C207C8010E948E070F900F906F
:1011F0000F900F90CF91DF911F910F9108952F9233
:101200003F924F925F926F927F929F92AF92BF9266
:10121000CF92DF92EF92FF920F931F93DF93CF93C2
:1012200000D000D0CDB7DEB73C017A018B01198226
:101230001A821B821C82CB01BA0120E030E040E020
:1012400050E00E94621C87FD03C0AA24BB2409C091
:1012500017FB109517F9109580E2898331E0A32ED2
:10126000B12CCC24DD24992423E0222E312C2E0114
:101270000894411C511C91012C193D09C301B8016E
:10128000A7010E940407181619063CF023E0C216B5
:10129000D10439F09920B1F00EC023E0C216D10478
:1012A00041F4F201EA0DFB1D805F80839924939441
:1012B00006C099249394F201EA0DFB1D80830894E3
:1012C000A11CB11C84E0A816B1043CF40894C11C14
:1012D000D11C27E0C216D10471F6C301BE016F5FB5
:1012E0007F4F0E9497080F900F900F900F90CF9113
:1012F000DF911F910F91FF90EF90DF90CF90BF9003
:10130000AF909F907F906F905F904F903F902F9005
:1013100008950E945D0B0895EF92FF920F931F9323
:10132000CF93DF93F82EE92EEB016F3F710519F093
:1013300014F0CFEFD0E08E018FEFC130D8071CF44E
:1013400001E01FEF0BC0D7FD09C08F2D9E2D61E07E
:101350000E94C30B8F2D9E2DBE010BC08F2D9E2D85
:1013600060E00E94C30B66277727601B710B8F2DEF
:101370009E2D0E94B40BDF91CF911F910F91FF9092
:10138000EF90089560E00E946F0B089520912A026B
:1013900030912B0240912C0250912D02B901CA01CB
:1013A0000895209126023091270240912802509101
:1013B0002902B901CA010895209122023091230225
:1013C0004091240250912502B901CA010895EF927B
:1013D000FF920F931F93E0902701F090280188E679
:1013E00065E746E026E00EE212E00E942C1290E053
:1013F00080912E02843309F491E0892F1F910F917F
:10140000FF90EF90089588E66BE646E020E00E94AA
:10141000F21108950F9388E66CE144E022E000E0C9
:101420000E94A8110F9108950F9388E66BE144E0A4
:1014300022E000E00E94A8110F9108950F9388E622
:101440006BE642E023E001E00E94A8110F910895AD
:1014500080E991E061E00E94780F0E941E0A0E94DC
:10146000140A0E940A0A0E94030A08956F927F924A
:101470008F929F92AF92BF92CF92DF92EF92FF92A4
:101480000F931F930E94E709882311F40E94280AF2
:10149000009127011091280188E66BE34EE02EE2CF
:1014A00032E00E9452117091300260E020913102CE
:1014B00030E0622B732B882777FD8095982F0E9450
:1014C000011D20E030E048EC52E40E94661C3B0124
:1014D0004C017091320260E02091330230E0622BC7
:1014E000732B882777FD8095982F0E94011D20E09F
:1014F00030E048EC52E40E94661C7B018C01709144
:101500003A0260E020913B0230E0622B732B882787
:1015100077FD8095982F0E94011D20E030E046EA7B
:1015200052E40E94D61B20E030E043E852E40E94DF
:10153000661C5B016C0170912E0260E020912F020D
:1015400030E0622B732B882777FD8095982F0E94BF
:10155000011D20E030E048EC52E40E94661CA80126
:1015600097010E94661C0E943A1C20E030E044E390
:1015700053E40E94361E2AED3FE049E450E40E9405
:10158000661C60932A0270932B0280932C02909326
:101590002D02C401B301A80197010E94661C0E949C
:1015A0003A1C20E030E044E353E40E94361E2AED6A
:1015B0003FE049E450E40E94661C60932602709369
:1015C00027028093280290932902C601B50120E0EA
:1015D00030E040E251E40E94661C60932202709366
:1015E000230280932402909325021F910F91FF9074
:1015F000EF90DF90CF90BF90AF909F908F907F90B3
:101600006F900895FC01848114820895EF92FF92F7
:101610001F93CF93DF937C01FC0181810E9404180A
:10162000892B11F010E01AC0C0E0D0E010E085E690
:1016300090E00E94AA16F70181810E9404180C2EE6
:1016400002C0880F991F0A94E2F7182B2196C83020
:10165000D10569F785E690E00E94AA16812FDF91F7
:10166000CF911F91FF90EF900895CF93DF93EC01FE
:101670000E94060B18161CF020E030E003C08C839B
:1016800021E030E0C901DF91CF9108950F931F93BE
:10169000182F092F0E948B0B882311F490E006C0AD
:1016A000812F902F0E94FD0B91E09827892F1F9189
:1016B0000F9108950E945D0B0895FC018091110126
:1016C000808380911201818312820895FC018091B0
:1016D0001101808380911201818312820895DC01BF
:1016E000E62FF0E0EE0FFF1FEF5EFE4F80818C9340
:1016F000818111968C93119712966C9381E080935F
:1017000080008BE08093810083E08093B00084E0D0
:101710008093B1000895FC0182810895FC018381CA
:101720000895DC01E62FF0E0EE0FFF1FEF5EFE4FA5
:1017300080818C93818111968C93119712966C9372
:101740000895DC01E62FF0E0EE0FFF1FEF5EFE4F85
:1017500080818C93818111968C93119712966C9352
:10176000129713964C930895FC0180810E941117E3
:101770000895FC0181810E94EF160895FC0180818B
:101780000E94EF160895FF920F931F938C01F62E7F
:10179000FC01818161E00E947117F80181816F2D48
:1017A0000E94B0171F910F91FF900895FF920F9321
:1017B0001F938C01F62EFC01808161E00E9471175D
:1017C000F80180816F2D0E94B0171F910F91FF903B
:1017D00008950F931F938C01FC01818160E00E94AA
:1017E0007117F80181810E94041820E0892B09F00B
:1017F00021E0822F1F910F9108950F931F938C0169
:10180000FC01808160E00E947117F80180810E94D4
:10181000041820E0892B09F021E0822F1F910F91FD
:101820000895FC01848108950F93DC01522F262F27
:1018300030E014968D919C9115972817390710F078
:1018400080E01BC083E0689F802D112490E01696F5
:10185000ED91FC911797E80FF91F50831696ED91C3
:10186000FC911797E80FF91F41831696ED91FC91B3
:101870001797E80FF91F028381E00F910895CF9326
:10188000DF93FC01C681D781848195819C01220F61
:10189000331F280F391F9485A085B1855FB7F89451
:1018A0008C91492F40954823982B11C0899168E06D
:1018B0009C9300C087FF4C93880F00C000C000C0FD
:1018C00008F44C9300C06A9599F7215030402115D7
:1018D000310561F75FBFDF91CF91089508950F93B0
:1018E0001F938C0170E0FC0175836483CB01880F2A
:1018F000991F860F971F0E94A014F8018683978373
:101900001F910F910895DC01E62F12966C931297A8
:10191000F0E0EE0FFF1FEF5EFE4F818111968C937A
:10192000119790819C93282F30E0F901E75BFE4FDF
:10193000E4911C96EC931C972B5C3E4FF90124918B
:1019400030E0220F331FF901EF5DFE4F45915491B6
:1019500019965C934E931897F901E95EFE4F259115
:1019600034911B963C932E931A9761E00E94711755
:1019700008950F931F938C0160E00E946F0BC801C4
:1019800064E00E946F0C1F910F910895AF92BF9277
:10199000CF92DF92EF92FF920F931F93CF93DF933B
:1019A000EC01162F6E830D9670E00E94F4128C816C
:1019B000882339F100D000D0612F70E080E090E002
:1019C00020ED37E040E050E0EDB7FEB721833283F1
:1019D0004383548320E030E040E050E0F4EBEF2E0E
:1019E000F12C012D112DE8EEAE2EE3E0BE2EC12C20
:1019F000D12C0E948C1B78876F830F900F900F90D3
:101A00000F90DF91CF911F910F91FF90EF90DF909A
:101A1000CF90BF90AF900895FC0114820D960E9464
:101A200088120895FC0165838AE5868381E08483BA
:101A3000CF010D9670E00E94DB1308950F931F9362
:101A4000CF93DF93EC01062F142F0E940C0D0A8315
:101A50001B83E02FF0E0EE0FFF1FEF5EFE4F818152
:101A6000898360816883113009F0682FCE010E945C
:101A7000120DDF91CF911F910F9108950F931F9336
:101A80008C010E945D0BC8010D960E946E12F80138
:101A900014828FEF85838AE586830E942B16F801D6
:101AA0006187728783879487118A108A1F910F91AB
:101AB00008951F93CF93DF93EC01142F0E94A10B85
:101AC000123011F4E98101C0E8812E2F30E0C90104
:101AD000875B9E4FFC0184918C832B5C3E4FF90108
:101AE0008491E82FF0E0EE0FFF1FE55DFE4F85913A
:101AF00094919E838D83DF91CF911F9108950E94D1
:101B00005D0B0895DF92EF92FF920F931F93FC01FC
:101B1000E08001811281F894F80181818E2981830E
:101B20008281DE2CD0948D21828383E090E00E941C
:101B3000AA16F80181818D21818382818E29828379
:101B40008AE090E00E94AA16F8010081789485E36B
:101B500090E00E94AA1680E010E0FF240E211F21D1
:101B6000012B09F081E01F910F91FF90EF90DF9022
:101B70000895EF92FF920F931F93CF93DF937C0111
:101B800001E010E0C0E0D0E0C7010E94820D8111A9
:101B9000102B000F2196C830D105B1F7812FDF91AE
:101BA000CF911F910F91FF90EF9008951F93CF93C6
:101BB000DF93FC011081C181D281912F909560FF4C
:101BC00012C0F8948A8189238A838981812B898331
:101BD0008AE090E00E94AA168A81812B8A837894F9
:101BE00087E390E011C0F8948A8189238A838981F0
:101BF000812B898381E490E00E94AA168A81812B3F
:101C00008A83789485E090E00E94AA16DF91CF91B4
:101C10001F910895CF92DF92EF92FF920F931F933F
:101C2000CF93DF93EC01E42EFF24F39400E010E067
:101C3000C62EDD2460E08F2D90E08C219D21892B24
:101C400009F061E0CE010E94D60DFF0C0F5F1F4F1F
:101C50000830110579F7EE20B1F4F894E981FA81A2
:101C600091818881809598239183E981FA8182818D
:101C70009881892B8283E981FA819281888180957C
:101C8000982392837894DF91CF911F910F91FF90C9
:101C9000EF90DF90CF9008956CEC40E00E940A0E28
:101CA0000895DF92EF92FF920F931F93CF93DF93EC
:101CB000FC010081C181D281F8948981D02ED09419
:101CC0008D2189838A81802B8A8378941DE7E02E79
:101CD000FF24115071F182E090E00E94AA168881E1
:101CE00090E08E219F21892BA1F3F8948A818D2188
:101CF0008A838981802B8983789480EE91E00E9489
:101D0000AA16F89489818D2189838A81802B8A8300
:101D100086E490E00E94AA16888110E090E0E82214
:101D2000F922EF2809F411E078948AE991E00E9401
:101D3000AA16812FDF91CF911F910F91FF90EF9005
:101D4000DF900895EF92FF920F931F93FC01E080C4
:101D500001811281F80181819E2D909589238183D3
:101D600082818E2982838AE090E00E94AA16F8017F
:101D7000808120E090E0FF248E219F21892B09F0B3
:101D800021E0822F1F910F91FF90EF900895AF9265
:101D9000BF92CF92DF92EF92FF920F931F93DF9348
:101DA000CF93CDB7DEB72C970FB6F894DEBF0FBE3A
:101DB000CDBF74E0E72EF12CE80EF91EC7010E949A
:101DC000510EC7010E944C0EC70164E440E00E941E
:101DD0000A0E0E941D165B016C01C7010E94A20E33
:101DE0008823C1F50E941D166A197B098C099D097B
:101DF0006E5E72408040904068F5EFCFC7010E9450
:101E0000B90DF80181938F01EC15FD05B9F77A81C1
:101E100060E0298130E0622B732B882777FD809565
:101E2000982F0E94011D20E030E040E85DE30E9411
:101E3000361E2C960FB6F894DEBF0FBECDBFCF91E5
:101E4000DF911F910F91FF90EF90DF90CF90BF90A7
:101E5000AF900895C7010E94510EC7010E944C0E19
:101E6000C7016EEB40E00E940A0E8E010F5F1F4F0C
:101E700066E0C62ED12CCC0EDD1EC0CF0F931F9373
:101E80008C0160E00E94C30B82E090E00E94AA16E1
:101E9000C80161E00E94C30B8AE090E00E94AA168C
:101EA000C80160E00E94C30BF801818160E00E94DC
:101EB0007117F801818161E020E533EC40E050E0EA
:101EC0000E9457181F910F9108950E943E0F2DE117
:101ED00030E040E050E00E94272055954795379527
:101EE0002795B901CA01089560E00E946F0B08951B
:101EF000FC011092BC00662319F088B1806302C017
:101F000088B18F7C88B91092B9009F01442737FDB2
:101F10004095542F60E87EE380E090E00E94272007
:101F20002051304040405040CA01B90122E030E029
:101F300040E050E00E9427202093B80084E0809386
:101F4000BC000895482F440F92E064EB54E860937E
:101F5000BC002AEF30E08091BC0087FD34C02150E6
:101F600030408FEF2F3F3807B1F727C08091B9007D
:101F7000887F883021F0803111F082E0089540930D
:101F8000BB005093BC002AEF30E08091BC0087FD7D
:101F90001EC0215030408FEF2F3F3807B1F70FC0E0
:101FA0008091B900887F803221F4992351F09150BB
:101FB000CECF883131F480E0089581E0089583E048
:101FC000089584E008951216130684F2F6CF1216CF
:101FD000130634F3F4CFEF92FF920F931F93162F53
:101FE000E42E022FF32E0E94A20F1093BB0084E870
:101FF0008093BC002AEF30E08091BC0087FD07C0D1
:10200000215030408FEF2F3F3807B1F703C0121631
:1020100013063CF0802F9F2D9C01F90190E044E8CD
:102020001CC08091B900F6CF80818093BB004093A3
:10203000BC002AEF30E08091BC0087FD07C0215032
:1020400030408FEF2F3F3807B1F705C01216130647
:1020500014F48091B9009F5F31969E1528F384E9AE
:102060008093BC002AEF30E08091BC0087FD06C061
:102070002115310519F021503040F6CF81E01F9134
:102080000F91FF90EF900895DF93CF930F92CDB70C
:10209000DEB7498341E09E012F5F3F4F0E94EB0F67
:1020A0000F90CF91DF9108951F93F82F122F72E0B8
:1020B000B4EBE82FEE7FA4E8B093BC002AEF30E049
:1020C0008091BC0087FDD0C0215030408FEF2F3F62
:1020D0003807B1F7B7C08091B900887F883021F008
:1020E000803111F091E1BDC0E093BB00A093BC0032
:1020F0002AEF30E08091BC0087FDBBC0215030400A
:102100008FEF2F3F3807B1F79FC09091B900987FAC
:10211000903229F4772309F499C07150CDCF9831CA
:1021200009F094C06093BB0084E88093BC002AEF60
:1021300030E08091BC0087FDA1C0215030408FEF7E
:102140002F3F3807B1F784C08091B900887F88326B
:1021500011F095E186C062E0A4EB7F2F7160E4E8A6
:10216000A093BC002AEF30E08091BC0087FD8BC0BB
:10217000215030408FEF2F3F3807B1F76BC080916F
:10218000B900887F883021F0803111F097E169C073
:102190007093BB00E093BC002AEF30E08091BC005C
:1021A00087FD76C0215030408FEF2F3F3807B1F7C1
:1021B00058C08091B900887F883429F4662309F4D7
:1021C0004BC06150CDCF803409F046C0FA0160E0C9
:1021D000412F50E041505040A4EC74E822C0862FBB
:1021E00090E08417950719F47093BC0002C0A09387
:1021F000BC002AEF30E08091BC0087FD4EC021502A
:1022000030408FEF2F3F3807B1F728C09091B900C9
:10221000987F903511F0983521F58091BB0081931E
:102220006F5F6117E0F284E98093BC002AEF30E031
:102230008091BC0087FD14C02115310589F0215023
:102240003040F6CF90E10DC092E10BC093E109C0A0
:1022500094E107C096E105C099E103C09AE101C08D
:1022600090E0892F1F910895121613060CF433CFB6
:10227000E9CF121613060CF448CFE6CF1216130658
:102280000CF462CFE5CF121613060CF478CFE2CF30
:10229000121613060CF48DCFE4CF121613060CF4AD
:1022A000B5CFDCCF7F928F929F92AF92BF92CF92A9
:1022B000DF92EF92FF920F931F93CF93DF93F82E4D
:1022C000E62E742E6901E8010E941D164B015C0187
:1022D0008F2D880F6E2DA601272D0E945410882364
:1022E00011F01FEF01C0172D2097C1F00E941D169D
:1022F000681979098A099B099E0140E050E062173C
:1023000073078407950750F0212F332727FD309559
:10231000872D90E0281739070CF41FEF812FDF91EC
:10232000CF911F910F91FF90EF90DF90CF90BF90D2
:10233000AF909F908F907F9008950F931F93FA0115
:10234000890141E09F010E9452111F910F91089550
:10235000DF92EF92FF920F931F93DF93CF930F9231
:10236000CDB7DEB7E82ED62EF42E122F20912701FE
:1023700030912801AE014F5F5F4F0E949D1188236D
:1023800041F1212F30E04F2D50E04F5F5F4F421B56
:10239000530B81E090E002C0880F991F1A95E2F775
:1023A0000197042E02C0880F991F0A94E2F7202F8C
:1023B00030E002C0220F331F4A95E2F7482F4095C4
:1023C000598145238223482B49838E2D6D2D0E94F0
:1023D00044100F90CF91DF911F910F91FF90EF90DC
:1023E000DF900895EF92FF920F931F93DF93CF93A7
:1023F0000F92CDB7DEB7F82EE62E042F122F2091C4
:10240000270130912801AE014F5F5F4F0E949D115F
:102410002981112351F081E090E002C0880F991FBB
:102420000A95E2F7422F482B0AC081E090E002C0F3
:10243000880F991F0A95E2F7482F40954223498358
:102440008F2D6E2D0E9444100F90CF91DF911F9120
:102450000F91FF90EF900895CF92DF92EF92FF924D
:102460000F931F93DF93CF930F92CDB7DEB7C42E98
:10247000D22E9701AE014F5F5F4F0E949D11682FD2
:10248000882309F18D2D90E04C2D50E04F5F5F4F78
:10249000481B590B21E030E002C0220F331FDA94B1
:1024A000E2F721503040042E02C0220F331F0A945D
:1024B000E2F78981822390E002C0959587954A953D
:1024C000E2F7F8018083862F0F90CF91DF911F9163
:1024D0000F91FF90EF90DF90CF900895FC018091D5
:1024E0003C028C3090F480838F5F80933C0281505B
:1024F00090E0FC01EE0FFF1FE80FF91FE35CFD4FBA
:1025000088EB9BE09283818308958FEF8083089509
:10251000DC018C9190E0FC01EE0FFF1FE80FF91F2A
:10252000E35CFD4F80818F7B80838C916CE00E9407
:10253000E61F90E0AC01440F551F480F591F440F90
:10254000551F440F551F20E030E0C901840F951F2F
:10255000FC01EE0FFF1FE80FF91FE35CFD4F8081C8
:1025600086FD05C02F5F3F4F2C30310571F7089570
:10257000FC0120812C30B8F58181992787FD909549
:1025800048E850E0481B590B440F551F440F551F96
:102590006417750784F08281992787FD909548E537
:1025A00052E0481B590B440F551F440F551F641729
:1025B00075070CF4AB0142505040CA01AA2797FDA1
:1025C000A095BA2F880F991FAA1FBB1F4FB7F89469
:1025D00030E0F901EE0FFF1FE20FF31FE35CFD4F48
:1025E000928381834FBF0895AF92BF92CF92DF92C3
:1025F000EF92FF920F931F93CF93DF93EC019B0118
:1026000082E0603278070CF048C077FF03C020E01A
:1026100030E005C0653B710514F024EB30E000D0DC
:1026200000D0B901882777FD8095982F298133271D
:1026300027FD3095E8E8AE2EB12CA21AB30AAA0CF9
:10264000BB1CAA0CBB1CCC24B7FCC094DC2CEA81BC
:10265000FF27E7FDF09528E532E02E1B3F0B220F08
:10266000331F220F331F442737FD4095542FEDB7FA
:10267000FEB7218332834383548320E030E040E07F
:1026800050E004EBE02EF12C012D112D0E948C1B4B
:102690009B010F900F900F900F90CE01B9010E94F7
:1026A000B812DF91CF911F910F91FF90EF90DF90C3
:1026B000CF90BF90AF900895CF92DF92EF92FF92AC
:1026C0001F93CF93DF93EC01162F7A016901888164
:1026D0008C3008F064C0862F61E00E9471178881F9
:1026E00090E0FC01EE0FFF1FE80FF91FE35CFD4FC8
:1026F0001F738081807C812B808380E292E08E1921
:102700009F0964E070E00E94F21F698380E699E00F
:102710008C199D0964E070E00E94F21F6A83A88111
:102720008A2F6CE00E94E61F682F70E0AB01440F17
:10273000551F460F571F440F551F440F551F20E0CC
:1027400030E0C901840F951FFC01EE0FFF1FE80F59
:10275000F91FE35CFD4F808186FD15C02F5F3F4F61
:102760002C30310571F724C01092800082E08093F4
:1027700081001092850010928400B19A80916F00C0
:10278000826080936F008A2F90E0FC01EE0FFF1FA4
:10279000E80FF91FE35CFD4F8081806480838881AE
:1027A000DF91CF911F91FF90EF90DF90CF90089530
:1027B000672BD1F2E8CF40E252E020E639E00E94F8
:1027C0005C1308951F920F920FB60F9211242F934E
:1027D0003F934F935F936F937F938F939F93AF93A9
:1027E000BF93EF93FF938091610287FF05C0109222
:1027F0008500109284002BC020916102332727FDB1
:10280000309580913C0290E02817390704F58091BB
:102810006102992787FD9095FC01EE0FFF1FE80FDD
:10282000F91FE35CFD4F808186FF11C0809161023A
:10283000992787FD9095FC01EE0FFF1FE80FF91F08
:10284000E35CFD4F80818F7360E00E94B017809140
:1028500061028F5F8093610220916102332727FD1F
:10286000309580913C0290E0281739070CF04EC05B
:10287000809161028C300CF049C02091840030912D
:10288000850080916102992787FD9095FC01EE0FEC
:10289000FF1FE80FF91FE35CFD4F81819281280F34
:1028A000391F309389002093880080916102992715
:1028B00087FD9095FC01EE0FFF1FE80FF91FE35C09
:1028C000FD4F808186FF2BC080916102992787FD93
:1028D0009095FC01EE0FFF1FE80FF91FE35CFD4F21
:1028E00080818F7361E00E94B01719C080E49CE979
:1028F00005C0809184009091850004969093890092
:10290000809388008FEF8093610209C080918400DA
:1029100090918500049680549C4940F3EACFFF9142
:10292000EF91BF91AF919F918F917F916F915F9147
:102930004F913F912F910F900FBE0F901F901895C0
:102940000F931F93CF93DF93BC018230910510F456
:1029500062E070E0E0911703F091180340E050E06E
:10296000A0E0B0E024C08081918186179707D0F065
:102970008617970771F482819381109729F0139637
:102980009C938E9312972CC09093180380931703F7
:1029900027C04115510519F08417950718F48D01CA
:1029A000AC01EF01DF01828193819C01F901309735
:1029B000D1F641155105F9F0CA01861B970B8430F9
:1029C000910580F48A819B810115110521F0F801A0
:1029D0009383828304C09093180380931703FE01AE
:1029E000329645C0FE01E80FF91F6193719302977B
:1029F000998388833CC08091150390911603892B9D
:102A000041F480912B0190912C01909316038093B7
:102A1000150340912D0150912E014115510541F4AE
:102A20004DB75EB78091290190912A01481B590B3F
:102A3000209115033091160324173507B0F4CA010D
:102A4000821B930B8617970780F0AB014E5F5F4F99
:102A50008417950750F0420F531F5093160340936D
:102A60001503F9016193719302C0E0E0F0E0CF013A
:102A7000DF91CF911F910F910895CF93DF939C0128
:102A8000009709F48FC0EC0122971B821A82609193
:102A90001703709118036115710581F4888199817C
:102AA000820F931F209115033091160328173907C1
:102AB00039F5D0931603C093150374C0DB0140E0D1
:102AC00050E0AC17BD0708F1BB83AA83FE0121913A
:102AD0003191E20FF31FAE17BF0779F48D919C91EE
:102AE0001197280F391F2E5F3F4F39832883129685
:102AF0008D919C9113979B838A834115510571F4A5
:102B0000D0931803C09317034DC012968D919C91DA
:102B10001397AD01009711F0DC01D3CFDA011396C2
:102B2000DC93CE931297FA0121913191E20FF31FBA
:102B3000CE17DF0769F488819981280F391F2E5F2E
:102B40003F4FFA01318320838A819B819383828363
:102B5000E0E0F0E0DB0112968D919C9113970097D5
:102B600019F0BC01FD01F6CFAB014E5F5F4FDB01F9
:102B70008D919C91840F951F209115033091160320
:102B80002817390779F4309729F410921803109216
:102B9000170302C013821282425050405093160312
:102BA00040931503DF91CF9108951F920F920FB6B6
:102BB0000F9211242F933F938F939F93AF93BF93C3
:102BC0008091660290916702A0916802B0916902BB
:102BD00030916A020196A11DB11D232F2D5F2D3763
:102BE00020F02D570196A11DB11D20936A028093FC
:102BF000660290936702A0936802B0936902809185
:102C0000620290916302A0916402B0916502019604
:102C1000A11DB11D8093620290936302A093640290
:102C2000B0936502BF91AF919F918F913F912F918A
:102C30000F900FBE0F901F9018958FB7F8942091AA
:102C400066023091670240916802509169028FBF1D
:102C5000B901CA0108959FB7F8942091620230919A
:102C60006302409164025091650286B5A89B06C03C
:102C70008F3F21F02F5F3F4F4F4F5F4F9FBF542F2C
:102C8000432F322F2227280F311D411D511D82E075
:102C9000220F331F441F551F8A95D1F7B901CA016E
:102CA00008959B01AC017FB7F894809162029091E6
:102CB0006302A0916402B091650266B5A89B05C04D
:102CC0006F3F19F00196A11DB11D7FBFBA2FA92F2B
:102CD000982F8827860F911DA11DB11D62E0880FD6
:102CE000991FAA1FBB1F6A95D1F7BC012DC0FFB762
:102CF000F8948091620290916302A0916402B09175
:102D00006502E6B5A89B05C0EF3F19F00196A11D2D
:102D1000B11DFFBFBA2FA92F982F88278E0F911DA5
:102D2000A11DB11DE2E0880F991FAA1FBB1FEA95E4
:102D3000D1F7861B970B885E9340C8F22150304034
:102D40004040504068517C4F2115310541055105E7
:102D500071F60895019739F0880F991F880F991F10
:102D600002970197F1F70895789484B5826084BD45
:102D700084B5816084BD85B5826085BD85B581607F
:102D800085BDEEE6F0E0808181608083E1E8F0E0DF
:102D90001082808182608083808181608083E0E80E
:102DA000F0E0808181608083E1EBF0E080818460ED
:102DB0008083E0EBF0E0808181608083EAE7F0E0EF
:102DC0008081846080838081826080838081816053
:102DD00080838081806880831092C1000895982F3D
:102DE0008E3008F09E50977080912F018295880F49
:102DF000880F807C892B80937C0080917A0080648E
:102E000080937A0080917A0086FDFCCF2091780033
:102E100040917900942F80E030E0282B392BC901B4
:102E200008951F93CF93DF93182FEB0161E00E9469
:102E30007117209709F44AC0CF3FD10509F449C062
:102E4000E12FF0E0E35AFE4F84918330C1F08430EB
:102E500028F4813051F08230B1F50CC0863019F180
:102E6000873049F1843079F514C084B5806884BD19
:102E7000C7BD33C084B5806284BDC8BD2EC08091FB
:102E80008000806880938000D0938900C093880080
:102E900024C080918000806280938000D0938B005A
:102EA000C0938A001AC08091B00080688093B000FF
:102EB000C093B30012C08091B00080628093B000D4
:102EC000C093B4000AC0C038D1051CF4812F60E063
:102ED00002C0812F61E00E94B017DF91CF911F9156
:102EE0000895CF93DF93482F50E0CA01875B9E4F30
:102EF000FC0134914B5C5E4FFA018491882369F1A7
:102F000090E0880F991FFC01E95EFE4FA591B491F6
:102F1000FC01EF5DFE4FC591D491662351F42FB7AC
:102F2000F8948C91932F909589238C938881892391
:102F30000BC0623061F42FB7F8948C91932F909569
:102F400089238C938881832B88832FBF06C09FB7EA
:102F5000F8948C91832B8C939FBFDF91CF91089530
:102F6000482F50E0CA01835A9E4FFC012491CA01A8
:102F7000875B9E4FFC0194914B5C5E4FFA0134914C
:102F8000332309F440C0222351F1233071F024305F
:102F900028F42130A1F0223011F514C02630B1F010
:102FA0002730C1F02430D9F404C0809180008F779D
:102FB00003C0809180008F7D8093800010C084B515
:102FC0008F7702C084B58F7D84BD09C08091B00029
:102FD0008F7703C08091B0008F7D8093B000E32F86
:102FE000F0E0EE0FFF1FEF5DFE4FA591B4912FB7FC
:102FF000F894662321F48C919095892302C08C91DA
:10300000892B8C932FBF0895682F70E0CB01835AD2
:103010009E4FFC012491CB01875B9E4FFC014491A4
:103020006B5C7E4FFB019491992319F420E030E012
:103030003CC0222351F1233071F0243028F4213098
:10304000A1F0223011F514C02630B1F02730C1F0C4
:103050002430D9F404C0809180008F7703C0809120
:1030600080008F7D8093800010C084B58F7702C070
:1030700084B58F7D84BD09C08091B0008F7703C077
:103080008091B0008F7D8093B000892F90E0880FF1
:10309000991F855D9E4FFC01A591B4918C9120E014
:1030A00030E0842311F021E030E0C90108958F92CF
:1030B0009F92AF92BF92CF92DF92EF92FF920F93C7
:1030C0001F93CF93DF93A82FB0E0CD01875B9E4F76
:1030D000FC018490AB5CBE4FFD018491662311F42A
:1030E000992401C0982C6FEFA62E6FEFB62E6FEFCC
:1030F000C62E6FE0D62EA222B322C422D522682F7C
:1031000070E0660F771F655D7E4FEE24FF24870118
:10311000FB01A591B4910BC0EA14FB040C051D053D
:1031200009F44EC00894E11CF11C011D111D8C9185
:103130008821891589F30CC0EA14FB040C051D05D0
:1031400009F43EC00894E11CF11C011D111D03C0CF
:10315000FB01A591B4918C918821891569F720E034
:1031600030E040E050E0FB01C591D4910FC0DA019E
:10317000C9018E0D9F1DA01FB11F8A159B05AC05AF
:10318000BD05F1F02F5F3F4F4F4F5F4F8881882182
:10319000891569F3CA01B90125E130E040E050E04A
:1031A0000E94C71F9B01AC01205F3F4F4F4F5F4FF5
:1031B00084E056954795379527958A95D1F704C0B1
:1031C00020E030E040E050E0B901CA01DF91CF914A
:1031D0001F910F91FF90EF90DF90CF90BF90AF9035
:1031E0009F908F90089508951F920F920FB60F929F
:1031F00011242F933F934F938F939F93EF93FF93BC
:103200008091C00082FD1DC04091C6002091AB029C
:103210003091AC022F5F3F4F2F7330708091AD0221
:103220009091AE022817390771F0E091AB02F0914E
:10323000AC02E559FD4F40833093AC022093AB02C2
:1032400002C08091C600FF91EF919F918F914F91A5
:103250003F912F910F900FBE0F901F901895E09106
:10326000FF02F0910003E05CFF4F8191919120817A
:103270003181821B930B8F739070892B11F00E9408
:10328000F31808951F920F920FB60F9211242F93E7
:103290003F938F939F93EF93FF932091EF02309191
:1032A000F0028091F1029091F2022817390731F46F
:1032B0008091C1008F7D8093C10014C0E091F10224
:1032C000F091F202E155FD4F20818091F102909141
:1032D000F20201968F7390709093F2028093F10244
:1032E0002093C600FF91EF919F918F913F912F9175
:1032F0000F900FBE0F901F901895AF92BF92DF9264
:10330000EF92FF920F931F93CF93DF93EC017A011B
:103310008B01DD24403081EE580780E0680780E0B3
:10332000780711F0DD24D39491E0A92EB12CEC891B
:10333000FD89DD2069F0C50108A002C0880F991F32
:103340000A94E2F7808360E079E08DE390E005C0C5
:10335000108260E874E88EE190E0A80197010E9475
:1033600005202150304040405040569547953795B4
:10337000279580E12030380720F0DD2011F0DD2492
:10338000D6CFE889F9893083EA89FB89208319A29D
:10339000EE89FF89408121E030E0C9010C8C02C038
:1033A000880F991F0A94E2F7482B4083EE89FF8922
:1033B0004081C9010D8C02C0880F991F0A94E2F761
:1033C000482B4083EE89FF894081C9010E8C02C0E1
:1033D000880F991F0A94E2F7482B4083EE89FF89F2
:1033E00080810F8C02C0220F331F0A94E2F72095D0
:1033F00028232083DF91CF911F910F91FF90EF90B1
:10340000DF90BF90AF900895DC011C96ED91FC9188
:103410001D97E05CFF4F2191319180819181281BA4
:10342000390B2F733070C9010895DC011C96ED91A2
:10343000FC911D97E05CFF4F20813181E054F0400A
:10344000DF01AE5BBF4F8D919C9111972817390713
:1034500019F42FEF3FEF07C08D919C91E80FF91FF2
:103460008081282F30E0C9010895DC011C96ED9180
:10347000FC911D97E05CFF4F20813181E054F040CA
:10348000DF01AE5BBF4F8D919C91119728173907D3
:1034900019F42FEF3FEF10C08D919C911197E80F19
:1034A000F91F20818D919C91119701968F739070D7
:1034B00011969C938E9330E0C9010895DC0191969A
:1034C0008C919197882339F05496ED91FC91559702
:1034D000808186FFF9CF91961C920895CF93DF9358
:1034E000EC01EE85FF85E05CFF4F20813181E054E7
:1034F000F0402F5F3F4F2F733070DF01AE5BBF4F47
:103500008D919C91119728173907D1F3E05CFF4FFB
:1035100080819181E054F040E80FF91F6083EE85CF
:10352000FF85E05CFF4F31832083EE89FF89208196
:1035300081E090E00F8C02C0880F991F0A94E2F797
:10354000282B208381E089A3EC89FD898081806418
:10355000808381E090E0DF91CF9108951092F60290
:103560001092F50288EE93E0A0E0B0E08093F702BD
:103570009093F802A093F902B093FA0285E591E0E6
:103580009093F4028093F3028BE692E09093000311
:103590008093FF028FEA92E09093020380930103ED
:1035A00085EC90E0909304038093030384EC90E017
:1035B000909306038093050380EC90E090930803BA
:1035C0008093070381EC90E090930A0380930903B2
:1035D00082EC90E090930C0380930B0386EC90E0D8
:1035E00090930E0380930D0384E080930F0383E098
:1035F0008093100387E08093110385E0809312038A
:1036000081E0809313030895CF93DF930E94B41653
:103610000E94D206CFE2D9E10E9465062097E1F32D
:103620000E942F19F9CFCF92DF92EF92FF920F9362
:103630001F93CF93DF937C016B018A01C0E0D0E040
:103640000FC0D6016D916D01D701ED91FC910190F4
:10365000F081E02DC7010995C80FD91F0150104016
:103660000115110571F7CE01DF91CF911F910F91D7
:10367000FF90EF90DF90CF900895EF92FF920F931D
:103680001F938C01DC01ED91FC910190F081E02D04
:103690006DE009957C01D801ED91FC910190F081DC
:1036A000E02DC8016AE009959C012E0D3F1DC9015E
:1036B0001F910F91FF90EF900895CF93DF93EC014E
:1036C0006115710519F420E030E00FC0DB010D90A9
:1036D0000020E9F71197A61BB70BE881F98102805A
:1036E000F381E02DAD0109959C01C901DF91CF91D6
:1036F0000895EF92FF920F931F937C010E945D1B30
:103700008C01C7010E943D1B080F191FC8011F91A2
:103710000F91FF90EF9008952F923F924F925F92FA
:103720006F927F928F929F92AF92BF92CF92DF92D1
:10373000EF92FF920F931F93DF93CF93CDB7DEB736
:103740003B014C0119012A016D897E898F89988D71
:103750006A197B098C099D09621A730A840A950A01
:10376000A40193010E94C71FE218F3080409150978
:10377000A80197010E9427202A0D3B1D4C1D5D1DAD
:10378000B901CA01CF91DF911F910F91FF90EF9086
:10379000DF90CF90BF90AF909F908F907F906F9071
:1037A0005F904F903F902F9008955058BB27AA27C5
:1037B0000ED000C2F1D130F0F6D120F031F49F3FAD
:1037C00011F41EF4C1C10EF4E095E7FB8CC1E92FA2
:1037D00002D280F3BA17620773078407950718F0BF
:1037E00071F49EF531C20EF4E0950B2EBA2FA02D88
:1037F0000B01B90190010C01CA01A0011124FF279E
:10380000591B99F0593F50F4503E68F11A16F04098
:10381000A22F232F342F4427585FF3CF4695379597
:103820002795A795F0405395C9F77EF41F16BA0B5C
:10383000620B730B840BBAF09150A1F0FF0FBB1F0A
:10384000661F771F881FC2F70EC0BA0F621F731F53
:10385000841F48F4879577956795B795F7959E3FB0
:1038600008F0B3CF9395880F08F09927EE0F97953E
:1038700087950895DF93DD27B92FBF7740E85FE391
:103880001616170648075B0710F4D92FE8D19F9347
:103890008F937F936F9399D2E8E6F0E058D18AD165
:1038A0002F913F914F915F91EDD1DD2349F09058D9
:1038B000A2EA2AED3FE049EC5FE3D0785D2787DF9D
:1038C000DF9178C1ECD008F481E008950CD072C18A
:1038D0006AD140F061D130F021F45F3F19F003C1AB
:1038E0005111B3C131C177D198F39923C9F355234D
:1038F000B1F3951B550BBB27AA27621773078407E3
:1039000038F09F5F5F4F220F331F441FAA1FA9F398
:1039100033D00E2E3AF0E0E830D091505040E6958A
:10392000001CCAF729D0FE2F27D0660F771F881FEB
:10393000BB1F261737074807AB07B0E809F0BB0BDA
:10394000802DBF01FF2793585F4F2AF09E3F5105FE
:1039500068F0C9C07AC15F3FECF3983EDCF386950E
:1039600077956795B795F7959F5FC9F7880F911D74
:103970009695879597F90895E1E0660F771F881F60
:10398000BB1F621773078407BA0720F0621B730B13
:10399000840BBA0BEE1F88F7E095089504D0689465
:1039A000B11153C108951FD188F09F5790F0B92FDE
:1039B0009927B751A0F0D1F0660F771F881F991F84
:1039C0001AF0BA95C9F712C0B13081F03DD1B1E01B
:1039D00008953AC1672F782F8827B85F39F0B93F2B
:1039E000CCF3869577956795B395D9F73EF4909586
:1039F0008095709561957F4F8F4F9F4F0895E89404
:103A000009C097FB3EF490958095709561957F4F26
:103A10008F4F9F4F9923A9F0F92F96E9BB279395D4
:103A2000F695879577956795B795F111F8CFFAF4E4
:103A3000BB0F11F460FF1BC06F5F7F4F8F4F9F4F15
:103A400016C0882311F096E911C0772321F09EE873
:103A5000872F762F05C0662371F096E8862F70E0D9
:103A600060E02AF09A95660F771F881FDAF7880FB3
:103A70009695879597F90895D0D080F09F3740F4B8
:103A800091110EF0E2C060E070E080E89FEB0895D5
:103A900026F41B16611D711D811D2BC045C0990F99
:103AA0000008550FAA0BE0E8FEEF16161706E80708
:103AB000F907C0F012161306E407F50798F0621B29
:103AC000730B840B950B39F40A2661F0232B242BFE
:103AD000252B21F408950A2609F4A140A6958FEF1D
:103AE000811D811D089597F99F6780E870E060E06F
:103AF0000895882371F4772321F09850872B762F2F
:103B000007C0662311F499270DC09051862B70E0F1
:103B100060E02AF09A95660F771F881FDAF7880F02
:103B20009695879597F908959F3F49F0915028F40D
:103B3000869577956795B7959F5F80389F4F880FDB
:103B40009695879597F908959FEF80EC0895DF93F8
:103B5000CF931F930F93FF92EF92DF927B018C0123
:103B6000689405C0DA2EEF018DD0FE01E894A5918E
:103B70002591359145915591AEF3EF0128DEFE0177
:103B80009701A801DA9479F7DF90EF90FF900F91F9
:103B90001F91CF91DF91089500240A9416161706FD
:103BA00018060906089500240A941216130614062E
:103BB00005060895092E0394000C11F4882352F091
:103BC000BB0F40F4BF2B11F460FF04C06F5F7F4F49
:103BD0008F4F9F4F089557FD9058440F551F59F030
:103BE0005F3F71F04795880F97FB991F61F09F3FEA
:103BF00079F087950895121613061406551FF2CF13
:103C00004695F1DF08C0161617061806991FF1CF62
:103C100086957105610508940895E5DFA0F0BEE77B
:103C2000B91788F4BB279F3860F41616B11D672FAB
:103C3000782F8827985FF7CF869577956795B11D80
:103C400093959639C8F30895E894BB27662777279C
:103C5000CB0197F9089523DF08F48FEF08959B01B6
:103C6000AC0160E070E080E89FE330CE0BD0A2CFE3
:103C700093DF28F098DF18F0952309F034CF64CF54
:103C80001124E3CFA8DFA0F3959FD1F3950F50E067
:103C9000551F629FF001729FBB27F00DB11D639FFE
:103CA000AA27F00DB11DAA1F649F6627B00DA11DA4
:103CB000661F829F2227B00DA11D621F739FB00D4A
:103CC000A11D621F839FA00D611D221F749F3327BA
:103CD000A00D611D231F849F600D211D822F762F53
:103CE0006A2F11249F5750408AF0E1F088234AF050
:103CF000EE0FFF1FBB1F661F771F881F915050409C
:103D0000A9F79E3F510570F0EECE9FCF5F3FECF3D9
:103D1000983EDCF3869577956795B795F795E79587
:103D20009F5FC1F7FE2B880F911D9695879597F998
:103D30000895FA01EE0FFF1F30962105310599F124
:103D40006115710561F48038BFE39B0749F1689400
:103D50009038810561F08038BFEF9B0741F09923CF
:103D600042F5FF3FE1053105210511F1E894089482
:103D7000E795D901AA2329F4AB2FBE2FF85FD0F322
:103D800010C0FF5F70F4A695E0F7F73950F019F016
:103D9000FF3A38F49F779F930CD00F9007FC905810
:103DA00008953EF0D1CE60E070E080E89FE3089592
:103DB0004FE79F775F934F933F932F9375D02F914A
:103DC0003F914F915F9152DF08C09B01AC014ECFF4
:103DD00019F40EF088CE38CFB7CE05DFC8F3963889
:103DE000C0F707F80F92E8942BE33AEA48EB5FE755
:103DF0004BDF0F920F920F924DB75EB70F9294D098
:103E0000E5E9F0E0A4DE4F915F91EF91FF91E59538
:103E1000EE1FFF1F49F0FE57E0684427EE0F441FD6
:103E2000FA95E1F74195550B06D00F9007FE17CF95
:103E3000089559CE79CED7DEE8F39923D9F3940FBC
:103E4000511DBBF39150504094F059F0882332F04B
:103E5000660F771F881F91505040C1F79E3F510554
:103E600044F7880F911D9695879597F908955F3FC0
:103E7000ACF0983E9CF0BB27869577956795B795F3
:103E800008F4B1609395C1F7BB0F58F711F460FFC8
:103E9000E8CF6F5F7F4F8F4F9F4FE3CFD6CE0EF0AF
:103EA00043CE52CE68941FCE9EDEC8F39923D1F341
:103EB000C6F3DF93CF931F930F93FF92C92FDD2794
:103EC00088232AF02197660F771F881FDAF720E0F2
:103ED00030E040E85FEB9FE3883920F0803E30F02F
:103EE00021968F7763DCEDEBF0E003C05FDCEAEE58
:103EF000F0E02DDE8B01BE01EC01FB2E6F57710946
:103F00007595771F880B990B7CDD28E132E741E33B
:103F10005FE3B8DEAF2D9801AE01FF900F911F91C6
:103F2000CF91DF9154DC46CEFA01DC01AA0FBB1F12
:103F30009B01AC01BF5728F4222733274427507830
:103F40001FC0B75188F4AB2F0024469537952795AD
:103F5000011CA395D2F3002069F0220F331F441FE8
:103F6000B395DAF30DD021CC61307105A0E88A0752
:103F7000B94630F49B01AC016627772788279078F3
:103F8000309621F020833183428353830895629FCA
:103F9000D001739FF001829FE00DF11D649FE00D41
:103FA000F11D929FF00D839FF00D749FF00D659FA2
:103FB000F00D9927729FB00DE11DF91F639FB00DA1
:103FC000E11DF91FBD01CF0111240895991B79E06E
:103FD00004C0991F961708F0961B881F7A95C9F799
:103FE0008095089597FB092E07260AD077FD04D007
:103FF00049D006D000201AF4709561957F4F08953E
:10400000F6F7909581959F4F0895A1E21A2EAA1B6D
:10401000BB1BFD010DC0AA1FBB1FEE1FFF1FA21778
:10402000B307E407F50720F0A21BB30BE40BF50B75
:10403000661F771F881F991F1A9469F760957095FE
:10404000809590959B01AC01BD01CF01089597FB30
:10405000092E05260ED057FD04D0D7DF0AD0001C4C
:1040600038F450954095309521953F4F4F4F5F4F15
:104070000895F6F790958095709561957F4F8F4FD5
:104080009F4F0895AA1BBB1B51E107C0AA1FBB1F6E
:10409000A617B70710F0A61BB70B881F991F5A95D4
:1040A000A9F780959095BC01CD010895EE0FFF1FF3
:1040B0000590F491E02D099411E0C6E7D1E004C029
:1040C000FE010E9458202296C837D107C9F7F894FC
:0240D000FFCF20
:1040D20041542B42415544380020D2873F0000B45E
:1040E20042FFFF0B0A03090C0D0802FFFF1011FF2C
:1040F2000FFF0E06070504E8038000190300000104
:104102003F065B4F666D7D077F6F777C395E797105
:10411200BF86DBCFE6EDFD87FFEFF7FCB9DEF9F1F5
:1041220040000000006E1A131B041A351A151A5E9D
:024132001A0071
:00000001FF
