:100000000C9464000C948C000C948C000C948C0068
:100010000C948C000C948C000C948C000C948C0030
:100020000C948C000C948C000C948C000C948C0020
:100030000C948C000C948C000C948C000C948C0010
:100040000C94AA0C0C948C000C94990F0C94E70F50
:100050000C948C000C948C000C948C000C948C00F0
:100060000C948C000C948C000000000024002700ED
:100070002A0000000000250028002B0000000000DE
:1000800023002600290004040404040404040202DA
:100090000202020203030303030301020408102007
:1000A0004080010204081020010204081020000012
:1000B0000007000201000003040600000000000029
:1000C000000039015311320111241FBECFEFD8E0D7
:1000D000DEBFCDBF11E0A0E0B1E0EAE8FAE202C085
:1000E00005900D92AE37B107D9F712E0AEE7B1E057
:1000F00001C01D92AD39B107E1F710E0C6ECD0E0C8
:1001000004C02297FE010E94FD14C23CD107C9F72A
:100110000E94A9110C9438150C940000A0E0B0E0E6
:10012000E4E9F0E00C940915EC01A880B980CA80DC
:10013000DB80A114B104C104D10441F484E2A82EEF
:1001400089EDB82E8BE5C82E87E0D82EC601B50103
:100150002DE133EF41E050E00E94CC1427EA31E476
:1001600040E050E00E9478147B018C01C601B5018B
:100170002DE133EF41E050E00E94CC14CA01B901F7
:100180002CEE34EF4FEF5FEF0E9478146E0D7F1D61
:10019000801F911F97FF04C06150704080409048BD
:1001A000688379838A839B839B01AC015F77B90164
:1001B000CA01CDB7DEB7EAE00C9425150E948E0087
:1001C000089580E091E00E948E0008956093000100
:1001D0007093010180930201909303010895CF92DF
:1001E000EF920F938130910581F56F5F7F4FB1F5ED
:1001F00020913C0120937E0110927F0140913D01AE
:10020000409380011092810182E891E061E004E076
:1002100035E0E32ECC24C3940E94770986EC91E06C
:1002200063E00E9400058AEC91E066E041E00E94F4
:100230007D0487ED91E066E042E00E94DC038BEDF7
:1002400091E069E00E94BD0309C0892B39F46F5F1A
:100250007F4F21F48AEC91E00E9468040F91EF90A7
:10026000CF90089580E090E06FEF7FEF0E94EF0065
:10027000089581E090E06FEF7FEF0E94EF00089516
:100280009F92AF92BF92CF92DF92EF92FF920F9325
:100290001F93CF93DF93182F962EA42EB22EC82E25
:1002A000DD24C0E0D0E0760114C0612F6C0F8AEC31
:1002B00091E040E020E000E00E940E048AEC91E032
:1002C0000E94390461E070E080E090E00E94180D27
:1002D0002196CE018E0D9F1D0F973CF3C0E0D0E01C
:1002E00013C08AEC91E06C2F492D2A2D0B2D0E9412
:1002F0000E048AEC91E00E94390461E070E080E035
:1003000090E00E94180D2196CC15DD0554F3DF9185
:10031000CF911F910F91FF90EF90DF90CF90BF9002
:10032000AF909F9008950F931F93209136013091C5
:100330003701C90101970F9708F040C0809138013B
:1003400090913901289FA001299F500D389F500D91
:100350001124662757FD6095762F82E891E00E9470
:100360008E0682E891E00E944C0B8823D1F761E071
:1003700070E080E090E022E330E040E050E00E9456
:10038000DA11062F61E070E080E090E022E330E0D7
:1003900040E050E00E94DA11162F61E070E080E04A
:1003A00090E022E330E040E050E00E94DA11262F96
:1003B00080913601602F412F0E9440011F910F91C3
:1003C000089586EC91E00E94F1047093E10160933E
:1003D000E0016115710559F16634710544F5CB01F1
:1003E0006AE070E00E949714675F7F4F7093370157
:1003F000609336018091E2019091E30168177907DB
:10040000B1F081E090E09093E5018093E4010E94D7
:10041000930180913601909137019093E30180938D
:10042000E20161E070E080E090E00E94180D089524
:100430001092E5011092E40186E061E00E94160E40
:1004400086E063E770E00E94B60D67E370E080E04D
:1004500090E00E94180D86E060E070E00E94B60D0A
:1004600086E060E00E94160E0895EF92FF920F93CF
:100470001F9382E891E00E9409057B018C0182E8CC
:1004800091E00E940305E61AF70A080B190B1E14E7
:100490001F04100611065CF482E891E00E94090531
:1004A0007B018C0182E891E00E9403050AC082E88A
:1004B00091E00E9403057B018C0182E891E00E949B
:1004C0000905C701861B970B41F48091E4019091C7
:1004D000E501892B11F00E9418021F910F91FF90E6
:1004E000EF900895CF93DF93C4E0D1E01AC099272D
:1004F00087FD9095909581959F4F805C9F4F90933D
:10050000370180933601409739F468EC70E080E061
:1005100090E00E94180D04C00E9493010E941802EE
:1005200021968881882319F7DF91CF91089582E879
:1005300091E040E050E06AEF73E40E94AF0682E889
:1005400091E040E050E66AE676E40E947A0A82E8AA
:1005500091E040E050E060E070E00E940F0582E82A
:1005600091E00E944C0B8FE062E00E94160E82E840
:1005700091E040EF58ED6FEF7FEF0E948E0682E82A
:1005800091E00E944C0B882329F08FE00E94A90E75
:10059000892B61F164E670E080E090E00E94180D24
:1005A00082E891E00E944C0B882329F08FE00E94A2
:1005B000A90E892BD9F060ED77E080E090E00E94F1
:1005C000180D82E891E040E050E060E070E00E94A9
:1005D0000F0582E891E00E944C0B82E891E048E22E
:1005E00050E060E070E00E948E0609C082E891E071
:1005F0000E944C0BC4CF82E891E00E944C0B82E831
:1006000091E00E940905683271058105910599F70D
:1006100082E891E00E94F20882E891E040E050E434
:100620006CE176E40E94AF0682E891E040E050E49D
:100630006CE176E40E947A0A82E891E040E550E0BD
:1006400060E070E00E940F0582E891E00E944C0B90
:10065000089587E792E00E94A910892BB1F187E7FE
:1006600092E00E94DA10982F8D3421F481E080937B
:10067000DF0108958E3419F41092DF01089582315C
:100680007CF480E1891B992787FD90959093370131
:100690008093360181E090E09093E5018093E4013E
:1006A00020913601309137018091E2019091E30170
:1006B0002817390751F00E949301809136019091DB
:1006C00037019093E3018093E20108958091DF0167
:1006D000882311F00E94E1010E9429030E94350243
:1006E00062E370E080E090E00E94180D08950F939F
:1006F0001F930AEC11E0C8016FE00E9469048FE0CB
:1007000060E040E020E00E944001C8010E943904FE
:100710000E94970287E061E00E94160E86E061E089
:100720000E94160E87E061E00E94550E86E060E0B0
:1007300070E00E94B60D86E060E00E94160E81E037
:1007400064E640E020E00E944001C8010E943904B4
:100750000E94180268E873E180E090E00E94180DA2
:100760000E94720287E792E040E855E260E070E0A4
:100770000E9422101F910F9108950E94C0030895B6
:10078000DC01E62FF0E0EE0FFF1FE65CFE4F8081FC
:100790008C93818111968C93119712966C9381E0C2
:1007A000809380008BE08093810083E08093B00091
:1007B00084E08093B1000895DC01E62FF0E0EE0FB5
:1007C000FF1FE65CFE4F80818C93818111968C9394
:1007D000119712966C93129713964C9381E0809325
:1007E00080008BE08093810083E08093B00084E000
:1007F0008093B1000895FF920F931F938C01F62E02
:10080000FC01818161E00E94160EF80181816F2D4B
:100810000E94550E1F910F91FF9008950F93DC01D8
:10082000522F262F30E014968D919C911597281702
:10083000390710F080E01BC083E0689F802D1124F1
:1008400090E01696ED91FC911797E80FF91F5083F1
:100850001696ED91FC911797E80FF91F41831696B4
:10086000ED91FC911797E80FF91F028381E00F913A
:100870000895CF93DF93FC01C681D7818481958150
:100880009C01220F331F280F391F9485A085B18545
:100890005FB7F8948C91492F40954823982B11C04D
:1008A000899168E09C9300C087FF4C93880F00C03B
:1008B00000C000C008F44C9300C06A9599F721501D
:1008C00030402115310561F75FBFDF91CF91089569
:1008D00008950F931F938C0170E0FC01758364836E
:1008E000CB01880F991F860F971F0E94750BF80187
:1008F000868397831F910F9108951F93CF93DF9362
:10090000EC01142F0E94C0031130E1F48881282FDC
:1009100030E0F901E656FF4FE491EC872A573F4F4C
:10092000F901249130E0220F331FF901EE58FF4FF7
:100930004591549159874887F901E859FF4F25910E
:1009400034911BC08981282F30E0F901E656FF4F12
:10095000E491EC872A573F4FF901249130E0220FB0
:10096000331FF901EE58FF4F45915491598748873D
:10097000F901E859FF4F259134913B872A8761E0BF
:100980000E94160ECE0164E00E946904DF91CF91AF
:100990001F9108950F931F938C0160E00E94FB0349
:1009A00082E090E00E94710DC80161E00E94FB03AB
:1009B0008AE090E00E94710DC80160E00E94FB0394
:1009C000F801818160E00E94160EF801818161E0EA
:1009D00020E432E44FE050E00E94FC0E1F910F91A2
:1009E00008950E94CA042DE130E040E050E00E94EA
:1009F000CC145595479537952795B901CA010895A7
:100A00000E94C0030895FC016785708981899289DD
:100A10000895FC0163857485858596850895FC019C
:100A200043875487658776874787508B618B728BA6
:100A300013AA14AA15AA16AA13A214A215A216A2E2
:100A400008956F927F928F929F92AF92BF92CF92B2
:100A5000DF92EF92FF920F931F93CF93DF93EC01FE
:100A6000AF84B888C988DA888B859C85AD85BE85BA
:100A7000A81AB90ACA0ADB0A2B893C894D895E8902
:100A8000CA01B9010E94B0137B018C012B8D3C8DF2
:100A90004D8D5E8DCA01B9010E94F9119B01AC0117
:100AA000C801B7010E9461120E94C9129B01AC01EA
:100AB000A114B104C104D104B9F4623071058105F7
:100AC00091050CF085C01BA21CA21DA21EA280E0F5
:100AD00090E0A0E0B0E08B8B9C8BAD8BBE8B1BAA13
:100AE0001CAA1DAA1EAA0BC1EBA8FCA80DA91EA931
:100AF0001A141B041C041D0444F51E141F041006C4
:100B0000110674F46A157B058C059D05B4F5CD5B63
:100B1000DF4F8881C354D040882309F059C02DC0CD
:100B2000E114F1040105110509F452C06A157B05B1
:100B30008C059D050CF04CC0CD5BDF4F8881C35404
:100B4000D040813009F044C038C01E141F04100684
:100B50001106DCF488279927DC018A199B09AC0966
:100B6000BD09281739074A075B073CF4CD5BDF4F07
:100B70008881C354D040813059F588279927DC01FA
:100B8000821B930BA40BB50B1FC0E114F1040105EC
:100B90001105F1F088279927DC018A199B09AC0916
:100BA000BD09281739074A075B0794F4CD5BDF4F6F
:100BB0008881C354D040882359F488279927DC01C1
:100BC0008E199F09A00BB10B8BAB9CABADABBEAB31
:100BD0006BA87CA88DA89EA861147104810491045F
:100BE000A9F48FA998ADA9ADBAAD8BAF9CAFADAF4D
:100BF000BEAFFE01ED5BFF4F10821A141B041C04F4
:100C00001D040CF049C081E0808346C0ABACBCAC95
:100C1000CDACDEACC601B50120E030E040E050ECE8
:100C20000E94B0137B018C01C401B3010E94FC122D
:100C300020E030E040E850E40E94B01320E030E0D3
:100C400040E85FE30E94F9119B01AC01C801B701C4
:100C50000E9461129B01AC01C601B5010E94F9110D
:100C60007B018C016BAF7CAF8DAF9EAFEF96A88000
:100C7000B980CA80DB80EF979501A6010E94AC1372
:100C8000181624F4D801C70157016D01C501D6011A
:100C90008BAF9CAFADAFBEAF8BA99CA9ADA9BEA9D0
:100CA0000196A11DB11D8BAB9CABADABBEAB6BADCB
:100CB0007CAD8DAD9EAD0E94CE126BA37CA38DA3A7
:100CC0009EA360E074E284E799E42BAD3CAD4DADAA
:100CD0005EAD0E9461129B01AC016B8B7C8B8D8B96
:100CE0009E8BCD5BDF4F8881C354D040882339F47D
:100CF000DA01C901B0588B8B9C8BAD8BBE8BDF9119
:100D0000CF911F910F91FF90EF90DF90CF90BF9008
:100D1000AF909F908F907F906F900895FC01878592
:100D20009089A189B28984179507A607B70739F07A
:100D30004787508B618B728BCF010E9421050895EC
:100D4000FC01DB01CA014385548565857685480F22
:100D5000591F6A1F7B1FCF010E948E060895EF92D4
:100D6000FF920F931F93CF93DF93EC017A018B01D6
:100D70006F89788D898D9A8DA80197010E945D12E7
:100D80008823E1F1EF8AF88E098F1A8FEF9660E0E1
:100D900074E284E799E4A80197010E9461126883D4
:100DA00079838A839B83EF978BA99CA9ADA9BEA960
:100DB000181619061A061B060CF52B893C894D8955
:100DC0005E89CA01B9010E94B0137B018C012B8D91
:100DD0003C8D4D8D5E8DCA01B9010E94F9119B01B8
:100DE000AC01C801B7010E9461120E94C9126BAB2D
:100DF0007CAB8DAB9EABCE010E942105DF91CF91E4
:100E00001F910F91FF90EF900895DC0112968C9145
:100E10001297833001F1843040F4813089F0ED91F4
:100E2000FC911197823098F407C0863011F1883018
:100E300049F1843079F516C00084F185E02D1FC09A
:100E4000ED91FC9111970284F385E02D18C0048484
:100E5000F585E02D14C0ED91FC9111970684F7857E
:100E6000E02D0DC0ED91FC9111970088F189E02DE6
:100E700006C0ED91FC9111970288F389E02DCD0118
:100E800009950895ED91FC9111970488F589E02D5D
:100E9000CD0109950895CF93DF93EC016B897C898F
:100EA0008D899E8920E030E040E050E00E94AC1344
:100EB00018161CF4EFA5F8A902C0E9A9FAA909952A
:100EC000DF91CF910895DC014370507060707070B5
:100ED0004130510561057105F1F042305105610560
:100EE000710534F4411551056105710561F00895EE
:100EF0004230510561057105B1F04330510561057E
:100F0000710501F518C0ED91FC9111970480F581F0
:100F1000E02D62E00EC0ED91FC9111970480F58107
:100F2000E02D63E006C0ED91FC910480F581E02D99
:100F300061E009950895ED91FC910480F581E02D23
:100F400060E009950895CF93DF93EC01CB01BA01DE
:100F500023E030E040E050E00E94CC1461307105A5
:100F60008105910591F06230710581059105A9F027
:100F70006115710581059105C1F4E881F98104804D
:100F8000F581E02DCE0164E00FC0E881F981048095
:100F9000F581E02DCE0161E007C0E881F981048090
:100FA000F581E02DCE0162E00995DF91CF910895A2
:100FB000DC01437050706070707041305105610504
:100FC0007105F1F0423051056105710534F44115A8
:100FD00051056105710561F00895423051056105C3
:100FE0007105B1F0433051056105710501F518C077
:100FF000ED91FC9111970480F581E02D65E00EC024
:10100000ED91FC9111970480F581E02D66E006C01A
:10101000ED91FC910480F581E02D6AE00995089539
:10102000ED91FC910480F581E02D69E0099508952A
:10103000CF93DF93EC01CB01BA0126E030E040E032
:1010400050E00E94CC14623071058105910589F150
:10105000633071058105910564F4611571058105A1
:101060009105B9F0613071058105910509F041C024
:1010700018C0643071058105910559F1643071051E
:1010800081059105F4F0653071058105910589F5BB
:1010900028C0E881F9810480F581E02DCE0164E06B
:1010A00027C0E881F9810480F581E02DCE0165E05B
:1010B0001FC0E881F9810480F581E02DCE0161E057
:1010C00017C0E881F9810480F581E02DCE0163E04D
:1010D0000FC0E881F9810480F581E02DCE0162E046
:1010E00007C0E881F9810480F581E02DCE0166E03A
:1010F0000995DF91CF910895DC01477050706070C1
:101100007070433051056105710509F443C04430E6
:1011100051056105710584F4413051056105710582
:1011200049F1423051056105710564F541155105DC
:1011300061057105B9F008954530510561057105E6
:10114000C9F1453051056105710564F1463051051D
:1011500061057105B9F1473051056105710509F067
:1011600040C038C0ED91FC9111970480F581E02DCD
:1011700061E02EC0ED91FC9111970480F581E02D86
:1011800065E026C0ED91FC9111970480F581E02D7A
:1011900064E01EC0ED91FC9111970480F581E02D73
:1011A00066E016C0ED91FC9111970480F581E02D69
:1011B00062E00EC0ED91FC9111970480F581E02D65
:1011C0006AE006C0ED91FC910480F581E02D68E0B5
:1011D00009950895ED91FC910480F581E02D69E079
:1011E00009950895AF92BF92CF92DF92EF92FF924E
:1011F0000F931F93CF93DF93EC01AB88BC88CD880E
:10120000DE88C601B50120E030E040E050E00E94F9
:101210005D128823B9F1C601B501A60195010E94AE
:10122000B0137B018C012B8D3C8D4D8D5E8DCA01E1
:10123000B9010E94F9119B01AC01C801B7010E94DC
:1012400061120E94C9127B018C010894E11CF11CFF
:10125000011D111DC601B50120E030E040E050E065
:101260000E94AC13181624F4CE01B801A70108C0DF
:1012700044275527BA014E195F09600B710BCE0147
:101280000E94A006DF91CF911F910F91FF90EF90E8
:10129000DF90CF90BF90AF900895CF93DF93EC0194
:1012A0008A81882309F18B8161E00E94160E8C816E
:1012B00061E00E94160E8A81843011F0883041F47A
:1012C0008D8161E00E94160E8E8161E00E94160EF3
:1012D0008EA58F3F49F061E00E94160E6DA581E05A
:1012E00068278EA50E94550EDF91CF9108954F92E9
:1012F0005F926F927F928F929F92AF92BF92CF92A6
:10130000EF920F93FC018AE591E0918380836283E1
:1013100013861486158616861786108A118A128AF5
:101320000F2EF0E04F2EF0E05F2EF0E06F2EF0E099
:101330007F2EF02D438A548A658A768A0F2EF0E03C
:101340008F2EF0E09F2EF0E8AF2EFFE3BF2EF02DA2
:10135000878A908EA18EB28E838E948EA58EB68E45
:10136000878E90A2A1A2B2A213A214A215A216A2C5
:1013700081E090E094A783A78FEF86A717A210A61D
:1013800011A612A6438324830583E68213AA14AA16
:1013900015AA16AA47AA50AE61AE72AE43AE54AEBD
:1013A00065AE76AEFF9681929192A192B192108233
:1013B000E354F0401782108611861286CC2019F073
:1013C000CF010E944D090F91EF90CF90BF90AF9049
:1013D0009F908F907F906F905F904F900895CF93E4
:1013E000DF93EC018A81882371F0E881F981048020
:1013F000F581E02DCE0160E009958EA58F3F19F0B3
:101400006DA50E94550EDF91CF910895CF92DF9286
:10141000EF92FF920F931F93CF93DF93FC012281F2
:10142000243029F0283019F092E0D92E02C084E04F
:10143000D82E8F01C0E0D0E0E62EFF24CC24C39448
:10144000F8012381C7010C2E02C0959587950A9457
:10145000E2F7678180FD6C25822F0E94550E219650
:101460000F5F1F4FCD1560F3DF91CF911F910F914B
:10147000FF90EF90DF90CF900895CF93DF93EC0132
:10148000E881F9810480F581E02DCD5BDF4F888113
:10149000C354D040882311F460E001C062E0CE0163
:1014A0000995E881F9810480F581E02DCD5BDF4F5E
:1014B0008881C354D040882311F461E001C063E007
:1014C000CE0109958BA59CA50E94710DE881F9813B
:1014D0000480F581E02DCD5BDF4F8881C354D0407F
:1014E000882311F460E001C062E0CE010995DF912C
:1014F000CF9108956F927F928F929F92AF92BF92F9
:10150000CF92DF92EF92FF920F931F93CF93DF93CF
:10151000EC013A014B01CB01BA0120E030E040E0A0
:1015200050E00E945D12882309F441C0AB8CBC8C52
:10153000CD8CDE8CC601B501A40193010E945D1221
:101540008823A9F16BA97CA98DA99EA90E94FC12F0
:101550007B018C01C601B501A40193010E946112B7
:101560009B01AC01C801B7010E94B0130E94C912CF
:101570006BAB7CAB8DAB9EAB60E070E080E090E449
:10158000A40193010E9461120E94171420E034E22A
:1015900044E759E40E94B0136FAB78AF89AF9AAFBC
:1015A0006B8E7C8E8D8E9E8ECE010E942105DF91EA
:1015B000CF911F910F91FF90EF90DF90CF90BF9050
:1015C000AF909F908F907F906F900895EF92FF92D1
:1015D0000F931F93CF93DF93EC018BA19CA1ADA13F
:1015E000BEA10097A105B10509F44EC00E94F20CFE
:1015F0007B018C012FA138A549A55AA58BA19CA1DF
:10160000ADA1BEA1820F931FA41FB51F8217930720
:10161000A407B50730F0E816F9060A071B0758F4C7
:1016200005C0E816F9060A071B0770F1E216F30673
:101630000407150748F5CD5BDF4F8881C354D040C0
:101640002B853C854D855E85813029F42F5F3F4F8A
:101650004F4F5F4F04C021503040404050402B87D7
:101660003C874D875E87E881F9814B855C856D8578
:101670007E850680F781E02DCE010995EFA2F8A6C0
:1016800009A71AA781E001C080E0DF91CF911F91E7
:101690000F91FF90EF900895CF93DF93EC010E949C
:1016A000E60A882319F0CE010E9421056B897C8906
:1016B0008D899E8920E030E040E050E00E945D127C
:1016C000882371F460E02F85388949895A898B8590
:1016D0009C85AD85BE85281739074A075B0709F049
:1016E00061E0862FDF91CF9108950F931F93CF93E1
:1016F000DF93BC018230910510F462E070E0E0916C
:101700009B02F0919C0240E050E0A0E0B0E024C0D9
:101710008081918186179707D0F08617970771F41B
:1017200082819381109729F013969C938E93129740
:101730002CC090939C0280939B0227C041155105B9
:1017400019F08417950718F48D01AC01EF01DF0142
:10175000828193819C01F9013097D1F641155105A1
:10176000F9F0CA01861B970B8430910580F48A81B9
:101770009B810115110521F0F8019383828304C038
:1017800090939C0280939B02FE01329645C0FE011D
:10179000E80FF91F619371930297998388833CC086
:1017A0008091990290919A02892B41F48091520183
:1017B0009091530190939A02809399024091540121
:1017C000509155014115510541F44DB75EB78091D7
:1017D000500190915101481B590B20919902309171
:1017E0009A0224173507B0F4CA01821B930B86179F
:1017F000970780F0AB014E5F5F4F8417950750F05D
:10180000420F531F50939A0240939902F90161933A
:10181000719302C0E0E0F0E0CF01DF91CF911F9122
:101820000F910895CF93DF939C01009709F48FC027
:10183000EC0122971B821A8260919B0270919C029C
:101840006115710581F488819981820F931F209120
:10185000990230919A022817390739F5D0939A02E4
:10186000C093990274C0DB0140E050E0AC17BD07A3
:1018700008F1BB83AA83FE0121913191E20FF31F8E
:10188000AE17BF0779F48D919C911197280F391FDE
:101890002E5F3F4F3983288312968D919C91139729
:1018A0009B838A834115510571F4D0939C02C093A8
:1018B0009B024DC012968D919C911397AD0100979C
:1018C00011F0DC01D3CFDA011396DC93CE9312979B
:1018D000FA0121913191E20FF31FCE17DF0769F46E
:1018E00088819981280F391F2E5F3F4FFA0131837C
:1018F00020838A819B8193838283E0E0F0E0DB0197
:1019000012968D919C911397009719F0BC01FD01DF
:10191000F6CFAB014E5F5F4FDB018D919C91840F41
:10192000951F2091990230919A022817390779F46E
:10193000309729F410929C0210929B0202C01382ED
:1019400012824250504050939A0240939902DF9184
:10195000CF9108951F920F920FB60F9211242F93DB
:101960003F938F939F93AF93BF938091EA019091A0
:10197000EB01A091EC01B091ED013091EE010196E7
:10198000A11DB11D232F2D5F2D3720F02D5701965E
:10199000A11DB11D2093EE018093EA019093EB010C
:1019A000A093EC01B093ED018091E6019091E701E5
:1019B000A091E801B091E9010196A11DB11D8093AC
:1019C000E6019093E701A093E801B093E901BF918C
:1019D000AF919F918F913F912F910F900FBE0F90DC
:1019E0001F9018959FB7F8942091E6013091E70178
:1019F0004091E8015091E90186B5A89B06C08F3F50
:101A000021F02F5F3F4F4F4F5F4F9FBF542F432F0A
:101A1000322F2227280F311D411D511D82E0220F38
:101A2000331F441F551F8A95D1F7B901CA01089584
:101A30009B01AC017FB7F8948091E6019091E7019A
:101A4000A091E801B091E90166B5A89B05C06F3F80
:101A500019F00196A11DB11D7FBFBA2FA92F982F94
:101A60008827860F911DA11DB11D62E0880F991F67
:101A7000AA1FBB1F6A95D1F7BC012DC0FFB7F89410
:101A80008091E6019091E701A091E801B091E90110
:101A9000E6B5A89B05C0EF3F19F00196A11DB11D49
:101AA000FFBFBA2FA92F982F88278E0F911DA11D38
:101AB000B11DE2E0880F991FAA1FBB1FEA95D1F75D
:101AC000861B970B885E9340C8F2215030404040FF
:101AD000504068517C4F211531054105510571F683
:101AE0000895019739F0880F991F880F991F029761
:101AF0000197F1F70895789484B5826084BD84B528
:101B0000816084BD85B5826085BD85B5816085BDF8
:101B1000EEE6F0E0808181608083E1E8F0E0108211
:101B2000808182608083808181608083E0E8F0E052
:101B3000808181608083E1EBF0E08081846080833C
:101B4000E0EBF0E0808181608083EAE7F0E0808173
:101B500084608083808182608083808181608083D3
:101B60008081806880831092C10008951F93CF9375
:101B7000DF93182FEB0161E00E94160E209709F405
:101B80004AC0CF3FD10509F449C0E12FF0E0E2554A
:101B9000FF4F84918330C1F0843028F4813051F0BC
:101BA0008230B1F50CC0863019F1873049F18430AC
:101BB00079F514C084B5806884BDC7BD33C084B5D1
:101BC000806284BDC8BD2EC08091800080688093F3
:101BD0008000D0938900C093880024C08091800049
:101BE000806280938000D0938B00C0938A001AC0DB
:101BF0008091B00080688093B000C093B30012C0A1
:101C00008091B00080628093B000C093B4000AC09D
:101C1000C038D1051CF4812F60E002C0812F61E043
:101C20000E94550EDF91CF911F910895CF93DF93BE
:101C3000482F50E0CA0186569F4FFC0134914A5705
:101C40005F4FFA018491882369F190E0880F991F12
:101C5000FC01E859FF4FA591B491FC01EE58FF4FEC
:101C6000C591D491662351F42FB7F8948C91932F9A
:101C7000909589238C93888189230BC0623061F40D
:101C80002FB7F8948C91932F909589238C9388810A
:101C9000832B88832FBF06C09FB7F8948C91832B2A
:101CA0008C939FBFDF91CF910895482F50E0CA01D8
:101CB00082559F4FFC012491CA0186569F4FFC011B
:101CC00094914A575F4FFA013491332309F440C08D
:101CD000222351F1233071F0243028F42130A1F077
:101CE000223011F514C02630B1F02730C1F0243075
:101CF000D9F404C0809180008F7703C08091800068
:101D00008F7D8093800010C084B58F7702C084B52A
:101D10008F7D84BD09C08091B0008F7703C0809112
:101D2000B0008F7D8093B000E32FF0E0EE0FFF1F37
:101D3000EE58FF4FA591B4912FB7F894662321F484
:101D40008C919095892302C08C91892B8C932FBF05
:101D50000895682F70E0CB0182559F4FFC012491BC
:101D6000CB0186569F4FFC0144916A577F4FFB0180
:101D70009491992319F420E030E03CC0222351F1E2
:101D8000233071F0243028F42130A1F0223011F5F5
:101D900014C02630B1F02730C1F02430D9F404C08B
:101DA000809180008F7703C0809180008F7D809329
:101DB000800010C084B58F7702C084B58F7D84BD4C
:101DC00009C08091B0008F7703C08091B0008F7DF3
:101DD0008093B000892F90E0880F991F84589F4FFF
:101DE000FC01A591B4918C9120E030E0842311F0A6
:101DF00021E030E0C90108958F929F92AF92BF9287
:101E0000CF92DF92EF92FF920F931F93CF93DF93C6
:101E1000A82FB0E0CD0186569F4FFC018490AA57B1
:101E2000BF4FFD018491662311F4992401C0982CC1
:101E30006FEFA62E6FEFB62E6FEFC62E6FE0D62E89
:101E4000A222B322C422D522682F70E0660F771F2A
:101E500064587F4FEE24FF248701FB01A591B491C4
:101E60000BC0EA14FB040C051D0509F44EC00894D0
:101E7000E11CF11C011D111D8C918821891589F32C
:101E80000CC0EA14FB040C051D0509F43EC00894BF
:101E9000E11CF11C011D111D03C0FB01A591B491B2
:101EA0008C918821891569F720E030E040E050E00E
:101EB000FB01C591D4910FC0DA01C9018E0D9F1DA0
:101EC000A01FB11F8A159B05AC05BD05F1F02F5F62
:101ED0003F4F4F4F5F4F88818821891569F3CA01B1
:101EE000B90125E130E040E050E00E9478149B0108
:101EF000AC01205F3F4F4F4F5F4F84E056954795B1
:101F0000379527958A95D1F704C020E030E040E06E
:101F100050E0B901CA01DF91CF911F910F91FF905D
:101F2000EF90DF90CF90BF90AF909F908F900895EB
:101F300008951F920F920FB60F9211242F933F9383
:101F40004F938F939F93EF93FF938091C00082FDF7
:101F50001DC04091C60020912F02309130022F5FAA
:101F60003F4F2F73307080913102909132022817C9
:101F7000390771F0E0912F02F0913002E151FE4FEC
:101F800040833093300220932F0202C08091C6001C
:101F9000FF91EF919F918F914F913F912F910F90D2
:101FA0000FBE0F901F901895E0918302F09184026C
:101FB000E05CFF4F8191919120813181821B930BD5
:101FC0008F739070892B11F00E94980F08951F92C3
:101FD0000F920FB60F9211242F933F938F939F93DD
:101FE000EF93FF93209173023091740280917502F8
:101FF000909176022817390731F48091C1008F7DC6
:102000008093C10014C0E0917502F0917602ED5CFE
:10201000FD4F2081809175029091760201968F7319
:10202000907090937602809375022093C600FF9182
:10203000EF919F918F913F912F910F900FBE0F9035
:102040001F901895AF92BF92DF92EF92FF920F937D
:102050001F93CF93DF93EC017A018B01DD24403095
:1020600081EE580780E0680780E0780711F0DD24F2
:10207000D39491E0A92EB12CEC89FD89DD2069F083
:10208000C50108A002C0880F991F0A94E2F7808357
:1020900060E079E08DE390E005C0108260E874E8CC
:1020A0008EE190E0A80197010E94AA1421503040CF
:1020B00040405040569547953795279580E1203010
:1020C000380720F0DD2011F0DD24D6CFE889F9892A
:1020D0003083EA89FB89208319A2EE89FF89408138
:1020E00021E030E0C9010C8C02C0880F991F0A94CE
:1020F000E2F7482B4083EE89FF894081C9010D8CAE
:1021000002C0880F991F0A94E2F7482B4083EE899A
:10211000FF894081C9010E8C02C0880F991F0A9463
:10212000E2F7482B4083EE89FF8980810F8C02C043
:10213000220F331F0A94E2F7209528232083DF9192
:10214000CF911F910F91FF90EF90DF90BF90AF90D4
:102150000895DC011C96ED91FC911D97E05CFF4F0A
:102160002191319180819181281B390B2F7330701F
:10217000C9010895DC011C96ED91FC911D97E05C6E
:10218000FF4F20813181E054F040DF01AE5BBF4F53
:102190008D919C9111972817390719F42FEF3FEF74
:1021A00007C08D919C91E80FF91F8081282F30E0A6
:1021B000C9010895DC011C96ED91FC911D97E05C2E
:1021C000FF4F20813181E054F040DF01AE5BBF4F13
:1021D0008D919C9111972817390719F42FEF3FEF34
:1021E00010C08D919C911197E80FF91F20818D915E
:1021F0009C91119701968F73907011969C938E937A
:1022000030E0C9010895DC0191968C919197882363
:1022100039F05496ED91FC915597808186FFF9CF66
:1022200091961C920895CF93DF93EC01EE85FF8584
:10223000E05CFF4F20813181E054F0402F5F3F4F41
:102240002F733070DF01AE5BBF4F8D919C91119762
:1022500028173907D1F3E05CFF4F80819181E0546A
:10226000F040E80FF91F6083EE85FF85E05CFF4FCB
:1022700031832083EE89FF89208181E090E00F8CFB
:1022800002C0880F991F0A94E2F7282B208381E06F
:1022900089A3EC89FD8980818064808381E090E05E
:1022A000DF91CF91089510927A021092790288EE10
:1022B00093E0A0E0B0E080937B0290937C02A09337
:1022C0007D02B0937E0284E791E090937802809340
:1022D00077028FEE91E0909384028093830283E3F0
:1022E00092E0909386028093850285EC90E0909333
:1022F00088028093870284EC90E090938A02809316
:10230000890280EC90E090938C0280938B0281ECA8
:1023100090E090938E0280938D0282EC90E09093F7
:10232000900280938F0286EC90E0909392028093CB
:10233000910284E08093930283E08093940287E08B
:102340008093950285E08093960281E080939702C6
:102350000895CF93DF930E947B0D0E947703C4ED15
:10236000DFE00E9466032097E1F30E94D40FF9CFCB
:10237000EF92FF920F931F937B018C016115710502
:102380008105910529F420E030E040E050E00BC0E9
:102390000E94E100A80197010E94CC14AC01CB017E
:1023A000DA019C01AD01B901CA011F910F91FF90A3
:1023B000EF900895EF92FF920F931F937B018C0192
:1023C000621773078407950764F4261B370B480BC5
:1023D000590BCA01B9010E94B811E60EF71E081F79
:1023E000191FB701C8011F910F91FF90EF90089539
:1023F0005058BB27AA270ED075C166D130F06BD1DB
:1024000020F031F49F3F11F41EF45BC10EF4E0950F
:10241000E7FB51C1E92F77D180F3BA176207730741
:102420008407950718F071F49EF58FC10EF4E095BE
:102430000B2EBA2FA02D0B01B90190010C01CA017E
:10244000A0011124FF27591B99F0593F50F4503E29
:1024500068F11A16F040A22F232F342F4427585F1B
:10246000F3CF469537952795A795F0405395C9F733
:102470007EF41F16BA0B620B730B840BBAF09150EB
:10248000A1F0FF0FBB1F661F771F881FC2F70EC08A
:10249000BA0F621F731F841F48F48795779567955D
:1024A000B795F7959E3F08F0B3CF9395880F08F046
:1024B0009927EE0F979587950895D9D008F481E074
:1024C00008950CD00FC107D140F0FED030F021F4B8
:1024D0005F3F19F0F0C0511139C1F3C014D198F326
:1024E0009923C9F35523B1F3951B550BBB27AA2795
:1024F00062177307840738F09F5F5F4F220F331F07
:10250000441FAA1FA9F333D00E2E3AF0E0E830D0D2
:1025100091505040E695001CCAF729D0FE2F27D0D5
:10252000660F771F881FBB1F261737074807AB07A3
:10253000B0E809F0BB0B802DBF01FF2793585F4F18
:102540002AF09E3F510568F0B6C000C15F3FECF332
:10255000983EDCF3869577956795B795F7959F5FDD
:10256000C9F7880F911D9695879597F90895E1E031
:10257000660F771F881FBB1F621773078407BA0790
:1025800020F0621B730B840BBA0BEE1F88F7E095EB
:10259000089504D06894B111D9C00895BCD088F0D2
:1025A0009F5790F0B92F9927B751A0F0D1F0660F3F
:1025B000771F881F991F1AF0BA95C9F712C0B1305A
:1025C00081F0C3D0B1E00895C0C0672F782F88276D
:1025D000B85F39F0B93FCCF3869577956795B39599
:1025E000D9F73EF490958095709561957F4F8F4F08
:1025F0009F4F0895E89409C097FB3EF4909580950D
:10260000709561957F4F8F4F9F4F9923A9F0F92FB8
:1026100096E9BB279395F695879577956795B79536
:10262000F111F8CFFAF4BB0F11F460FF1BC06F5F1C
:102630007F4F8F4F9F4F16C0882311F096E911C02E
:10264000772321F09EE8872F762F05C0662371F04F
:1026500096E8862F70E060E02AF09A95660F771F63
:10266000881FDAF7880F9695879597F90895990F3F
:102670000008550FAA0BE0E8FEEF16161706E8074C
:10268000F907C0F012161306E407F50798F0621B6D
:10269000730B840B950B39F40A2661F0232B242B42
:1026A000252B21F408950A2609F4A140A6958FEF61
:1026B000811D811D089597F99F6780E870E060E0B3
:1026C00008959FEF80EC089500240A9416161706CB
:1026D00018060906089500240A9412161306140613
:1026E00005060895092E0394000C11F4882352F076
:1026F000BB0F40F4BF2B11F460FF04C06F5F7F4F2E
:102700008F4F9F4F089557FD9058440F551F59F014
:102710005F3F71F04795880F97FB991F61F09F3FCE
:1027200079F087950895121613061406551FF2CFF7
:102730004695F1DF08C0161617061806991FF1CF47
:1027400086957105610508940895E894BB2766276E
:102750007727CB0197F908958ADF08F48FEF089562
:102760000BD0C0CFB1DF28F0B6DF18F0952309F009
:10277000A2CFA7CF1124EACFC6DFA0F3959FD1F354
:10278000950F50E0551F629FF001729FBB27F00D1F
:10279000B11D639FAA27F00DB11DAA1F649F662774
:1027A000B00DA11D661F829F2227B00DA11D621FC3
:1027B000739FB00DA11D621F839FA00D611D221F7D
:1027C000749F3327A00D611D231F849F600D211D61
:1027D000822F762F6A2F11249F5750408AF0E1F004
:1027E00088234AF0EE0FFF1FBB1F661F771F881F4D
:1027F00091505040A9F79E3F510570F05CCFA6CF95
:102800005F3FECF3983EDCF3869577956795B79537
:10281000F795E7959F5FC1F7FE2B880F911D969561
:10282000879597F9089511F40EF44BCF4AC073DFE2
:10283000D0F39923D9F3CEF39F57550B87FF51D08F
:1028400056959795B0E020F4660F771F881FBB1F41
:102850001F930F9300249001A0018001F001A0E8D4
:102860000E0F1F1F0A1E511D601B710B8009B50B37
:1028700048F4600F711F801DB51F0E1B1F0B0A0A45
:10288000510907C02E0F3F1F4A1F0E0F1F1F0A1EA0
:10289000511D660F771F881FBB1FA695F795E795FB
:1028A000F8F60617170708065B07211D311D411DA5
:1028B0000F911F91B901842F9158880F9695879594
:1028C00008959F3F49F0915028F486957795679534
:1028D000B7959F5F80389F4F880F9695879597F99A
:1028E000089591505040660F771F881FD2F70895C2
:1028F000629FD001739FF001829FE00DF11D649FE4
:10290000E00DF11D929FF00D839FF00D749FF00D6F
:10291000659FF00D9927729FB00DE11DF91F639F10
:10292000B00DE11DF91FBD01CF011124089597FBE2
:10293000092E07260AD077FD04D049D006D0002002
:102940001AF4709561957F4F0895F6F790958195EB
:102950009F4F0895A1E21A2EAA1BBB1BFD010DC0BB
:10296000AA1FBB1FEE1FFF1FA217B307E407F5073F
:1029700020F0A21BB30BE40BF50B661F771F881F1B
:10298000991F1A9469F760957095809590959B01B1
:10299000AC01BD01CF01089597FB092E05260ED08D
:1029A00057FD04D0D7DF0AD0001C38F4509540956D
:1029B000309521953F4F4F4F5F4F0895F6F7909513
:1029C0008095709561957F4F8F4F9F4F0895AA1BFB
:1029D000BB1B51E107C0AA1FBB1FA617B70710F00A
:1029E000A61BB70B881F991F5A95A9F7809590953C
:1029F000BC01CD010895EE0FFF1F0590F491E02D6D
:102A000009942F923F924F925F926F927F928F9292
:102A10009F92AF92BF92CF92DF92EF92FF920F936D
:102A20001F93CF93DF93CDB7DEB7CA1BDB0B0FB677
:102A3000F894DEBF0FBECDBF09942A883988488834
:102A40005F846E847D848C849B84AA84B984C884CA
:102A5000DF80EE80FD800C811B81AA81B981CE0FC1
:102A6000D11D0FB6F894DEBF0FBECDBFED010895A6
:102A700010E0C6ECD0E004C0FE010E94FD142296D6
:0A2A8000C83CD107C9F7F894FFCF56
:102A8A0001000000313233313031323331303334E6
:102A9A003530333435303030353635343330313003
:102AAA0030353635343330313030333035313030FB
:102ABA00303330353100FFFF5000FFFF0B0A0309A6
:102ACA000C0D0802FFFF1011FF0FFF0E0607050489
:102ADA0080009D02000000000000EF094D09060A6F
:102AEA0005074B073D0A6307A307D80718087C08A0
:0E2AFA00000000001311A910DA10BA10031129
:00000001FF
